:200000000C9433000C9494121895FFFF1895FFFF1895FFFF1895FFFF1895FFFF1895FFFFC5
:200020001895FFFF1895FFFF1895FFFF0C9444020C9446020C944D020C944F021895FFFF66
:200040001895FFFF1895FFFF0C942F040C94F9040C94F8040C944E121895FFFF1895FFFFE8
:200060000C94AA18189505B70160102F0D7F15BF05BFE0E0F1E000270193F530E9F7E03090
:20008000D9F70293EDBFFEBFEEE1FF27EA95F083E9F700E007B90FE308B902EC0AB90AEFCE
:2000A0000BB90BE204B90CEF05B903E000936C0000E0009368000CE00093B80002E30093AD
:2000C000BA0005E40093BC0002E00093B00003E00093B1000CE70093B30000E000937000C6
:2000E000BAE4A8E3A0930B01B0930C01B0938900A0938800BAE4A8E3A0930D01B0930E0105
:20010000B0938B00A0938A0000E00093800007E000936F0002E00093810009EF07BD08BD01
:2001200002E004BD03E000936E0003E005BD09E00093580109E00093590109E000935A0111
:200140000AE00093690001E00DBB00E000937B0007E000937C000DEE00937A00EF93FF9310
:20016000F3ECE0E53197319631973196319731963197C1F7FF91EF910E94A7160AE70E94AC
:20018000ED160E94D116002326F00AE70093B30111C00E94A71608E70E94ED160E94D11615
:2001A000002326F008E70093B30104C000E00093B3010FC00E9458100E947D100E94091022
:2001C000C0E3D1E0C0933201D09333010FEF0093200109B105FD0C94F100B4E0A0EB0C94F0
:2001E000F300AA27BB27A0933001B093310109E80E946615B0E0A5E0A0931901B0931A01B2
:200200000091B3010F3F21F0E8E1F7E10E94B71478940FEF00931E010E941F040C941901F1
:20022000C8EED3E0E0E4FFE13197F1F72197D1F708950091650100FF05C00E7F00936501A3
:200240000F930F9101FF07C00D7F009365010F930E9439180F9103FF09C0077F0093650191
:200260000F930E941F040E94BA010F9104FF09C00F7E009365010F930E941F040E94DD01E1
:200280000F9105FF23C00F7D009365010F9300911801003059F0EF93FF93C2E3D0E0C093D1
:2002A0001901D0931A01FF91EF910AC0EF93FF93C5E0D0E0C0931901D0931A01FF91EF9168
:2002C00002E0009318010E9478050F9106FF23C00F7B009365010F9300911801003059F0A1
:2002E000EF93FF93C2E3D0E0C0931901D0931A01FF91EF910AC0EF93FF93C5E0D0E0C09314
:200300001901D0931A01FF91EF9102E0009318010E94B8050F910091660100FF05C00E7F5F
:20032000009366010F930F9101FF09C00D7F009366010F930E94F4010E9447060F9102FF69
:200340000CC00B7F009366010F9300911801003009F00A95009318010F9103FF09C0077F9C
:20036000009366010F930E94A0030E94CD030F910C941901FF92FFB6FF920F9300912301A2
:20038000003021F402E00E94290312C0013021F400E00E9429030CC0023021F400E00E940D
:2003A000290306C0033021F400E00093B50100C00F91FF90FFBEFF900895FF92FFB6FF922B
:2003C0000F9300912301003021F401E00E94290306C0033021F400E00E94290300C00F91B6
:2003E000FF90FFBEFF900895FF92FFB6FF92CF93DF93EF93FF930F931F932F930E94080402
:200400000E94F60F00915B01023009F02FC000270F930091300100930401009131010093B5
:20042000050100912E010093060100912F010093070100912301009308010AE80E946615A0
:2004400000912301002389F400912101002339F009E80E940A150AE80E941C1506C009E81A
:200460000E941C150AE80E940A150F91039500935B012F911F910F91FF91EF91DF91CF91DF
:20048000FF90FFBEFF9008955E9818955E9A0F9301E000931D000F9118955E9A1895FF9293
:2004A000FFB6FF923F932F931F930F931091660100915C01093029F0039500935C011860C6
:2004C00021C0002700935C0100915D01093029F0039500935D01146015C0002700935D01F9
:2004E00000915E01093029F0039500935E01126009C0002700935E0100915F0103950093C0
:200500005F011160109366010F911F912F913F91FF90FFBEFF9018958F028F02BF02EEEED9
:20052000D4D4BDBDB2B29E9E8D8D7E7E767669695E5E58584F4F46463E3E3B3B000000009D
:2005400000000000000000000000000000000000000000000000000000000000000000009B
:200560000000000000000000000000000000000000000000000000000000000000004646EF
:2005800046464646464646460000000000000000000046464646464646464646000000006F
:2005A0000000000000003B3B3B3B3B3B3B3B3B3B00000000000000000000000000000000ED
:2005C000000000000000000000000000000000000000000000000000000000000000EF9399
:2005E000FF930F931F930091B501002309F425C0E8E1F5E011270370E00FF11FE00FF11F82
:2006000005911491F801EE0FFF1F0091B40110E0E00FF11F0395003608F000270093B40121
:200620000491002331F00093B30002E40093B0000BC002E00093B00007C002E00093B00096
:2006400000270093B40100C01F910F91FF91EF9108950F930027009321010F91003009F423
:200660000AC0013009F420C0023009F436C0033009F44CC064C0009323010FEF00931E01B6
:20068000C0E3D1E0C0933201D09333012D9A0091B301002341F00F3F31F00E947D10E8E122
:2006A000F7E10E94B7144BC0009323010FEF00931E01CEE2D1E0C0933201D09333012D9840
:2006C0000091B301002341F00F3F31F00E947D10E7E2F7E10E94B71432C0009323010FEF2E
:2006E00000931E01CEE2D1E0C0933201D09333012D9A0091B301002341F00F3F31F00E9459
:200700007D10E6E3F7E10E94B71419C0009323010FEF00931E01CEE2D1E0C0933201D093B4
:2007200033012D9A0091B301002341F00F3F31F00E947D10E4E4F7E10E94B71400C008951D
:2007400009B1087110911501103021F4003011F510E820C0083161F0083021F413951A3F74
:2007600090F418C0003119F41A95153020F012C0103881F040F00091650100640F7D0093A6
:200780006501112707C0009165010F7B006200936501112710931501089509B100721FEF50
:2007A000012705FBA9E0B1E0CAE0D1E00E94E9030E94F7031091650100910A01007E003A17
:2007C00011F4106103C0003409F418601093650108950C911FE22EF01A95011731F0039555
:2007E00004C01195011709F00A950C930895188117FB0C91002342F056F416FD03C01F7750
:20080000106404C0112702C016F010E818830895CAE0D1E021E0199117FB76F416FB66F087
:20082000012F0F710F3141F00395107E102B0A3008F010621A9319912A9569F708950F93DD
:200840001F93CF93DF93CAE0D1E011E00FEF09931A95E9F7DF91CF911F910F910895FF924F
:20086000FFB6FF92EF93FF931F930F930091650100FD42C0E7E6F1E00091C600033509F4AA
:2008800012C0033711F403E50EC00D3409F40BC00D3611F40DE407C0043509F404C00D3051
:2008A00009F425C005C0008300270093A70124C0003370F0093368F061F0013448F00634A9
:2008C00040F039F00052013418F0063410F009F013C01091A70113951F3010F009F00CC025
:2008E0001093A701E10F10E0F11F008305C0009165010160009365010F911F91FF91EF91C4
:20090000FF90FFBEFF901895FF92FFB6FF92EF93FF930F931F932F93E7E6F1E01091A70167
:200920000191033509F407C00D3409F436C0043509F44BC04CC02227143029F0133051F07E
:20094000123071F044C001910E94610528F10295007F202F01910E946105F0F00F70202B94
:2009600001910E946105C0F00295007F102F01910E94610588F00F70102B05EC101709E00B
:20098000200750F4209331011093300109E80E9466150FEF00931E011AC0113009F017C08A
:2009A00000912301033081F001910E94610560F0033008F00CC0009323010E9429030FEF7A
:2009C00000931E010093200102C0000000C000270093A701009165010E7F009365012F9190
:2009E0001F910F91FF91EF91FF90FFBEFF9008951895FF92FFB6FF92EF93FF931F930F9333
:200A0000E7E8F1E00091A80110E0E00FF11F03950F71003079F00093A8010191003051F01D
:200A20000093C6000F911F91FF91EF91FF90FFBEFF90189508ED0093C100F4CF0895FF923B
:200A4000FFB6FF92AF93BF93CF93DF93EF93FF930F931F93A7E8B1E004E50D93CEE2D1E076
:200A600009810E94E6100D9308810E94E6101D930D93C0E3D1E009810E94E6100D930881A4
:200A80000E94E6101D930D93C3E2D1E008810E94E6100D930DE00D930AE00D9300E00D93C0
:200AA0000093A80108EF0093C1001F910F91FF91EF91DF91CF91BF91AF91FF90FFBEFF9014
:200AC0000895003398F00A3318F4005388940FC0013460F0073418F40753889408C00136F6
:200AE00028F0073618F40755889401C008940895FF92FFB6FF920F931F932F933F930091D3
:200B00002301033009F42CC00FEF00931E01009121010F3F09F424C000913001109131016E
:200B20002091190130911A01020F131F0E94340620E931E00217130710F4890107C024EC3D
:200B400039E00217130710F009F08901009330011093310109E80E9466150FEF00931E016F
:200B60003F912F911F910F91FF90FFBEFF900895FF92FFB6FF926F927F928F929F92AF92A1
:200B8000BF92CF92DF920F931F932F933F9300912301033009F458C00FEF00931E01E0912C
:200BA0002101EF3F91F500912301003071F58090190190901A01880C991C880C991C880C89
:200BC000991C880C991C60903601709037016818790888249924A0901901B0901A01CC24B9
:200BE000DD240E94F9108090190190901A010E94CB10850128E833E120930B0130930C012E
:200C00002091190130911A0108C000913001109131012091190130911A01021B130B0E944C
:200C2000340620E931E00217130717FD01C010F400271127009330011093310109E80E94C9
:200C400066150FEF00931E013F912F911F910F91DF90CF90BF90AF909F908F907F906F90D1
:200C6000FF90FFBEFF900895380188249924A0901901B0901A01CC24DD240E94F910809009
:200C8000190190901A010E94CB1085010895FF92FFB6FF920F931F9300912301033009F44F
:200CA0003AC006B1037000FF21C010E01093BA0101FD03C001FF0FC02EC00091230101307E
:200CC00049F40091BB01003829F400E00093BB010E94290320C000912301003031F401E06D
:200CE0000E94290300E80093BB0115C010912301133011F400E005C00091BA010A3020F4CE
:200D000003950093BA0107C003E00E94290302E00093B50100C01F910F91FF90FFBEFF905F
:200D200018959406180A9609C0FF0C0200F0FC0E0703030303FFFF00003F3F030303030346
:200D4000033F3F0000FFFFC3C3C3C3C3C3830300003F3F3030303030391F0F0000FFFFC366
:200D6000C3C3C3E7FEBC0000003F3F3030303030391F0F0000FFFF0303030303030303009E
:200D8000003F3F00000000000000000000F0FC0E0703030303FFFF00F0FF3F3030303030AC
:200DA000303FFFF000FFFFC3C3C3C3C3C3030300003F3F3030303030303030000F3EF8E01C
:200DC000C0FFFFC0E0F81E073C1F0701003F3F0001071F3C000C0E07C3C3C3C3C3E77E3CC3
:200DE000000C1C383030303030391F0E00FFFF0000C0F0380EFFFF00003F3F1C07030000A7
:200E0000003F3F0000FFFF0000C6F3380EFFFF00003F3F1C07030000003F3F0000FFFFC079
:200E2000E0F0381C0E070300003F3F000103070E1C3830000000000003FFFF0303FFFF0056
:200E400000183830381F0F00003F3F0000FFFF1E78E0E0781EFFFF00003F3F0000010100C6
:200E6000003F3F0000FFFFC0C0C0C0C0C0FFFF00003F3F0000000000003F3F0000F0FC0E82
:200E8000070303070EFCF00000030F1C383030381C0F030000FFFF030303030303FFFF000A
:200EA000003F3F0000000000003F3F0000FFFF8383838383C7FE7C00003F3F0101010101E5
:200EC0000100000000F0FC0E07030303070E0C0000030F1C38303030381C0C00000003038A
:200EE00003FFFF030303000000000000003F3F0000000000007FFFC0C0C0C0C0C0FFFF006E
:200F00000018383030303030381F070000F8FC0C0CFFFF0C0CFCF80000030706063F3F0683
:200F20000607030000030F1C30E0E0301C0F030000303C0E030101030E3C300000FFFF002B
:200F400000000000FFFF0000003F3F30303030303FFFF000007FFFC0C0C0C0C0C0FFFF00FB
:200F60000000000000000000003F3F0000FFFF0000FFFF0000FFFF00003F3F30303F3F306D
:200F8000303F3F0000FFFF0000FFFF0000FFFF00003F3F30303F3F30303FFFF00F0F03FF9F
:200FA000FF606060E0C080000000003F3F303030381F0F0000FFFF6060E0C08000FFFF00A2
:200FC000003F3F3030381F0F003F3F0000FFFF6060606060E0C08000003F3F3030303030E3
:200FE000381F0F00000C0E07C3C3C3C7CEFCF000000C1C38303030381C0F0300FFFFC0F09C
:20100000FC0E0703070EFCF03F3F00030F1C3830381C0F03007CFEC78383838383FFFF0073
:201020000030381D0F070301013F3F00000040606060606060E0C000001C3E333333333319
:20104000333F3F0000F0F898D8D8D8D8D88C0000001F3F3130303030391F0F000000E0E025
:2010600060606060E0C0000000003F3F323232323F1D00000000E0E06060606060600000AE
:2010800000003F3F0000000000000000000080C060606060E0E0000000F0FF3F3030303064
:2010A0003FFFF0000080C0E06060606060C08000000F1F3B333333333313010060E0C080C6
:2010C00000E0E00080C0E06030381F07033F3F03071F3830000080C060606060C080000030
:2010E00000000818303232321F0D00000000E0E00000000080E0E00000003F3F180C060333
:20110000013F3F000000E0E00000180C80E0E00000003F3F180C0603013F3F000000E0E042
:201120000080C0E06000000000003F3F03070F1C38300000000000000080E060E0E0000094
:20114000000020381E0701003F3F000000E0E0E0C00000C0E0E0E000003F3F00010303014D
:20116000003F3F000000E0E00000000000E0E00000003F3F06060606063F3F000080C0E037
:2011800060606060E0C08000000F1F3830303030381F0F000000E0E06060606060E0E000C3
:2011A00000003F3F00000000003F3F0000E0E06060606060E0C0800000FFFF0C1818181809
:2011C0001C0F07000080C0E06060606060C08000000F1F3830303030301808000000606067
:2011E00060E0E0606060000000000000003F3F0000000000000060E080000080E0600000B1
:2012000000000081E77E1E07010000000080C0C0C0E0E0C0C0C08000001F3F3030FFFF3096
:20122000303F1F000060E0C0800080C0E06000000030381D0F070F1D383000000000E0E031
:2012400000000000E0E0000000003F3F303030303FFFF0000000E0E000000000E0E00000E2
:2012600000000307060606063F3F000000E0E00000E0E00000E0E000003F3F30303F3F3002
:20128000303F3F0000E0E00000E0E00000E0E000003F3F30303F3F30303FFFF000E0E06056
:2012A000E0E0000000000000000000003F3F3333333F1E0000E0E0000000000000E0E0007A
:2012C000003F3F3333333F1E003F3F000000E0E0000000000000000000003F3F3333333312
:2012E0003F1E00000080C06060606060C0800000000818303033333B1F0F000000E0E00022
:2013000080C0E060E0C08000003F3F030F1F3830381F0F000000C0E060606060E0E00000D0
:201320000000313B1E0E06023F3F00002E3D080200000000000018180018180000000000BA
:201340000000000000000000000000000000000000E0F0180818F0E000070F1810180F0749
:2013600000406030F8F80000001010101F1F1010003038080888F87000181C161311181819
:201380000030388888C87830000C1C1010111F0E0000C0F0781880800007070504041F1F46
:2013A00000F8F88888888808000C1C1010101F0F00F0F88888889810000F1F1010101F0FDB
:2013C0000008080888E878180000181E070100000070F8888888F870000F1F1010101F0FC3
:2013E00000F0F8080808F8F00008191111111F0F000000181820408000000018180402003D
:2014000000402018180000000102041818000000808000000000000003070F1E3C383C1E00
:201420000080C0E0F0783C1E0F0703010000000030421E050000000080C0E0F0F0F8F8FC2F
:20144000FCFCFCFCFCFCFCF8F8F0F0E0C080000000000000F8FEFFFFFFFFFF1F070303019A
:201460000101010303071FFFFFFFFFFFFEF800000000FFFFFFFFFFFFFF0000000000000053
:201480000000000000FFFFFFFFFFFFFF000000001F7FFFFFFFFFFFF8E0C0C080808080C0A2
:2014A000C0E0F8FFFFFFFFFF7F1F0000000000000103070F0F1F1F3F3F3F3F3F3F3F3F1F7D
:2014C0001F0F0F070301000000000000000000000000000080C0E0F0F8FCFCFCFCFC0000D0
:2014E00000000000000000000000000000F0F8FCFEFF7F3F1FFFFFFFFFFFFFFF0000000035
:2015000000000000000000000000000F07030100000000FFFFFFFFFFFFFF000000000000B8
:201520000000000000000000000000000000000000FFFFFFFFFFFFFF0000000000000000B2
:201540000000000000003F3F3F3F3F3F3F3F3F3F3F3F3F3F3F3F3F3F3F3F3F3F3F3F0000A3
:201560000000000080C0E0F0F0F8F8FCFCFCFCFCFCFCFCF8F8F0F0E0C080000000000000AB
:20158000181E1F1F1F1F1F1F070303010101010303079FFFFFFFFFFFFEF8000000000000AD
:2015A00000000000000000000080C0E0F0F8FCFEFFFF7F3F1F0F07010000000000000080B7
:2015C000C0E0F0F8FCFEFFFFFFBF9F8F87838180808080808080000000003C3E3F3F3F3F1E
:2015E0003F3F3F3F3F3F3F3F3F3F3F3F3F3F3F3F3F3F3F3F0000000000000080C0E0F0F0FF
:20160000F8F8FCFCFCFCFCFCF8F8F0F0E0C0800000000000000000000E0F0F0F0F0F0F0793
:20162000838381818383C7FFFFFFFFFFFFFE000000000000000000000000000000001F1F9F
:201640001F1F1F3F3F7FFFFFFFFBF1E0C000000000001878F8F8F8F8F8F8E0C0C080808067
:2016600080C0C0E0F0FFFFFFFFFF7F1F0000000000000103070F0F1F1F3F3F3F3F3F3F3FE1
:201680003F1F1F0F0F0703010000000000000000000000000000000080E0F8FCFCFCFCFC60
:2016A0003C0C0000000000000000000000000000000080E0F8FEFFFFFFFF3F0F030000003F
:2016C00000000000000000000000000080E0F8FEFFFFFFFF3F0F0300000000FEFEFEFEFE71
:2016E000FEFE000000000000787E7F7F7F7F7F7F7F7F7F7F7F7F7F7F7FFFFFFFFFFFFFFF8E
:201700007F7F0000000000000000000000000000000000000000003F3F3F3F3F3F3F000012
:201720000000000000FCFCFCFCFCFCFCFCFCFCFCFCFCFCFCFCFCFCFCFCFCFCFCFC00000009
:20174000000000FFFFFFFFFFFFFFF0F0F0F0F0F0F0F0E0E0E0C0C080000000000000000070
:201760000001030707070707070707070707070F0F1F7FFFFFFFFFFEF8E0000000001878F3
:20178000F8F8F8F8F8F8E0C0C080808080C0C0E0F8FFFFFFFFFF7F1F000000000000010324
:2017A000070F0F1F1F3F3F3F3F3F3F3F3F1F1F0F0F07030100000000000000000000000067
:2017C0000080E0F8FCFCFCFCFCFC7C1C04000000000000000000000000000080E0F8FEFFD8
:2017E000FFFFFFFFFFDFC7C1C080800000000000000000000000E0F8FEFFFFFFFFFF7F3F38
:201800003F1F1F1F1F3F3F7FFFFFFFFEFCF8E080000000001F7FFFFFFFFFFFF9E0C0C0804F
:20182000808080C0C0E0F9FFFFFFFFFF7F1F0000000000000103070F0F1F1F3F3F3F3F3F94
:201840003F3F3F1F1F0F0F070301000000000000FCFCFCFCFCFCFCFCFCFCFCFCFCFCFCFCA4
:20186000FCFCFCFCFCFCFCFCFCFC0000000001010101010101010101010101010181E1F926
:20188000FFFFFFFFFF3F0F0300000000000000000000000000000080E0F8FEFFFFFFFF3F6B
:2018A0000F0300000000000000000000000000000080E0F8FEFFFFFFFF3F0F030000000073
:2018C00000000000000000000000000020383E3F3F3F3F3F0F030000000000000000000025
:2018E000000000000000000000C0E0F0F0F8F8FCFCFCFCFCFCFCFCF8F8F0F0E0C000000028
:201900000000000000003FFFFFFFFFFFC38181000000008181C3FFFFFFFFFF3F00000000C9
:2019200000000080E0F0F9FFFFFFFF7F7F3F3F3F3F7F7FFFFFFFFFF9F0E080000000000025
:201940001E7FFFFFFFFFFFF3C08080000000008080C0F3FFFFFFFFFF7F1E000000000000F1
:201960000103070F0F1F1F3F3F3F3F3F3F3F3F1F1F0F0F070301000000000000000080C061
:20198000E0F0F0F8F8FCFCFCFCFCFCFCFCF8F8F0F0E0C080000000000000F8FEFFFFFFFFD5
:2019A000FF9F070303010101010303079FFFFFFFFFFFFEF80000000001071F3F7FFFFFFFF9
:2019C000FEFCFCF8F8F8F8FCFCFEFFFFFFFFFF7F1F07000000000000000000000001010396
:2019E0000383E3FBFFFFFFFFFF7F1F0701000000000000000000000000000000303C3F3FF8
:201A00003F3F3F3F1F070100000000000000000000000000000000000000000000000000A3
:201A2000000000000000000000000000000000000000000000000000C0E0F0F8F8FCFC7CB2
:201A40007C7CFCFCF8F8F0E0C0000000000000000000000000FEFFFFFFFF03000000000019
:201A6000000003FFFFFFFFFE00000000000000000000003FFFFFFFFFE0808000000080804E
:201A8000E0FFFFFFFF7F000000000E1F1F1F0E0000000103070F0F1F1F1F1F1F1F1F1F0F42
:201AA0000F070300000000000000000000000000000000000000000000000000000000000D
:201AC000000000000000000000000000000000000080C0E0F0F8FCFCFC000000000000000A
:201AE0000000000000000000000000F8FCFE7F3F1F0FFFFFFFFFFF0000000000000000000D
:201B000000000000000000000001010000000000FFFFFFFFFF0000000000000000000000C8
:201B20000E1F1F1F0E0000001F1F1F1F1F1F1F1F1F1F1F1F1F1F1F1F1F000000000000001D
:201B4000000000000000000000000000000000000000000000000000000000000000000085
:201B600000000080C0F0F8F8FCFC7C7C7C7CFCFCF8F8F0E080000000000000000000000025
:201B80000007070707070100000080C0E0F1FFFFFF7F1F0000000000000000000000000075
:201BA00080C0E0F0F8FCFE7F3F1F0F07030100000000000000000E1F1F1F0E00001F1F1F56
:201BC0001F1F1F1F1F1F1F1F1F1F1F1F1F1F1F000000000000000000000000000000000034
:201BE0000000000000000000000000000000000000000000000000000000C0F0F8F8FCFC4D
:201C0000FC7C7C7CFCFCFCF8F8F0E000000000000000000000000000010101010101F0F0BA
:201C2000F0F0F8FDFFFFFFFFCF000000000000000000000000F0F0F0F0F0C0800101010110
:201C40000183C7FFFFFFFFFF000000000E1F1F1F0E00000001070F0F1F1F1F1F1F1F1F1FA7
:201C60001F0F0F07030000000000000000000000000000000000000000000000000000001D
:201C8000000000000000000000000000000000000000000000C0F0FCFCFCFC3C0000000068
:201CA000000000000000000000000000000000C0F0FCFFFFFF3F0F0300E0E0E0E0E00000CA
:201CC00000000000000000000000007C7F7F7F7F7F7F7C7C7C7C7CFFFFFFFFFF7C7C00002F
:201CE00000000E1F1F1F0E00000000000000000000000000001F1F1F1F1F000000000000D0
:201D00000000000000000000000000000000000000000000000000000000000000000000C3
:201D20000000000000FCFCFCFCFC7C7C7C7C7C7C7C7C7C7C7C7C7C0000000000000000006B
:201D40000000001F3F7F7F7F7C7C7C7C7C7CFCFCFCF8F8F0E0C0000000000000000000004C
:201D600000F0F0F0F0F0C080000000008080C1FFFFFFFFFF000000000E1F1F1F0E0000003E
:201D800001070F0F1F1F1F1F1F1F1F1F1F0F0F0703000000000000000000000000000000DE
:201DA000000000000000000000000000000000000000000000000000000000000000000023
:201DC00080E0F8FCFCFC3C0C00000000000000000000000000000000000080E0F8FEFFFF1B
:201DE000FFFFF3F0F0F0F0E0E0C0000000000000000000000000007EFFFFFFFFC7830101EC
:201E000001010183C7FFFFFFFF7C000000000E1F1F1F0E00000001070F0F1F1F1F1F1F1FA4
:201E20001F1F1F0F0F0701000000000000000000000000000000000000000000000000001F
:201E400000000000000000000000000000000000007C7C7C7C7C7C7C7C7C7C7C7C7CFCFC3E
:201E6000FCFCFCFC000000000000000000000000000000000000000080E0F8FEFFFF3F0FD0
:201E800003000000000000000000000000000000000080E0F8FEFFFF3F0F0300000000009A
:201EA000000000000E1F1F1F0E0000000000181E1F1F1F0F03000000000000000000000004
:201EC000000000000000000000000000000000000000000000000000000000000000000002
:201EE000000000000000000000C0E0F8F8FCFC7C7C7CFCFCF8F8E0C000000000000000005E
:201F000000000000000080C7FFFFFFFFFCF8F8F8FCFFFFFFFFC7800000000000000000005B
:201F2000000000FEFFFFFFFFC381000000000081C3FFFFFFFFFE000000000E1F1F1F0E00AC
:201F4000000001070F0F1F1F1F1F1F1F1F1F1F0F0F0703000000000000000000000000001C
:201F60000000000000000000000000000000000000000000000000000000000000C0F0F8B9
:201F8000F8FCFCFC7C7C7C7CFCFCFCF8F8F0C000000000000000000000001F7FFFFFFFFF37
:201FA000F1E0C0C0C0C0E0F1FFFFFFFFFF3F00000000000000000000000001030307070729
:201FC00087E7FFFFFFFFFF3F0F030000000000000E1F1F1F0E00000000000000181E1F1F5A
:201FE0001F1F0F03000000000000000000911C01002311F000C008950FEF00931C01009123
:20200000B30100C00E945C1500E000931C01089508950E94A7160091B3010E94ED1600E83E
:202020000E94ED160FEA0E94ED160E94D11608950F931F932F9310E0202F1093AB012093E0
:20204000AC010E94A4100E94A7160091B3010E94ED1600E40E94ED1614E800E00E94ED162A
:202060001A95D9F70E94D1162F911F910F9108950F931F932F9310E0202F1093AB01209354
:20208000AC010E94A4100E94A7160091B3010E94ED1600E40E94ED1610E82F91022F0E94E0
:2020A000ED161A95D9F70E94D1161F910F9108950E94A7160091B3010E94ED160F3F09F494
:2020C000000000E00E94ED1618E1E0EEF0E205910E94ED161A951123D1F70E94D1160895D6
:2020E000D580A83FD300408D14A1C8DA1281FFD922DB30A4A60010B0AF000F931F932F9346
:202100000E942E1528E014E82A951F9310E01093AB012093AC010E94A4101F910E94A71661
:202120000091B3010E94ED1600E40E94ED1600E00E94ED161A95D9F70E94D116222319F74A
:202140002F911F910F9108951091AB012091AC0117FD20C00F931093A9012093AA010E9444
:20216000A7160091B3010E94ED1600E00E94ED16022F0770006B0E94ED16012F0F700E942A
:20218000ED16012F02950F7000610E94ED160E94D1160F910895FF92FFB6FF92FF920F9221
:2021A0001F92799C6001689C5001699CFF24B00CC11CDF1C789CFF24B00CC11CDF1C1F906D
:2021C0000F90FF90FF90FFBEFF900895FF92FFB6FF92102F0F70107F1295005D0A3308F0FC
:2021E000095F105D1A3308F0195FFF90FFBEFF9008950024112422243324F0E2660C771C08
:20220000881C991C001C111C221C331C0A141B042C043D0428F063940A181B082C083D0814
:20222000FA9561F708950F931F932F933F934F935F936F937F93CC24DD24EE2400E4F02E45
:2022400088249924AA24BB24840195010C291D292E293F29B694A794979487944017510799
:202260006207730740F08C289D28AE28BF28401B510B620B730BF694E794D794C794F6941E
:20228000E794D794C7940C2D0D290E290F29E1F67F916F915F914F913F912F911F910F9188
:2022A0000895FF92FFB6FF920F931F933F934F9330E1CC24BB24AA24FF27000F111FAA1CC9
:2022C000BB1CCC1C3A9549F400004F913F911F910F91FF90FFBEFF900895EDE042914D5F6F
:2022E00043FD40834081405D47FD4083EA30B1F7E4CF4F935F936F937F938F939F93FF9333
:20230000EF9397FD0E94451240E2EE24DD24CC24BB24AA24FF27660F771F881F991FAA1C86
:20232000BB1CCC1CDD1CEE1C4A9561F0EFE052915D5F53FD50835081505D57FD5083EA305B
:20234000B1F7E9CF5A2D5F7050635093BC015A2D52955F7050635093BD015B2D5F705063D9
:202360005093BE015B2D52955F7050635093BF015C2D5F7050635093C0015C2D52955F7039
:2023800050635093C1015D2D5F7050635093C2015D2D52955F7050635093C3015E2D5F703F
:2023A00050635093C4015E2D52955F7050635093C501EF91FF919F918F917F916F915F91C5
:2023C0004F9108950F931F932F93222710E30091C501011719F400E2239501C010E20093D2
:2023E000C5010091C401011719F400E2239501C010E20093C4010091C301011719F42395C5
:2024000000E201C010E20093C3010091C201011719F4239500E201C010E20093C201009123
:20242000C101011719F4239500E201C010E20093C1010091C001011719F4239500E201C041
:2024400010E20093C0010091BF01011719F4239500E201C010E20093BF010091BE010117B8
:2024600019F4239500E201C010E20093BE010091BD010093BD010091BC010093BC012093BF
:20248000C6012F911F910F91089560957095809590956F5F7F4F8F4F9F4F0895FF92FFB649
:2024A000FF92EF93FF936F927F928F929F92AF92BF92CF92DF925E9B05C0AA24BB24CC2454
:2024C000DD2407C0609078007090790043010E94CB10609024017090250180902601909000
:2024E00027016A0C7B1C8C1C9D1C60922401709225018092260190922701E0912801F09169
:2025000029013196E0932801F0932901DF90CF90BF90AF909F908F907F906F90FF91EF91B9
:20252000FF90FFBEFF901895FF92FFB6FF920F931F932F933F9300E000931D005E9A00913B
:2025400081000F93087F0093810020918400309185000027009385000093840010910C013E
:2025600000910B01109389000093880010910E0100910D0110938B0000938A0001E003BD3C
:202580000F91009381004F93FF93EF93DF93CF930F921F922F923F924F925F926F927F92F5
:2025A0008F929F92AF92BF92CF92DF92EF92FF92009169000370023031F1033029F00BE05B
:2025C000009369000C9404140DEE00937A00009169000C7F02600093690020930F013093D6
:2025E00010010091110110911201201B310B8894379527958894379527952093130130932A
:2026000014010C9404140DE600937A00009169000C7F03600093690020931101309312016E
:2026200000910F0110911001201B310B0894379527950894379527952093130130931401E9
:2026400060902401709025018090260190902701A0902801B0902901660C771C881C991C9F
:20266000660C771C881C991CCC24DD240E94F910660C771C881C991C660C771C881C991CA4
:20268000A301B40160922A0170922B0180922C0190922D010E94131180923601909237019E
:2026A0000027009324010093250100932601009327010093280100932901F1E0E6E5EF0108
:2026C0000027802E202E302E7A906A900FE0002359F00A951A900A90600C711C821C931CF1
:2026E000129202920C946713E0E1F0E05F01CC24DD240E94F91060922E0170922F01009117
:202700002301003009F41CC0013009F407C0023009F40DC0033009F40AC076C02D988824FA
:20272000992483940FEF00931E0135C06DC02D9A08E31AE448010FEF00931E012CC064C03A
:202740002D9A609036017090370180903001909031016818790880900B0190900C01860CE4
:20276000971C97FE0AC001E010E048010FEF0093210100931E010C94CB1308E31AE48016CB
:20278000910630F048010FEF00931E0100931F0100270093210180920B0190920C0100911C
:2027A0002301003009F030C0E0912E01F0912F010091300110913101E01BF10B18F4E0957E
:2027C000F095319603E010E0E017F10750F400270093B9015F98109122010FEF00932201C4
:2027E0000EC00091B9010A3020F403950093B9010BC05F9A1091220100E00093220101135B
:2028000003C008E80E946615FF90EF90DF90CF90BF90AF909F908F907F906F905F904F9054
:202820003F902F901F900F90CF91DF91EF91FF914F913F912F911F910F91FF90FFBEFF9041
:202840001895FF92FFB6FF920F931F932F933F934F930F921F92FF93EF93F198F0980F9311
:202860000091B10110E0E2E2FDE0E00FF11FE00FF11F05911591000F111F0093AF01109325
:20288000B001F8010F911591259135914591003249F0003031F0011718F0021721F018F0E8
:2028A00059C0F09AF19A003828F0003CC8F3103C08F400540F93011B349F009DE00DF11DDE
:2028C0000091AB010093AD010091AC010093AE010F910E3219F400243695301D4F930E944D
:2028E000A7160091B3010E94ED1600E40E94ED163F930091AB01003868F403950093AB012E
:2029000000E0F19B05910E94ED163A95F0993A9581F702C00591F9CF3F910E94D1164A9519
:2029200079F00091AD010093AB010091AE01039507700093AC010093AE010E94A410CFCFEB
:202940004F910091AC01041B039507700093AC010E94A410EF91FF911F900F904F913F9187
:202960002F911F910F91FF90FFBEFF900895FF92FFB6FF920F931F93AF93BF93CF93DF933C
:20298000EE0FFF1F00270093B2010091B201003808F011C003950093CA140591003809F496
:2029A0000AC0003828F0003C18F40E94E514EDCF0E942114EACFDF91CF91BF91AF911F91BE
:2029C0000F91FF90FFBEFF900895DF01E4EAFCE2C7ECD1E00F93005810E0E00FF11FE00F17
:2029E000F11FC00FD11FC00FD11F05911491F8010091AB0108831091AC0117700091B10135
:202A000002950073102B10641F7719830F910995FD010895CF93DF930F9300581127C7EC39
:202A2000D1E0C00FD11FC00FD11F09810F7B09830F91DF91CF910895CF93DF930F930058EC
:202A40001127C7ECD1E0C00FD11FC00FD11F0981006409830F91DF91CF910895CF93DF9301
:202A60000F931F93C7ECD1E000E4002339F00A9519811F7B1F7719832296F7CF1F910F919B
:202A8000DF91CF910895CF93DF93C7ECD1E00F9300581127C00FD11FC00FD11F0981007CDB
:202AA000003C0F9131F40F930E947A150E94E5140F91DF91CF9108950F9308E8003920F4BB
:202AC0000E9443150395FACF0F910895CF93DF930F931F93C7ECD1E000581127C00FD11F83
:202AE000C00FD11F1981106819831F910F91DF91CF9108950F931F93CF93DF93C7ECD1E020
:202B000000581127C00FD11FC00FD11F088119810093AB011093AC011F77106419831295A8
:202B200013701093B1010E94A410DF91CF911F910F9108950895FD01059103700093B101C1
:202B4000DF010895FD012F933F9315912591359105910F932093AB011093AC010E94A41007
:202B60000E94A7160091B3010E94ED1600E40E94ED160F91231739F030F40F930E94ED1615
:202B80000F912395F7CF0E94D1163F912F91DF010895FD010591003808F00FE70093AB0188
:202BA000059107700093AC01DF010E94A4100895FD010091AB011591010F003808F00FE7DE
:202BC0000093AB010091AC011591010F07700093AC01DF010E94A4100895CF93DF930F93C2
:202BE0001F93FD010591DF01003CC0F40A38B0F000581127C7ECD1E0C00FD11FC00FD11F6B
:202C00000091AB0108831091AC0117700091B10102950073102B1F7B1F7719831F910F9173
:202C2000DF91CF91089500912201003039F00CE30E9421140DE30E94211406C00AE30E9438
:202C400021140BE30E9421140895C0E3D1E003C0CEE2D1E000C068817981882799270E94B1
:202C600079110E94E2110091BF010E9421140091BE010E9421140091BD010E94211400912F
:202C8000B101013031F40091BC01065F0E94211408C00EE20E9421140091BC010E942114EE
:202CA00000C008959A159B15A215C915D815ED159A159A151316251628169A159A159A15C7
:202CC0009A159A159A159A159A159A159A159A159A159A159A159A159A159A159A159A1504
:202CE0009A159A159A159A159A159A159A159A159A159A159A159A159A159A159A159A15E4
:202D00009A159A159A159A159A159A159A159A159A159A159A159A159A159A159A159A15C3
:202D20009A159A152098289A08952898209A08952198299A08952998219A08952F930E9471
:202D400098160E9492160E94D1162F9108952F930E949B1624E02150F0F700000E949516D7
:202D600024E02150F0F700002F9108952F930E94981624E02150F0F700000E94921624E0DE
:202D80002150F0F700000E949B1624E02150F0F700000E94951624E02150F0F700002F91C3
:202DA00008952F930E94951624E02150F0F700000E949B1624E02150F0F700000E94921612
:202DC00024E02150F0F700000E94981629E02150F0F7000000002F9108951F932F9318E01D
:202DE000001F18F40E94981602C00E949B1624E02150F0F700000E94921624E02150F0F741
:202E000000000E9495161A9559F70E94981624E02150F0F700000E94921624E02150F0F714
:202E2000000013B111FB0E9495162F911F9108958100830000C2FBF5EEE4810283680088EA
:202E40008101830403858A898202008018808100830000D0E0E7E3EEED8102835C0089826C
:202E60000200801881018304038A80008100830000D1F2EEEF8102835C00898202008018F7
:202E800081018304038A80008100830A01C2FBEAEBFEF7E5EDEE830A03E0E2E0F0E8E9EDE6
:202EA000FBEC831005F1E8E3EDE0EBEEEC808100831C00CFD0C8C2C5D2830A02F0E5E3F3AB
:202EC000EBFFF2EEF0830A04E2E5F0F1E8FF20EEF281028318063231203035203230323226
:202EE0008000FF92FFB6FF920F93EF93FF9391D000EC9BD0ECEEFFE26F0100916401007F6D
:202F00000295E00F00E0F01F04910E941518F601009164010F70E00F00E0F01F04910E9457
:202F20001518F60100916301007F0295E00F00E0F01F04910E941518F601009163010F70B5
:202F4000E00F00E0F01F04910E94151869D0FF91EF910F91FF90FFBEFF900895FF92FFB688
:202F6000FF920F931F93EF93FF9353D000EC5DD000916301109164010E945111ECEEFFE262
:202F80006F0111270B2D02950F70002309F40FE0E00FF11F04910E941518F60111270B2D62
:202FA000002309F40FEF0F70E00FF11F04910E941518F60111270A2D02950F70E00FF11F96
:202FC000049100680E941518F60111270A2D0F70E00FF11F04910E94151822D0FF91EF91DB
:202FE0001F910F91FF90FFBEFF9008953F065B4F666D7D077F6F00005C7971000AD00AE8C3
:2030000014D00ED02FD005D000E40FD009D02AD0089528D0289A299A25D0299823D0089524
:20302000289A20D0299A1ED008951F9318E0289819D0069510F4299A01C0299813D0289AB4
:2030400011D01A95A1F7219828980CD013B1E89411FD6894289A06D028982998219A02D003
:203060001F9108950F930FE00150F1F70F9108950895FF92FFB6FF920F931F932F930091E1
:203080000001013009F407C0023009F418C0033009F42DC058C000910101033010F009F03F
:2030A00052C010912301133009F44DC0009323010E9429030091FF0000931E0144C0009190
:2030C00001011091020117FD3EC024EC021729E0120711F008F037C0009330011093310164
:2030E00009E80E9466150FEF00931E012CC0009101011091020117FD12C024EC021729E0D7
:20310000120711F008F00BC0009330011093310109E80E9466150FEF00931E0114C0009116
:203120000301033010F009F00EC010912301133009F409C0009323010E9429030091FF00AE
:2031400000931E0100C02F911F910F91FF90FFBEFF900895FF92FFB6FF920F931F93EF93C8
:20316000FF93E4E9F1E30091B900087F0695069506951127E00FF11FE00FF11F0591149109
:20318000F8010995FF91EF911F910F91FF90FFBEFF901895EA18611961196119611961194C
:2031A000611961196119611961196119EE18611961196119FB181219611961192819311902
:2031C000611946195D195D1961196119611961196119611905ED0093BC00089500E00093FD
:2031E000000100910300013011F405E801C005EC0093BC000895002710910001E1E0F1E01E
:20320000E10FF01F0091BB00008313951093000103E00A95101711F405E801C005EC0093B4
:20322000BC000895002710910001E1E0F1E0E10FF01F0091BB00008313951093000105ECCF
:203240000093BC0000916501026000936501089505EC0093BC00009165010260009365019E
:20326000089510E010930001E4E0F1E00027E10FF01F00810093BB0000910500013011F4C7
:2032800005E801C005EC0093BC000895002710910001139510930001E4E0F1E0E10FF01FFA
:2032A00000810093BB0005E00A95101711F405E801C005EC0093BC00089505EC0093BC00C4
:0432C00008950895D0
:00000001FF
