:020000020000FC
:060000000C94330018957A
:02000800189549
:02000C00189545
:02001000189541
:0200140018953D
:02001800189539
:02001C00189535
:02002000189531
:0200240018952D
:02002800189529
:06002C000C94951A1895D2
:0200340018951D
:060038000C94501A18950B
:02004000189511
:0200440018950D
:0A0048000C94122D0C94E929189570
:020054001895FD
:020058001895F9
:02005C001895F5
:020060001895F1
:100064001895E0E0F1E000270193F830E9F7EF3F5D
:10007400D9F7EE27FF27F083E395EE31E1F7EE277A
:100084000FEF0DBF08E00EBF05B70160102F0D7F05
:1000940015BF05BF0FEF04B90FED05B900E007B9AF
:1000A40000E308B90EE10AB90FEF0BB903E803BD89
:1000B40002E004BD03E005BD09EF07BD02E00093C3
:1000C4006E0000E00093800008E00093810018E1D6
:1000D4000AE6109389000093880002E000936F0001
:1000E40002E00093B00003E00093B1000CE700933A
:1000F400B30002E00093700007E60093C40000E040
:100104000093C50008ED0093C10006E00093C2000F
:100114000CE00093B8000E947A190E942F1B0E94E1
:100124009B1B0E94C51BE4EAF5E20E9473200E9417
:10013400AE1D0CEC0E94081E0EE40E94081E00E096
:100144000E94081E00E00E94081E0FE70E94081E7D
:100154000E94771E0E94230700910F01002359F487
:100164000E949C070E9433070E94D10700E10E946D
:10017400B8090A95E1F70E9426170E949717E1EA49
:10018400F1E005E0019301930193019300E003BDC5
:1001940078940091DF0103FFFCCF077F0093DF0118
:1001A4000E94B41E0E94771E0E949B1BEAEAF5E29D
:1001B4000E9473200AE0009381000093FB010091E8
:1001C400E10101600093E10100C00091DF0103FF40
:1001D40007C0077F0093DF010F930E94B0160F91B1
:1001E40002FF07C00B7F0093DF010F930E944C16A0
:1001F4000F9101FF07C00D7F0093DF010F930E9451
:1002040075150F910091E00101FF07C00F930E9443
:1002140056010F910D7F0093E00100FF09C00F9379
:100224000E9456010E9442010F910E7F0093E0014B
:1002340002FF0BC00F930E9463190E946D010E947C
:1002440042010F910B7F0093E00103FF0BC00F935A
:100254000E9463190E9484010E9442010F91077F4A
:100264000093E0010091E10103FF02C00E94622DAE
:100274000091E301002309F002C00E94182AA5CFCF
:100284000F9300E00093DE010F910895D404E80475
:100294002806F00303030303050505050B0B0809F2
:1002A40001FFC003E09304000F931F93EF93FF93A8
:1002B400E8E3F3E00091130211270770E00FF11F48
:1002C400E00FF11F05911491F8010995FF91EF9149
:1002D4001F910F9108950F931F93EF93FF93E8E4F9
:1002E400F3E00091130211270770E00FF11FE00FF4
:1002F400F11F05911491F8010995FF91EF911F9158
:100304000F9108950F931F93EF93FF93E8E5F3E0A4
:100314000091130211270770E00FF11FE00FF11F86
:1003240005911491F8010995FF91EF911F910F9197
:1003340008950895D005BA043304B4019B019B01C8
:100344009B019B01EF0404045A03AB039B019B0133
:100354009B019B01830477046F04FB029B019B01B7
:100364009B019B010F931F93EF93FF930091150241
:1003740010911402111F111F010F11271C3150F489
:10038400E2EAF3E0E00FF11FE00FF11F0591149191
:10039400F8010995FF91EF911F910F910895CE02F5
:1003A400400286026602CE02400286026602CE0245
:1003B400400286026602CE024002860266029B0169
:1003C4009B010C05A602D0059B019B019B012C02FD
:1003D4001302F1019B019B019B019B019B01EF9384
:1003E400FF93CF93DF93E8EFF3E0C081D1810091D5
:1003F400E00100FD03C001FD05C008C02196C083D3
:10040400D18304C02197C083D18300C002EB0E9432
:100414003F2104EB0E943F21DF91CF91FF91EF91A7
:1004240008951091F6030091E00100FD03C001FD61
:1004340003C003C0139501C01A9513701093F603FB
:1004440001EB0E943F2103EB0E943F2104EB0E9439
:100454003F2108950091F703003021F00F3F21F070
:1004640000E003C00FEF01C000E00093F70300EBCE
:100474000E943F2104EB0E943F2108950091140241
:1004840010E0ADE9B1E0A00FB11F0091E00100FD63
:1004940003C001FD05C011C00C9103950F7003C08A
:1004A4000C910A950F70013019F0083018F004C04F
:1004B40008E002C000E000C00C930091140210EAAE
:1004C400010F0E943F2108950091140210E0A9E950
:1004D400B1E0A00FB11F0091E00100FD03C001FDD8
:1004E40007C00BC00C91043140F403950C9305C074
:1004F4000C91002311F00A950C93009114021CE94D
:10050400010F0E943F2108950091140210E0A5E913
:10051400B1E0A00FB11F0091E00100FD03C001FD97
:1005240007C00BC00C91043140F403950C9305C033
:100534000C91002311F00A950C930091140218E910
:10054400010F0E943F2108950091E00100FD03C0C6
:1005540001FD06C00AC0009118020F5F037005C0B8
:10056400009118020150037000C00093180207E8BC
:100574000E943F21089500270093E9010093EA01B6
:100584000093EB010093EC010AE80E943F210E94D2
:1005940089060E94AB030895CF93DF93EF93FF93F3
:1005A4000F931F93009114021127EDE8F1E0E00F7F
:1005B400F11FE00FF11FC081D1810091E00100FD26
:1005C40003C001FD05C008C02196C083D18304C0C7
:1005D4002197C083D18300C00091140214E9010F54
:1005E4000E943F211F910F91FF91EF91DF91CF91D5
:1005F400089500911402043008F40CC039F40091F9
:100604001502003031F40E94BD0203C0053009F424
:1006140025C04DC000911502002309F048C0009187
:1006240014021127E5E8F1E0E00FF11FE00FF11FDC
:10063400A081B181C0E0D0E8AC17BD0709F40DC0BA
:10064400CDE8D1E0C00FD11FC00FD11F1296A883EF
:10065400B98314E9010F0E943F2129C000911502BA
:10066400002309F01EC0A091FE01B091FF01AB2B45
:10067400F1F400270093E9010093EA010093EB01F0
:100684000093EC010AE80E943F21A0E0B0E0A093AF
:100694000002B09301020E9489060FE80E943F21E4
:1006A40006C0033009F003C00E942E1800C008954C
:1006B40003E00093130200911402053009F02FC0E7
:1006C400009115020030D9F4A0E0B0E0A093FE013F
:1006D400B093FF010E94B706A0910002B0910102FD
:1006E400A0930202B0930302A0E0B0E0A093000242
:1006F400B09301020E9489060E94E50410C0009193
:100704001502013009F40BC000911502023009F4FE
:1007140006C000911502033009F401C000000091E5
:100724001502003019F4E7EFF8E210C0013019F4B3
:10073400EDE0F9E20BC0023019F4E3E2F9E206C09D
:10074400033019F4E9E3F9E201C000C00E94732008
:10075400089500911402043008F44EC0043009F4E2
:1007640004C0053009F429C047C0009115020330C4
:1007740009F042C000911802003029F40E94E504F7
:100784000E9479043EC0013029F40E94DE040E94D4
:10079400790437C0023011F42FC033C0033061F440
:1007A40001E00093130205E00093140200E00093BB
:1007B40015020E948C0425C024C00091150200304B
:1007C40009F40AC0013009F413C0023009F411C05D
:1007D400033009F40FC010C0A0E0B0E0A093FE0104
:1007E400B093FF010E94B70600E00093DD0104C04E
:1007F40003C002C001C000C002E0009313020E94C3
:100804001A04089502E000931302002700931502CE
:1008140000911402043009F00BC00E94DE0403E0CE
:100824000093150200E00093180207E80E943F219C
:1008340000911502003019F4EFE9F8E20FC001301D
:1008440019F4E5EBF8E20AC0023019F4EBECF8E233
:1008540005C0033019F4E1EEF8E200C00E947320F1
:1008640008952F931F930F93209114021091150252
:100874000091E00100FD03C001FD13C025C0133049
:1008840009F427C005E0201700E0100711F412E076
:1008940006C004E0201700E0100709F411E01395E6
:1008A40013C0112319F40E946F0413C005E020172C
:1008B40003E0100711F411E006C004E0201702E081
:1008C400100709F411E01A951370109315020E9491
:1008D4001A040F911F912F91089501E000931302C0
:1008E400E9E8F8E20E94732008950E94721800E07B
:1008F400009313020E949B1BEAEAF5E20E94732014
:10090400089501E00093130214E00091E10101FD58
:100914001093140200911402003019F4E2E7F6E295
:100924001EC0013019F4EFEBF6E219C0023019F4DD
:10093400ECE0F7E214C0033019F4E9E5F7E20FC084
:10094400043019F4E6EAF7E20AC0053019F4EBEED4
:10095400F7E205C0063019F4E8E3F8E200C00E94AB
:100964009B1B0E947320E9E8F8E20E94732008951B
:100974000F931F93109114020091E00100FD03C036
:1009840001FD0CC016C0163008F01FEF139515308A
:10099400E9F3109314020E948C040BC0103009F484
:1009A40017E01A951530E9F3109314020E948C0491
:1009B40000C01F910F9108950091E1010E7F0D7FFA
:1009C4000093E10108950091E10101600D7F00931E
:1009D400E10100E00093DD0108950F931F9300915E
:1009E400DD01002321F000270093DD0110C00091F8
:1009F400E10102FD0CC0102F0770013021F0012F1E
:100A04000160097F02C0012F087F0093E1011F915B
:100A14000F9108950091E00100FD03C001FD04C0A1
:100A240005C00E941E0502C00E9472050E9489062C
:100A34000EE80E943F2108950F920FB60F920F9374
:100A44001F932F933F934F935F936F937F938F9352
:100A54009F93609100027091010280E090E050E069
:100A640040E033E128E80E94A31D38F068E873E110
:100A740050E040E030E020E01CC050E040E033E0D3
:100A840028EE0E94A31D28F050E040E030E024E668
:100A940010C050E040E030E024E60E94A31D28F09E
:100AA40050E040E030E022E304C050E040E030E0B9
:100AB4002AE00E94871D60930002709301020FE8F0
:100AC4000E943F219F918F917F916F915F914F91F0
:100AD4003F912F911F910F910F900FBE0F9008958A
:100AE4000F920FB60F920F931F932F933F934F9331
:100AF4005F936F937F938F939F93609100027091A4
:100B0400010280E090E050E040E030E02AE00E9402
:100B1400A31D10F009F007C060E070E050E040E071
:100B240030E020E020C050E040E030E024E60E94C5
:100B3400A31D10F009F005C050E040E030E02AE0C9
:100B440012C050E040E033E028EE0E94A31D10F0F4
:100B540009F005C050E040E030E022E304C050E07A
:100B640040E030E024E60E948C1D60930002709304
:100B7400010260930702709308020FE80E943F216C
:100B84009F918F917F916F915F914F913F912F91A1
:100B94001F910F910F900FBE0F9008950091E001E7
:100BA40000FD03C001FD04C005C00E94DD0502C0B4
:100BB4000E94330608950F920FB60F920F931F935E
:100BC4002F933F934F935F936F937F938F939F9351
:100BD4006091FE017091FF0180E090E050E040E000
:100BE4003DE02CEA0E94A31D38F060E17EE050E075
:100BF40040E030E020E01CC050E040E033E028EE6C
:100C04000E94A31D28F050E040E030E024E610C02C
:100C140050E040E030E028EC0E94A31D28F050E0B2
:100C240040E030E022E304C050E040E030E02AE05D
:100C34000E94871D6093FE017093FF010E94B70616
:100C440001E00E94562A9F918F917F916F915F914D
:100C54004F913F912F911F910F910F900FBE0F90C5
:100C640008950F931F932F933F934F935F936F9325
:100C74007F938F939F936091FE017091FF0180E0B9
:100C840090E050E040E030E02AE00E94A31D10F024
:100C940009F007C060E070E050E040E030E020E0A0
:100CA40020C050E040E030E028EC0E94A31D10F08A
:100CB40009F005C050E040E030E02AE012C050E006
:100CC40040E033E028EE0E94A31D10F009F005C0B7
:100CD40050E040E030E022E304C050E040E030E087
:100CE40024E60E948C1D6093FE017093FF010E9414
:100CF400B70601E00E94562A9F918F917F916F91D0
:100D04005F914F913F912F911F910F9108950F93F0
:100D14001F932F933F934F935F936F937F938F937F
:100D24009F936091F5017091F6018091F701909184
:100D3400F80120910002309101020E94F01C60939E
:100D4400ED017093EE018093EF019093F0010FE8B1
:100D54000E943F219F918F917F916F915F914F915D
:100D64003F912F911F910F9108950F931F932F93EC
:100D74003F934F935F936F937F938F939F9396EDDE
:100D840083E974EA60E02091F5013091F601409125
:100D9400F7015091F8010E94081D2091FE01309145
:100DA400FF01442755272417340729F490E080E0F5
:100DB4007FEF6FEF1CC00E94081D00248015900572
:100DC40011F4AAE014C050E040E030E028E00E94B2
:100DD400081D00248015900511F4ABE008C050E014
:100DE40040E030E028E00E94081DACE000C050E084
:100DF40040E030E021E00E948C1D08E00093810077
:100E04008091F9019091FA016093F9017093FA01CC
:100E14006817790721F07093890060938800A09384
:100E2400FB01A09381000CE80E943F219F918F91C8
:100E34007F916F915F914F913F912F911F910F91EE
:100E440008950E9473190EEE0E9480190091040106
:100E5400003200E009F40FEF00930F010E947A19A9
:100E640008950F930FB70F931F93FF93EF930E946F
:100E740073190EEE0E94801904EF0E9480190EE28D
:100E84000E9480190E947A19FEE4E0E23197F1F79A
:100E94000E9473190EEE0E94801906EF0E948019B9
:100EA4000E9473190EEE01600E9480190E94891934
:100EB400009326010E949019009327010E947A1939
:100EC4000E9473190EEE0E94801904EF0E9480198B
:100ED40004EF0E9480190E947A19F5E7E0E3319744
:100EE400319631973196319731963197C1F70E94F7
:100EF40073190EEE0E94801906EF0E9480190E9459
:100F040073190EEE01600E9480190E9489190093E2
:100F140028010E948919009329010E9490190093C5
:100F24002A010E947A19EF91FF911F910F910FBF2F
:100F34000F9108950F930FB70F931F93FF93EF93A0
:100F4400F1E0E0E115E10E9473190EEE0E948019B0
:100F54000AEA0E9480190E9473190FEE0E948019F8
:100F64000E94891901931A95D9F70E949019019347
:100F74000E947A19EF91FF911F910F910FBF0F916A
:100F84000895F03039F07595679557954795FA951A
:100F94000C94C3070F1F1F1F2F1F3F1F08950F928D
:100FA4000FB60F921F922F923F924F925F926F92C1
:100FB4007F928F929F92AF92BF92CF92DF92EF92E5
:100FC400FF920F931F932F933F934F935F936F93CE
:100FD4007F938F939F93AF93BF93CF93DF93EF93BD
:100FE400FF9360912701709126018827992720910A
:100FF4001B0130911A0137FD03C04427552702C055
:101004004FEF5FEF00000E948C1D20911901309179
:10101400180137FD03C04427552702C04FEF5FEF87
:1010240000000E94471D1FE00E94691D2B013C0126
:10103400209125013091240137FD03C04427552711
:1010440002C04FEF5FEF00000E94871D9B01AC01BF
:10105400609123017091220177FD03C088279927AD
:1010640002C08FEF9FEF00001BE00E94731D0E94DF
:10107400381D9201A3010E94871D2B013C0150E001
:1010840040E030E028E00E94871D50E040E030E07E
:1010940020E10E94381D0000B201C30150E040E08D
:1010A4003FE020EA0E948C1D2B013C019B01AC0116
:1010B4000E94571D1CE00E94691D20911F01309160
:1010C4001E0137FD03C04427552702C04FEF5FEFD1
:1010D40000000E94571D1BE00E94691D4B015C012A
:1010E400609113017091120177FD03C0882799273D
:1010F40002C08FEF9FEF00009201A3010E94571DD1
:101104001BE00E94691D9401A5010E94871D4B01EB
:101114005C01609111017091100177FD03C0882773
:10112400992702C08FEF9FEF000050E040E030E0CD
:1011340024E00E94571D9401A5010E94871D10E020
:101144000E94731D50E040E030E022E00E94871DC1
:1011540050E040E030E024E00E94381D4B015C0187
:10116400609115017091140177FD03C088279927B8
:1011740002C08FEF9FEF00009201A3010E94571D50
:101184001DE00E94691D6B017C01B201C3019B013A
:10119400AC010E94571D1CE00E94691D20911D0195
:1011A40030911C0137FD03C04427552702C04FEF7F
:1011B4005FEF00000E94571D10E10E94691D960117
:1011C400A7010E94871D50E040E030E022E00E9429
:1011D400871D12E00E94691D50E040E030E820E0E5
:1011E4000E94871D209117013091160137FD03C01D
:1011F4004427552702C04FEF5FEF00000E94471DB0
:101204001FE00E94691D2B013C016091290170912E
:101214002801882799279401A5010E948C1D50E07C
:1012240040E033EC20E510E00E947D1D0E94471D44
:1012340097FD08C011E00E94731D9201A3010E9452
:10124400081D07C09201A3010E94081D11E00E941D
:10125400731D2B013C0150E040E031E020E00E948E
:10126400381D9B01AC010E94571D50E040E03BE05B
:101274002EED8F930E94471D1F91129F800D911D8B
:10128400139F900D10E10E94691D4B015C01B20196
:10129400C30150E040E03CE12DEB8F930E94471DD9
:1012A4001F91129F800D911D139F900D10E10E94BC
:1012B400691D9B01AC010E94871DB401C5010E94F8
:1012C4008C1D50E040E03EE02FEC0E94871D50E072
:1012D40040E030E020E10E94381D9201A3010E9409
:1012E400871D60933701709338018093390190937F
:1012F4003A018B019C01000F111F221F331F600F45
:10130400711F821F931F959587957795679595957E
:1013140087957795679560932F017093300180933B
:10132400310190933201FF91EF91DF91CF91BF9101
:10133400AF919F918F917F916F915F914F913F9169
:101344002F911F910F91FF90EF90DF90CF90BF905E
:10135400AF909F908F907F906F905F904F903F9051
:101364002F901F900F900FBE0F9008950F920FB6FD
:101374000F92AF93BF93CF93DF93EF93FF930F93AA
:101384001F932F933F934F935F936F937F938F9309
:101394009F9300E1E7E7F1E0C7E7D1E09A918A91F2
:1013A4007A916A910A95002371F00A955A914A91AB
:1013B4003A912A915293429332932293620F731F6C
:1013C400841F951FF0CF20E130E040E050E00E9400
:1013D400081DEBE7F1E061937193819391938B0185
:1013E4009C01000F111F221F331F600F711F821FEA
:1013F400931F959587957795679595958795779597
:101404006795209133013091340140913501509119
:1014140036016093330170933401809335019093C6
:101424003601261737074807590719F009E80E94BB
:101434003F219F918F917F916F915F914F913F9148
:101444002F911F910F91FF91EF91DF91CF91BF9158
:10145400AF910F900FBE0F9008953313310A00FF20
:101464000C0200000000000000000000000000006A
:101474000000000000000000000000F00C02323107
:10148400013132020CF000030C101122222211103F
:101494000C0300F0FCFECECFFFCFCEFEFCF0000329
:1014A4000F1F1E3D3D3D1E1F0F030000F0F8F8F016
:1014B400E0F0F8F8F0000000000103070F07030153
:1014C4000000000080C0E0F0F8F0E0C08000000000
:1014D400000103070F07030100000080C0C0B8FC2F
:1014E400FCFCB8C0C08000030707131B1F1B1307B5
:1014F4000703000080C0E0F0FCF0E0C080000000C2
:101504000307171B1F1B1707030000000080C0E020
:10151400E0C0800000000000000103070703010091
:101524000000FFFFFFFF7F3F3F7FFFFFFFFFFFFF45
:10153400FFFFFEFCFCFEFFFFFFFF00F8F818181881
:101544001818F8F80000001F1F18181818181F1F83
:101554000000FFFFFF3FDFEFEFDF3FFFFFFFFFFF75
:10156400FFFCFBF7F7FBFCFFFFFF00C0301008880F
:10157400483030C8000000090606090808040601BE
:1015840000000000384482828244380000000000D9
:101594000000000000000000000000000000000047
:1015A400FF0E7C3800000000000C1E1E0F0000001F
:1015B400000000F0F80C06060606060CF8F00033EE
:1015C400333F3E0000003E3F33010080C8F0301836
:1015D4001E1830F0C88000000907060C3C0C0607F2
:1015E4000900000000FCF8F0E0C0800000000000EA
:1015F400001F0F0703010000000000000080C0E08E
:10160400F0F8FC000000000000000103070F1F00B9
:10161400000000000010181CFE1C18100000000040
:1016240000040C1C3F1C0C0400000000303030FE91
:10163400FE30303000000000181818191918181856
:10164400000000387CC682FEFE02FEFE020000009E
:101654000000003F3F003F3F00000000DCFE22226C
:101664002222E6C4000000000819111111111F0EF6
:101674000000000000000000000000000000000066
:101684000038383838383838380000006251514949
:101694004600000000000000000000000000000000
:1016A400000000000010181CFE1C181000000000B0
:1016B400000000003F0000000000000000000000E7
:1016C400FE0000000000000000040C1C3F1C0C0481
:1016D400000000008080808080F0E0C08000000076
:1016E40000000000000703010000000080C0E0F0DB
:1016F400808080808000000000010307000000005B
:101704000000000000000000000000000000003F96
:10171400202020202020202020000080C0E0F08015
:101724008080F0E0C0800000010307000000070390
:1017340001000000000080C0E0C080000000000440
:1017440006070707070707070604002060E0E0E034
:10175400E0E0E0E060200000000001030703010076
:101764000000000000000000000000000000000075
:1017740000000000000000000000000000007CFFEA
:10178400FF7C000000000000000000333300000074
:1017940000000000003C3C00003C3C000000000055
:1017A4000000000000000000000000001090F07E27
:1017B4001E90F07E1E1000021E1F03021E1F030255
:1017C4000000000078FCCCFFFFCCCC8800000000B7
:1017D400040C0C3F3F0C0F070000000038383800A1
:1017E40080C0E070381C0030381C0E070301383804
:1017F4003800000000B8FCC6E23E1C0000000000F7
:101804001F3F3121371E1C36220000000000273FF5
:101814001F000000000000000000000000000000A5
:101824000000000000F0FCFE0701010000000000C1
:1018340000030F1F382020000000000000010107F2
:10184400FEFCF00000000000002020381F0F030001
:101854000000000098B8E0F8F8E0B8980000000034
:101864000C0E030F0F030E0C00000000808080F0AC
:10187400F0808080000000000101010F0F010101D0
:101884000000000000000000000000000000000054
:101894000000B8F87800000000000000808080801C
:1018A400808080800000000001010101010101012C
:1018B400000000000000000000003838380000007C
:1018C40000003838380000000000000000000080EC
:1018D400C0E070381C0E00181C0E07030100000045
:1018E400000000F8FE060383C363331EFEF80007FE
:1018F4001F1E3331303030181F070000000C0C0E4F
:10190400FFFF000000000000003030303F3F303067
:101914003000001C1E07030383C3E3773E1C003022
:10192400383C3E37333130303030000C0E0703037F
:10193400C3C3C3E77E3C000C1C3830303030303930
:101944001F0E00C0E070381C0E07FFFF00000003EC
:101954000303030303033F3F0303003F7F63636306
:10196400636363E3C383000C1C3830303030303899
:101974001F0F00C0F0F8DCCEC7C3C3C38000000F44
:101984001F393030303030391F0F00030303030395
:1019940003C3F33F0F0300000000303C0F030000BB
:1019A40000000000BCFEE7C3C3C3E7FEBC00000F99
:1019B4001F393030303030391F0F003C7EE7C3C34D
:1019C400C3C3C3E7FEFC000000303030381C0E07F0
:1019D40003000000000070707000000000000000B0
:1019E40000001C1C1C0000000000000000007070BF
:1019F400700000000000000000009CFC7C0000005F
:101A040000000000C0E0F0381C0E070300000000D6
:101A1400000103070E1C38300000000060606060A5
:101A240060606060600000000606060606060606A2
:101A34000600000003070E1C38F0E0C000000000A0
:101A440030381C0E070301000000001C1E0703832E
:101A5400C3E3773E1C00000000000037370000009D
:101A6400000000F8FE07F3FB1BFBFB07FEF8000F6A
:101A74001F183337363737360301000000E0FC1FE8
:101A84001FFCE000000000383F0706060606073F7B
:101A9400380000FFFFC3C3C3C3E7FEBC0000003F20
:101AA4003F3030303030391F0F0000F0FC0E070398
:101AB4000303070E0C0000030F1C38303030381CB1
:101AC4000C0000FFFF03030303070EFCF000003FBC
:101AD4003F30303030381C0F030000FFFFC3C3C356
:101AE400C3C3C3030300003F3F30303030303030D5
:101AF400300000FFFFC3C3C3C3C3C3030300003FDD
:101B04003F00000000000000000000F0FC0E07038E
:101B1400C3C3C3C7C60000030F1C38303030303F86
:101B24003F0000FFFFC0C0C0C0C0C0FFFF00003FB7
:101B34003F0000000000003F3F000000000303FFDF
:101B4400FF030300000000000030303F3F3030004E
:101B54000000000000000000000000FFFF00000E75
:101B64001E3830303030381F070000FFFFC0E0F06F
:101B7400381C0E070300003F3F000103070E1C380A
:101B8400300000FFFF000000000000000000003FE4
:101B94003F30303030303030300000FFFF1E78E00E
:101BA400E0781EFFFF00003F3F0000010100003FFE
:101BB4003F0000FFFF0E38F0C00000FFFF00003FB1
:101BC4003F00000003071C3F3F0000F0FC0E07032A
:101BD40003070EFCF00000030F1C383030381C0FD4
:101BE400030000FFFF8383838383C7FE7C00003FE1
:101BF4003F01010101010100000000F0FC0E070398
:101C040003070EFCF00000030F1C3830363E1C3F67
:101C1400330000FFFF8383838383C7FE7C00003F80
:101C24003F010103070F1D383000003C7EE7C3C3AA
:101C3400C3C3C78E0C00000C1C3830303030391F41
:101C44000F000000030303FFFF0303030000000071
:101C54000000003F3F000000000000FFFF00000004
:101C6400000000FFFF0000071F3830303030381FFD
:101C7400070000073FF8C00000C0F83F070000005D
:101C840000010F3E3E0F0100000000FFFF00008036
:101C9400800000FFFF00003F3F1C060303061C3FBB
:101CA4003F0000030F1C30E0E0301C0F0300003045
:101CB4003C0E030101030E3C300000030F3CF0C056
:101CC400C0F03C0F030000000000003F3F00000094
:101CD40000000003030303C3E3331F0F03000030BA
:101CE4003C3E3331303030303000000000FFFF0321
:101CF4000303030000000000003F3F303030300099
:101D04000000000E1C3870E0C080000000000000DD
:101D1400000000000103070E1C1800000003030369
:101D240003FFFF000000000000303030303F3F0070
:101D34000000006070381C0E070E1C387060000034
:101D4400000000000000000000000000000000008F
:101D540000000000000000C0C0C0C0C0C0C0C0C0BF
:101D6400C0C00000003E3F39000000000000000039
:101D740000000000000000000000000040606060FF
:101D8400606060E0C000001C3E3333333333333FC4
:101D94003F0000FFFFC060606060E0C08000003F63
:101DA4003F3030303030381F0F000080C0E06060BA
:101DB400606060C08000000F1F3830303030301851
:101DC40008000080C0E0606060E0C0FFFF00000F1A
:101DD4001F3830303030303F3F000080C0E060605A
:101DE400606060C08000000F1F3B33333333331314
:101DF400010000C0C0FCFEC7C3C303000000000014
:101E0400003F3F000000000000000080C0E0606070
:101E1400606060E0E0000003C7CECCCCCCCCE67FB1
:101E24003F0000FFFFC0606060E0C0800000003F32
:101E34003F00000000003F3F00000000000060EC95
:101E4400EC000000000000000030303F3F30300064
:101E5400000000000000000060ECEC000000000046
:101E64000060E0C0C0FF7F0000000000FFFF0080B2
:101E7400C0E06000000000003F3F03070F1C383043
:101E840000000000000003FFFF000000000000004D
:101E94000030303F3F303000000000E0C0E0E0C0E0
:101EA400C0E0E0C08000003F3F00003F3F00003F33
:101EB4003F000000E0E060606060E0C0800000007F
:101EC4003F3F00000000003F3F000080C0E0606032
:101ED4006060E0C08000000F1F3830303030381FA1
:101EE4000F0000E0E06060606060E0C0800000FF20
:101EF400FF0C181818181C0F07000080C0E0606061
:101F0400606060E0E00000070F1C181818180CFF50
:101F1400FF000000E0E0C060606060E0C00000001E
:101F24003F3F000000000000000000C0E06060606F
:101F3400606040000000001133333333333F1E0030
:101F44000000006060FEFE606060000000000000B1
:101F5400001F3F3030303000000000E0E00000009F
:101F6400000000E0E000000F1F3830303030183F30
:101F74003F000060E0800000000080E0600000009E
:101F840001071E38381E0701000000E0E00000E0F1
:101F9400E00000E0E00000071F381C0F0F1C381F92
:101FA40007000060E0C0800080C0E06000000030F6
:101FB400381D0F070F1D38300000000060E080005E
:101FC4000080E060000000000081E77E1E07010041
:101FD4000000006060606060E0E0602000000030AD
:101FE400383C3633313030300000000080C0FC7E95
:101FF400070303030000000000011F3F70606060DE
:1020040000000000000000FFFF00000000000000CE
:102014000000003F3F00000000000000030303072E
:102024007EFCC08000000000606060703F1F010003
:1020340000000010180C040C1810180C0400000008
:1020440000000000000000000000000080C06030BC
:102054003060C0800000000F0F0C0C0C0C0C0C0F37
:102064000F0000F0FC0E0703030303FFFF00003F13
:102074003F0303030303033F3F0000FFFFC3C3C346
:10208400C3C3C3830300003F3F3030303030391FB7
:102094000F0000FFFFC3C3C3C3E7FEBC0000003F43
:1020A4003F3030303030391F0F0000FFFF0303038F
:1020B400030303030300003F3F000000000000008F
:1020C400000000F0FC0E0703030303FFFF00F0FF12
:1020D4003F3030303030303FFFF000FFFFC3C3C328
:1020E400C3C3C3030300003F3F30303030303030CF
:1020F40030000F3EF8E0C0FFFFC0E0F81E073C1FB1
:102104000701003F3F0001071F3C000C0E07C3C33B
:10211400C3C3C3E77E3C000C1C3830303030303948
:102124001F0E00FFFF0000C0F0380EFFFF00003F4D
:102134003F1C07030000003F3F0000FFFF0000C6F4
:10214400F3380EFFFF00003F3F1C07030000003F71
:102154003F0000FFFFC0E0F0381C0E070300003F03
:102164003F000103070E1C38300000F0FC0E07038B
:10217400030303FFFF00003F3F0000000000003F97
:102184003F0000FFFF1E78E0E0781EFFFF00003FE5
:102194003F0000010100003F3F0000FFFFC0C0C03E
:1021A400C0C0C0FFFF00003F3F0000000000003F30
:1021B4003F0000F0FC0E070303070EFCF0000003D1
:1021C4000F1C383030381C0F030000FFFF030303DB
:1021D400030303FFFF00003F3F0000000000003F37
:1021E4003F0000FFFF8383838383C7FE7C00003F9F
:1021F4003F01010101010100000000F0FC0E070392
:102204000303070E0C0000030F1C38303030381C59
:102214000C000000030303FFFF030303000000009E
:102224000000003F3F0000000000007FFFC0C0C06E
:10223400C0C0C0FFFF000018383030303030381FC5
:10224400070000F8FC0C0CFFFF0C0CFCF80000036A
:102254000706063F3F060607030000030F1C30E095
:10226400E0301C0F030000303C0E030101030E3C60
:10227400300000FFFF0000000000FFFF0000003FEF
:102284003F30303030303FFFF000007FFFC0C0C02F
:10229400C0C0C0FFFF000000000000000000003FBD
:1022A4003F0000FFFF0000FFFF0000FFFF00003FB2
:1022B4003F30303F3F30303F3F0000FFFF0000FF22
:1022C400FF0000FFFF00003F3F30303F3F30303F12
:1022D400FFF00F0F03FFFF606060E0C080000000AC
:1022E400003F3F303030381F0F0000FFFF6060E0D8
:1022F400C08000FFFF00003F3F3030381F0F003F19
:102304003F0000FFFF6060606060E0C08000003F4D
:102314003F3030303030381F0F00000C0E07C3C37D
:10232400C3C7CEFCF000000C1C38303030381C0F12
:102334000300FFFFC0F0FC0E0703070EFCF03F3F55
:1023440000030F1C3830381C0F03007CFEC7838346
:10235400838383FFFF000030381D0F070301013F13
:102364003F00000040606060606060E0C000001CEE
:102374003E3333333333333F3F0000F0F898D8D83B
:10238400D8D8D88C0000001F3F3130303030391F8E
:102394000F000000E0E060606060E0C0000000004A
:1023A4003F3F323232323F1D00000000E0E0606007
:1023B40060606060000000003F3F0000000000001B
:1023C4000000000080C060606060E0E0000000F099
:1023D400FF3F303030303FFFF0000080C0E06060ED
:1023E400606060C08000000F1F3B3333333333130E
:1023F400010060E0C08000E0E00080C0E0603038B0
:102404001F07033F3F03071F3830000080C0606090
:102414006060C080000000000818303232321F0DA6
:1024240000000000E0E00000000080E0E0000000A8
:102434003F3F180C0603013F3F000000E0E00000AE
:10244400180C80E0E00000003F3F180C0603013F39
:102454003F000000E0E00080C0E0600000000000F9
:102464003F3F03070F1C38300000000080C060604D
:102474006060E0E0000000003F3F000000003F3FDC
:10248400000000E0E0E0C00000C0E0E0E000003F49
:102494003F0001030301003F3F000000E0E00000B3
:1024A400000000E0E00000003F3F06060606063F8D
:1024B4003F000080C0E060606060E0C08000000F0A
:1024C4001F3830303030381F0F000000E0E060600B
:1024D400606060E0E00000003F3F00000000003F5B
:1024E4003F0000E0E06060606060E0C0800000FFEA
:1024F400FF0C181818181C0F07000080C0E060605B
:10250400606060C08000000F1F38303030303018F9
:1025140008000000606060E0E060606000000000AF
:102524000000003F3F0000000000000060E0800069
:102534000080E060000000000081E77E1E070100CB
:1025440000000080C0C0C0E0E0C0C0C08000001F28
:102554003F3030FFFF30303F1F000060E0C080009C
:1025640080C0E06000000030381D0F070F1D3830B8
:1025740000000000E0E000000000E0E000000000D7
:102584003F3F303030303FFFF0000000E0E000001B
:102594000000E0E0000000000307060606063F3FD7
:1025A400000000E0E00000E0E00000E0E000003FA8
:1025B4003F30303F3F30303F3F0000E0E00000E07C
:1025C400E00000E0E000003F3F30303F3F30303F6C
:1025D400FFF000E0E060E0E0000000000000000028
:1025E40000003F3F3333333F1E0000E0E0000000B3
:1025F400000000E0E000003F3F3333333F1E003F64
:102604003F000000E0E000000000000000000000C7
:102614003F3F333333333F1E00000080C0606060AF
:102624006060C0800000000818303033333B1F0F57
:10263400000000E0E00080C0E060E0C08000003FF7
:102644003F030F1F3830381F0F000000C0E06060E8
:102654006060E0E000000000313B1E0E06023F3FD8
:10266400000000FF0601000000000000003C4242A0
:102674003C000000047E0000004462524C00002430
:10268400424A34000030367F363000185C7E5C18D5
:10269400081830180C0600183C3C1800003E3E0098
:1026A4003E3EFFC3DBDBC3FF002C122A241A0006C4
:1026B400090906000060703F0204005C6202625C6B
:1026C400002A1C361C2A00007F3E1C0800081C3E01
:1026D4007F000014367F36140044445F44440006EF
:1026E400097F017F00224D5559220060606060001F
:1026F4000048645448000004067F06040010307F3C
:1027040030100008083E1C0800081C3E0808007829
:102714004040404000081C081C0800303C3F3C304E
:1027240000030F3F0F030000000000000000065FDD
:10273400060000070300070300247E247E240024EF
:102744002B6A120000631308646300364956205054
:1027540000000700000000003E4100000000413E70
:10276400000000083E1C3E080008083E080800005F
:10277400E06000000008080808080060600000002D
:10278400002010080402003E4149413E0000427FFF
:102794004000006251494946002241494936001827
:1027A40014127F10002F49494931003C4A494930ED
:1027B40000017109050300364949493600064949B3
:1027C400291E00006C6C00000000EC6C0000000886
:1027D400142241000024242424240000412214084B
:1027E400000201590906003E415D551E007E11118B
:1027F400117E007F49494936003E41414122007F14
:102804004141413E007F49494941007F090909018D
:10281400003E4149497A007F0808087F0000417F53
:10282400410000304040403F007F08142241007FB7
:1028340040404040007F0204027F007F0204087F82
:10284400003E4141413E007F09090906003E4151D5
:10285400215E007F090919660026494949320001B1
:10286400017F0101003F4040403F00071860180706
:10287400003F403C403F00631408146300070870A5
:10288400080700714945430000007F4141000002F0
:1028940004081020000041417F00000402010204EA
:1028A400808080808080000007060000002054544F
:1028B4005478007F44444438003844444428003861
:1028C4004444447F00385454540800087E090900E5
:1028D4000018A4A4A47C007F040478000000007DF8
:1028E4004000004080847D00007F102844000000E8
:1028F400007F4000007C04180478007C0404780005
:1029040000384444443800FC4444443800384444C7
:1029140044FC00447844040800085454542000043F
:102924003E444400003C40207C00001C2040201C0D
:10293400003C6030603C006C10106C00009CA06097
:102944003C00006454544C0000083E414100000027
:1029540077000000000041413E080002010201002E
:10296400003C2623263C007E1111117E007F49493C
:102974004931007F49494936007F01010101C07E88
:1029840041417FC0007F494949410077087F08776A
:10299400224949493600007F2010087F007E21111A
:1029A400097E007F0814224100407E01017F007FE0
:1029B4000204027F007F0808087F003E4141413E37
:1029C400007F0101017F007F09090906003E4141A2
:1029D40041220001017F010100274848483F000EC1
:1029E400117F110E006314081463007F40407FC000
:1029F40000070808087F007F407F407F007F407FFA
:102A040040FF03017F484830007F4848307F007F03
:102A14004848483000224149493E007F083E413E33
:102A240000661909097F002054545478003C4A4A2E
:102A34004A31007C54545428007C04040404C078B3
:102A440044447CC0003854545408006C107C106C0E
:102A5400002844545428007C2010087C007C201258
:102A64000A7C007C10284400403804047C00007C6C
:102A74000810087C007C1010107C00384444443852
:102A8400007C0404047C00FC44444438003844447E
:102A940044280004047C0404009CA0603C0000184A
:102AA400247C2418006C10106C00007C40407CC016
:102AB400000C1010107C007C407C407C007C407C2E
:102AC40040FC0C047C505020007C5050207C007C46
:102AD40050505020002844545438007C1038443856
:102AE40000483414147C0E94DB1508957B157B1573
:102AF400AB15857D767069635E59544F4A46423EF4
:102B04003B37373B424A545E69768500000000003B
:102B140000000000000000000000000000000000B1
:102B240000000000000000000000000000000000A1
:102B34000000000000000000000000000000000091
:102B44000000000000000000000000000000000081
:102B540000004646464646464646464600000000B5
:102B640000000000000046464646464646464646A5
:102B74000000000000000000000000000000000051
:102B84000000000000000000000000000000000041
:102B94000000000000000000000000000000000031
:102BA4000000000000000000000000000000000021
:102BB4000000EF93FF930F931F930091DD01002317
:102BC40009F427C0E0EFFAE211270370E00FF11FC8
:102BD400E00FF11F05911491F801EE0FFF1F009112
:102BE400DC0110E0E00FF11F0395003608F0002728
:102BF4000093DC010491002339F00093B30002E157
:102C04000093B0002D9A0DC002E00093B0002D98FF
:102C140008C002E00093B00000270093DC012D9867
:102C240000C01F910F91FF91EF9108950F93AF93FF
:102C3400BF93CF93DF93EF93FF93013031F000E024
:102C44000093FC010093FD011DC0A091FE01B09111
:102C5400FF01C091FC01D091FD01E4E6F0E0CA1748
:102C6400DB0710F049F006C0CE0FDF1FAC17BD071D
:102C740008F002C0ED0100C0C093FC01D093FD0137
:102C84000E94B706FF91EF91DF91CF91BF91AF9171
:102C94000F9108950E944C190E941E170091DF01A4
:102CA40003FD5BC00091E00105FF06C00F7D0093AA
:102CB400E0010E94B41909C00E94D5190091E403EF
:102CC400002319F002E00E94562A0091E1010770E6
:102CD40002FF12C000000091160210911702010FAA
:102CE4000330D9F103E010E00093160210931702A9
:102CF40008E80E943F2131C001FF12C0000000918A
:102D0400160210911702010F023039F102E010E0AF
:102D1400009316021093170208E80E943F211DC079
:102D240000FD12C000000091160210911702010F5D
:102D3400013099F001E010E000931602109317029D
:102D440008E80E943F2109C000270093170200935E
:102D5400160208E80E943F2100C008950E94B41E94
:102D64000E94771E00910F01002331F40E94330763
:102D74000E94D1070E94B8090E9460240E94F7169D
:102D84000DE80E943F210EE80E943F2100911602A7
:102D940010911702011739F00093170210931602CD
:102DA40008E80E943F2103E00E94562A0E94DB1695
:102DB40008950F931F932F9300911302003089F00D
:102DC40000911402053069F00091DE010C3320F407
:102DD40003950093DE0105C000E00093DE010E942C
:102DE40077042F911F910F910895EF93FF93E09132
:102DF400D801F091D9013196E093D801F093D9012B
:102E0400FF91EF910895CF93DF93C9E1D2E00F933F
:102E140000581127C00FD11FC00FD11F09810076A0
:102E240000360F9131F40F930E9453210E94C12068
:102E34000F91DF91CF91089505E8003C20F40E94A2
:102E440005170395FACF0895E8E7F0E00E94DD182E
:102E5400602F0E94DD18702F0E94DD18802F0E94C1
:102E6400DD18902F5FEF4FEF3FEF2FEF0E94A31D70
:102E740009F05AC0E0E9F2E0CDE8D1E00591099308
:102E84000591099305910993059109930591099376
:102E94000591099305910993059109930591099366
:102EA4000591099305910993059109930591099356
:102EB4000591099305910993059109930591099346
:102EC400059109930591099305910993C6EFD3E000
:102ED4000591099305910993059109930591099326
:102EE4000E947218E8EAF2E0C1EFD1E0059109937B
:102EF4000591099305910993059109936091F10155
:102F04007091F2018091F3019091F401E8E7F0E00F
:102F1400062F0E94C318072F0E94C318082F0E946F
:102F2400C318092F0E94C3180895E8E7F0E00E942F
:102F3400DD18602F0E94DD18702F0E94DD18802F8D
:102F44000E94DD18902F50E041E036E820EA0E940C
:102F5400A31D38F050E046E133EE20E60E94A31DA5
:102F640020F090E084E073E960EE6093F1017093E7
:102F7400F2018093F3019093F40150E040E030E0DB
:102F840024E60E94081D6093F5017093F601809376
:102F9400F7019093F801E4E6F0E0CDE8D1E00E9477
:102FA400DD1809930E94DD1809930E94DD18099326
:102FB4000E94DD1809930E94DD1809930E94DD1810
:102FC40009930E94DD1809930E94DD1809930E9459
:102FD400DD1809930E94DD1809930E94DD180993F6
:102FE4000E94DD1809930E94DD1809930E94DD18E0
:102FF40009930E94DD1809930E94DD1809930E9429
:10300400DD1809930E94DD1809930E94DD180993C5
:103014000E94DD180993ECE7F0E0C6EFD3E00E94CC
:10302400DD1809930E94DD1809930E94DD180993A5
:103034000E94DD180993A0E0B0E0A0930002B093D1
:1030440001020E948906A0E0B0E0A093FE01B093C3
:10305400FF010E94B70608956091E9017091EA01A9
:103064008091EB019091EC0150E041E036E820EAD8
:103074000E94A31DA0F150E046E133EE20E60E9439
:10308400A31D68F550E040E030E024E60E94081DEE
:103094006093F5017093F6018093F7019093F80122
:1030A40050E040E030E024E60E94E41C6093F1012B
:1030B4007093F2018093F3019093F401E8E7F0E058
:1030C400062F0E94C318072F0E94C318082F0E94BE
:1030D400C318092F0E94C3180BE80E943F210895CA
:1030E400E4E6F0E0CDE8D1E009910E94C31809912B
:1030F4000E94C31809910E94C31809910E94C31821
:1031040009910E94C31809910E94C31809910E9451
:10311400C31809910E94C31809910E94C318099108
:103124000E94C31809910E94C31809910E94C318F0
:1031340009910E94C31809910E94C31809910E9421
:10314400C31809910E94C31809910E94C3180991D8
:103154000E94C31809910E94C31809910E94C318C0
:10316400ECE7F0E0C6EFD3E009910E94C31809919F
:103174000E94C31809910E94C31809910E94C318A0
:103184000895F999FECF0F920FB60F921F93F894FA
:103194000F930E94DD18102F0F913197011729F01A
:1031A400E1BDF2BD00BDFA9AF99A1F910F900FBECE
:1031B4000F9031960895F999FECFE1BDF2BDF89ACA
:1031C40000B531960895189509B1007C1091E40179
:1031D400103021F4003001F510E81EC0003C61F00D
:1031E400003821F413951A3F88F416C0003419F4FA
:1031F4001A95153020F010C0103871F038F0009195
:10320400E00102600093E001112706C00091E00193
:1032140001600093E00111271093E401089509B1BE
:1032240000721FEF012705FBA5EEB1E0C7EED1E068
:103234000E942D190E943B191091E0010091E701B1
:10324400007E003A11F4186003C0003409F41460DD
:103254001093E00108950C911FE02EF01A950117C8
:1032640031F0039504C01195011709F00A950C93E8
:103274000895188117FB0C91002342F056F416FDB3
:1032840003C01F77106404C0112702C016F010E8B1
:1032940018830895C7EED1E021E0199117FB76F465
:1032A40016FB66F0012F0F710F3141F00395107E6C
:1032B400102B0A3008F010621A9319912A9569F7B5
:1032C40008950F931F93CF93DF93C7EED1E011E0DE
:1032D4000FEF09931A95E9F7DF91CF911F910F91A1
:1032E40008950F9304EA0093BC001FD00F91089532
:1032F4000F9304E90093BC000F9108950F9300937A
:10330400BB0004E80093BC0010D00F91089504ECB6
:103314000093BC000AD00091BB00089504E8009318
:10332400BC0003D00091BB000895EF93FF93F3E03A
:10333400E8EE989400E031973196319731963197C1
:103344003196319739F00091BC0007FFF4CF00911A
:10335400B90003C00E947A1900E000930401FF91B0
:10336400EF9108950F920FB60F920F930E94731965
:1033740002E30E94801900910401083109F00CC095
:103384000091EC030E9480190091ED030E948019C2
:103394000091EE030E9480190E947A190F910F90F8
:1033A4000FBE0F9008950F920FB60F920F931F93B5
:1033B4002F9322270E94731902E301600E9480194F
:1033C40000910401003451F000C00E947A190FEFFB
:1033D4000093E90308EA0E943F2159C00E94891919
:1033E4001091E5030093E503101321600E948919ED
:1033F4001091E6030093E603101321600E948919DB
:103404001091E7030093E703101322600E948919C7
:103414001091E8030093E803101322600E949019AE
:103424000F930F701091E9030093E90310132460C4
:103434000F910F9310E004FD1FEF012F1091EB0388
:103444000093EB03101328600F9110E005FD1FEFAC
:10345400012F1091EA030093EA03101320610E94E4
:103464007A192093E40320FF03C009EA0E943F2154
:1034740021FF03C00AEA0E943F2122FF03C008EA99
:103484000E943F2123FF03C00BEA0E943F212F919A
:103494001F910F910F900FBE0F9008950F920FB6CA
:1034A4000F920F931F932F931091DF0111601093CC
:1034B400DF010091D501093020F012601093DF0183
:1034C4000FEF03950093D501B8F00091D6010930B0
:1034D40020F014601093DF010FEF03950093D601E1
:1034E40058F00091D701093020F018601093DF01E3
:1034F4000FEF03950093D701AF93BF93CF93DF935F
:10350400EF93FF930E94E6180E941119FF91EF9127
:10351400DF91CF91BF91AF912F911F910F910F9098
:103524000FBE0F9018950F920FB60F92AF93BF93E3
:10353400CF93DF93EF93FF930F931F932F933F93B7
:103544004F935F936F937F938F939F9309B104FD80
:1035540003C004FF20C060C0A091FE01B091FF0130
:1035640010E0A117B10709F457C0C091F901D09137
:10357400FA01A091FB01D0938900C0938800A09325
:1035840081000091E10100FF47C001FD45C002FD3B
:1035940043C05C9841C05C9AA091E901B091EA01F2
:1035A400C091EB01D091EC01119608F42196A093FF
:1035B400E901B093EA01C093EB01D093EC010AE86E
:1035C4000E943F21A091ED01B091EE01C091EF0165
:1035D400D091F00110E0A117B107C107D10709F498
:1035E4001BC0119708F42197A093ED01B093EE014D
:1035F400C093EF01D093F00110E0A117B107C10708
:10360400D10751F40091E10102600093E1010E94AD
:10361400890602E00093DD019F918F917F916F9164
:103624005F914F913F912F911F910F91FF91EF91D6
:10363400DF91CF91BF91AF910F900FBE0F9018956E
:10364400D580A83FD300408D14A1C8DA1281FFD9D8
:1036540022DB30A4A60010B0AF00EF93FF93F3EC8D
:10366400E0E531973196319731963197319631971C
:10367400C1F7F3ECE0E53197319631973196319704
:1036840031963197C1F7FF91EF910E94731908E7C2
:103694000E94801900E00E94801918E1E4E4F6E336
:1036A40005910E9480191A951123D1F70E947A1965
:1036B40008950F930E94731908E70E94801900EC83
:1036C4000E9480190F911F9310910B0101271F91E4
:1036D4000E9480190E947A190091050103950F77C1
:1036E4000093050108950F931F932F93212F102FFB
:1036F40010930501209306010E94731908E70E94A4
:10370400801900E00E948019022F0770006B0E944C
:103714008019012F0F700E948019012F02950F70DC
:1037240000610E9480190E947A192F911F910F91B4
:1037340008950F931F932F930E94F71B28E010E81E
:103744002A951F932F9310E01093050120930601EF
:10375400012F122F0E94751B2F911F910E94731924
:1037640008E70E94801900E40E94801900E00E948A
:1037740080191A95D9F70E947A19222301F72F91FB
:103784001F910F9108950E94731908E70E948019F0
:1037940000E80E9480190FEA0E9480190E947A1999
:1037A4000895CF93DF930F9300581127C9E1D2E016
:1037B400C00FD11FC00FD11F0981006409830F916D
:1037C400DF91CF910895CF93DF930F930058112782
:1037D400C9E1D2E0C00FD11FC00FD11F09810F7BF7
:1037E40009830F91DF91CF910895CF93DF930F93C6
:1037F4001F93C9E1D2E000E4002331F00A95198156
:103804001F7D19832296F8CF1F910F91DF91CF91DD
:103814000895CF93DF930F931F932F933F934F9369
:10382400C9E1D2E000E43091050140910601002392
:1038340069F00A9518811F772981277013172407C7
:1038440019F429812F7D29832296F1CF4F913F913D
:103854002F911F910F91DF91CF9108950F920FB681
:103864000F924F935F936F937F938F939F93FF93E5
:10387400EF9397FD0E94911D40E2EE24DD24CC24B9
:10388400BB24AA24FF27660F771F881F991FAA1C31
:10389400BB1CCC1CDD1CEE1C4A9561F0EFE0529180
:1038A4005D5F53FD50835081505D57FD5083EA3076
:1038B400B1F7E9CF5A2D5F705063509309025A2D26
:1038C40052955F70506350930A025B2D5F70506392
:1038D40050930B025B2D52955F70506350930C0212
:1038E4005C2D5F70506350930D025C2D52955F7098
:1038F400506350930E025D2D5F70506350930F021E
:103904005D2D52955F705063509310025E2D5F7071
:103914005063509311025E2D52955F705063509323
:103924001202EF91FF919F918F917F916F915F911F
:103934004F910F900FBE0F9008950F931F935F93B5
:103944004F933F932F93CF93DF9320E039E0C2E16D
:10395400D2E000910D01301751F048F00881003396
:1039640031F400E20883219723953A9591F7209347
:103974000E01002700930D01DF91CF912F913F910C
:103984004F915F911F910F9108952FE22395045653
:10399400E8F71AE31A95065FE8F3004D08950F92CD
:1039A4000FB60F92102F0F70107F1295005D0A331F
:1039B40008F0095F105D1A3308F0195F0F900FBE0D
:1039C4000F9008957F93629FB001829FC0010F9072
:1039D400029E700D811D0024901D0895629F1001A8
:1039E400829F2001729F300C411C1124511C639F43
:1039F400300C411C1124511C739F400C511C839F9B
:103A0400500CB101C2010895689400C0002411242F
:103A14002224332410E2660F771F881F991F001C8D
:103A2400111C221C331C021A130A240A350A28F416
:103A3400020E131E241E351E01C061601A9559F72B
:103A440056954795379527951795201531054205C5
:103A5400530530F411E0610F10E0711F811F911FB5
:103A6400111F221F331F441F551F0895952797FBCD
:103A7400952797FD0E94911D57FD0E949A1D0E9453
:103A8400081D16F40E94911D0895AB01429FB001D8
:103A9400539FC001529F2224700D811D921D349F9B
:103AA4002224700D811D921D0895AB01429FB00127
:103AB4005302C001520311271040700D811D911F44
:103AC400340311271040700D811D911F08951F713B
:103AD400112331F01A959695879577956795F8CFC8
:103AE40008951F71112331F01A95660F771F881FEF
:103AF400991FF8CF08951F71112331F01A959695E7
:103B0400879577956795F8CF0895620F731F841F83
:103B1400951F0895621B730B840B950B0895609594
:103B24007095809590956F5F7F4F8F4F9F4F08954D
:103B340020953095409550952F5F3F4F4F4F5F4FE5
:103B44000895621773078407950708959B01AC01D4
:103B54000895B901CA0108950F930FB70F931F93E6
:103B64000FEF07B90F931F930DEC17E001501040AE
:103B7400E8F71F910F9100EF07B90F931F930DEF13
:103B840010E001501040E8F71F910F9116B11F701B
:103B94000F931F930DEC16E001501040E8F71F91AE
:103BA4000F9106B10F70012B1027109384011F9100
:103BB4000F910FBF0F9108950F930FB70F930FEF4E
:103BC40007B900EF08B90F931F9302E10150F0F712
:103BD4001F910F9100918301006F08B90F931F93F8
:103BE40005EE10E001501040E8F71F910F9100EF2F
:103BF40007B900EF08B90F931F9307E20150F0F7DC
:103C04001F910F910F910FBF0F9108951F931FB72D
:103C14001F930F932F9318E0103061F01A9500FF53
:103C240020E000FD2FE00795209383010E94DE1D14
:103C34000C940E1E2F910F911F911FBF1F91089579
:103C44000F930FB70F930FEF07B90F931F9302E171
:103C54000150F0F71F910F9100EF07B90F931F93D5
:103C640002E30150F0F71F910F9106B10F7000931A
:103C740083010F931F930DED10E001501040E8F7FE
:103C84001F910F910F910FBF0F9108950F930FB7CD
:103C94000F931F934F935F936F937F9344275527FD
:103CA4006627772718E0103079F01A950E94221EB3
:103CB4000091830107954795079557950795679553
:103CC400079577950C94551E40937F01509380017E
:103CD40060938101709382017F916F915F914F9105
:103CE4001F910F910FBF0F9108950F930E94AE1D66
:103CF4000CEC0E94081E04E40E94081E0F91089513
:103D0400EF93FF93CF93DF930F93E5E8F1E0C5EAD8
:103D1400D1E00191099301910993019109930191D2
:103D240009930191099301910993019109930191D7
:103D340009930F91DF91CF91FF91EF910895EF9344
:103D4400FF93CF93DF93E8E0DCE8F12FF02716959B
:103D54000695F0FD1D27EA95C1F7DF91CF91FF91FC
:103D6400EF9108950F931F932F93AF93BF93CF9326
:103D7400DF93EF93FF930E94821E0E94AE1D0CEC12
:103D84000E94081E0EEB0E94081EEDEAF1E0C1ED50
:103D9400D1E00027088309830A830B8328E00E946B
:103DA400481EAFE7B1E00D91008318810E94A11E67
:103DB40018830D91018719810E94A11E19830D9109
:103DC400028B1A810E94A11E1A830D91038F1B81FD
:103DD4000E94A11E1B8331962A9509F70E94481E52
:103DE400AFE7B1E00D9100831881011741F02091F4
:103DF400A5012093AD012091A6012093AE010D9160
:103E040001871981011741F02091A7012093B60180
:103E14002091A8012093B7010D91028B1A810117FB
:103E240041F02091A9012093BF012091AA01209380
:103E3400C0010D91038F1B81011741F02091AB014B
:103E44002093C8012091AC012093C901EDEAF1E06F
:103E5400C5E8D1E0008109930181099301850993A3
:103E6400028509930289099303890993038D0993B0
:103E7400048D0993E0E0F0E80091840100FD04C0A2
:103E8400E0938501F093860101FD04C0E09387016E
:103E9400F093880102FD04C0E0938901F0938A0144
:103EA40003FD04C0E0938B01F0938C01E0E0F0E8A3
:103EB400A091A501B091A601C0918501D091860180
:103EC400AE17BF0739F0AC17BD0779F000E90E94BF
:103ED4003F210BC0E0E5F5E0CE17DF07A1F7C0E016
:103EE400D0E8C0938501D0938601E0E0F0E8A0918A
:103EF400A701B091A801C0918701D0918801AE17A4
:103F0400BF0739F0AC17BD0779F001E90E943F21E2
:103F14000BC0E0E5F5E0CE17DF07A1F7C0E0D0E87D
:103F2400C0938701D0938801E0E0F0E8A091A90153
:103F3400B091AA01C0918901D0918A01AE17BF073F
:103F440039F0AC17BD0779F002E90E943F210BC09C
:103F5400E0E5F5E0CE17DF07A1F7C0E0D0E8C093B5
:103F64008901D0938A01E0E0F0E8A091AB01B0911F
:103F7400AC01C0918B01D0918C01AE17BF0739F011
:103F8400AC17BD0779F003E90E943F210BC0E0E5BF
:103F9400F5E0CE17DF07A1F7C0E0D0E8C0938B01AE
:103FA400D0938C0103EB0E943F2104EB0E943F213C
:103FB400FF91EF91DF91CF91BF91AF912F911F911D
:103FC4000F9108950F920FB60F920F931F932F9393
:103FD4003F934F930F921F92FF93EF93F198F098B2
:103FE4000F9300910901017010E0EEE5F4E1E00F98
:103FF400F11FE00FF11F05911591000F111F0093A0
:10400400010110930201F8010F9115912591359149
:104014004591003249F0003031F0011718F00217D1
:1040240021F018F049C0F09AF19A003828F0003CC9
:10403400C8F3103C08F400540F93011B349F009DF7
:10404400E00DF11D009105010093070100910601A7
:10405400009308010F910E3219F400243695301D97
:104064004F933F930091050100E0F19B05910E945D
:104074005B1B3A95F0993A95A9F702C00591F9CFDF
:104084003F914A9579F00091070100930501009151
:1040940008010395077000930601009308010E942C
:1040A4006B20DFCF4F9100910601041B039507702D
:1040B400009306010E946B20EF91FF911F900F90D7
:1040C4004F913F912F911F910F910F900FBE0F9021
:1040D400089500910501109106010E94751B089531
:1040E40071CF0F920FB60F92AF93BF93CF93DF931D
:1040F400EF93FF930F931F932F93EE0FFF1F002750
:1041040000930A0100910A01063908F02BC00395B7
:1041140000930A0105910038F0F009F423C0013836
:1041240019F40E948721EECF033819F40E949621D6
:10413400E9CF043819F40E949D21E4CF053819F41D
:104144000E94AA21DFCF063819F40E94B521DACFE4
:10415400003C08F404C000300E947220D3CF0E94B7
:10416400C120D0CF2F911F910F91FF91EF91DF913B
:10417400CF91BF91AF910F900FBE0F9008950F9202
:104184000FB60F92AF93BF93CF93DF93EF93FF9349
:104194000F931F932F933F934F935F936F937F934B
:1041A4008F939F93E0E4F8E4C9E1D2E00F930058C1
:1041B40010E0E00FF11FE00FF11FC00FD11FC00F7F
:1041C400D11F05911491F801009105010F7708831F
:1041D40010910601177000910901029500710062A7
:1041E400012B19811078012B10910B011F3F11F441
:1041F400006801C00F7709830F91099500E00093CF
:104204000B019F918F917F916F915F914F913F919E
:104214002F911F910F91FF91EF91DF91CF91BF915A
:10422400AF910F900FBE0F900895CF93DF930F932C
:104234001F93C9E1D2E000581127C00FD11FC00F4E
:10424400D11F19811F7719831F910F91DF91CF918E
:104254000895CF93DF930F931F93C9E1D2E00058E1
:104264001127C00FD11FC00FD11F198110681983E6
:104274001F910F91DF91CF910895CF93DF930F9307
:104284001F93C9E1D2E000581127C00FD11FC00FFE
:10429400D11F1981106419831F910F91DF91CF9160
:1042A40008950F931F93CF93DF93C9E1D2E0005891
:1042B4001127C00FD11FC00FD11F088119810E947F
:1042C400751B1F7B1062198317FD0FEF17FF00E0AA
:1042D40000930B0112951F7010930901DF91CF9188
:1042E4001F910F91089500E20E9472200DE20E9436
:1042F40072200E9472200EE20E9472200DE20E943F
:1043040072200E947220089508950591017000930F
:10431400000100930901089500E000930901089544
:1043240001E000930901089505910F771591177025
:104334000E94751B0895259100910501020F0F77C6
:10434400259110910601120F17700E94751B089594
:104354001591112321F01FEF10930B0103C010E0FE
:1043640010930B010895CF93DF930F931F9305913F
:10437400003C68F4003858F000581127C9E1D2E035
:10438400C00FD11FC00FD11F09810F7D09831F9159
:104394000F91DF91CF910895EEE9F2E500911802B3
:1043A40003701127E00FF11FE00FF11F0591149125
:1043B400F8010E9473200895E6EFF2E500911602D9
:1043C40007701127E00FF11FE00FF11F0591149101
:1043D400F8010E94732008950E94532100910F0157
:1043E400002301F0C3E3D1E0688179818A819B8154
:1043F4000E94301C00910D020E94722000910C0258
:104404000E94722000910B020E9472200EE20E9410
:10441400722000910A020E947220009109020E94F7
:10442400722008950E945321C9EED1E008E068C0CB
:104434000E945321C1EFD1E007E062C00E945321E2
:10444400CEEFD1E004E057C00E9453216091F10106
:104454007091F2018091F3019091F40150E040E0F9
:1044640030E024E60E94081D9B01AC016091E90143
:104474007091EA018091EB019091EC010E94081D7A
:1044840005E042C00E945321C0910002D091010274
:1044940000E0C017D00769F40EEE0E94722002EF0C
:1044A4000E9472200AEE0E9472200BEE0E9472207B
:1044B40008956091F1017091F2018091F30190915E
:1044C400F40150E040E030E024E60E94081D9B0126
:1044D400AC016091ED017091EE018091EF0190913A
:1044E400F0010E94081D04E00FC00E945321C0E0A7
:1044F400D2E004E000C0688179818827992704C04C
:10450400688179818A819B810E94301C0E949F1C52
:104514000930A1F00830B1F00730C1F00630D1F015
:104524000530E1F00430F1F0033001F1023011F113
:10453400013021F1009112020E94722000911102B7
:104544000E947220009110020E94722000910F02BA
:104554000E94722000910E020E94722000910D02AE
:104564000E94722000910C020E94722000910B02A2
:104574000E94722000910A020E9472200091090296
:104584000E94722008950E945321109184010039E1
:1045940029F410FD18C00E94752159C0013929F46D
:1045A40011FD11C00E94752152C0023929F412FD77
:1045B4000AC00E9475214BC0033929F413FD03C0BE
:1045C4000E94752144C0C5E8D1E000591127C00FED
:1045D400D11FC00FD11F6881798121E732E00E9489
:1045E400571D0E94301C04E000930D010E949F1C83
:1045F40050E048E936E920E80E94A31D50F05FEF3F
:1046040040EF30EC21E30E94A31D08F420C00DE22A
:1046140002C000910F020E94E41F00910E020E944A
:10462400E41F00910D020E94E41F0EE20E94E41FA9
:1046340000910C020E94E41F10910A0204E3011786
:1046440010E000910B02011F0E94E41F00C00895B6
:104654000E945321C5E9D1E008591127C00FD11F89
:1046640008810E94C71C103309F410E20F93012F34
:104674000E9472200F910E94722008950E9453217B
:10468400CDE9D1E0005A1127C00FD11F0881E6E41B
:10469400F3E50F701127E00FF11FE00FF11F0591F3
:1046A4001491F8010E94732008950E945321C1EAD5
:1046B400D1E0045A1127C00FD11F08810E94C71CE2
:1046C4000F93012F0E9472200F910E94722008956F
:1046D4000E945321E6E0FCE40091E9030F3F21F03E
:1046E400033028F021F00EC0EEE5F6E209C00370B5
:1046F4001127E00FF11FE00FF11F05911491F8014C
:104704000E94732008950E945321C5EED3E068816E
:104714007981882799270E94301C01E000930D01BC
:104724000E949F1C00910C020E94722000910B02B7
:104734000E94722000910A020E9472200EE20E94DE
:104744007220009109020E94722008950E94532150
:10475400C7EED3E0DCCF0E9453212091EB031091EC
:10476400F403211301C008C02093F40300E210E015
:10477400211307E00E94E41F08950E945321CDE90C
:10478400D1E00C5A102F1395C00F00E0D01F088100
:10479400083020F00FEF00930B0103C000E00093FA
:1047A4000B01012F0E94E41F08950E9453210091E0
:1047B400F7030F3F19F0E6EEF9E202C0E3EEF9E287
:1047C4000E94732008950E9453210091F6030E94D1
:1047D400D11C0E94E41F08950E945321C8EFD3E026
:1047E4000E94ED2208950E9453210091F60310E9DE
:1047F400010F0E94C72208950E9453210091F603DD
:104804001127E5E8F1E0E00FF11FE00FF11FC0818F
:10481400D18100E010E80C171D07EAEDFBE409F074
:1048240002C0309605C00091F7030030D1F33296F0
:1048340005911491F8010E947320089586218E2118
:10484400922196219D218621B521CE21DE21EE21C2
:1048540014221A222022262244227722C522C5228B
:10486400C522C522C522C522C522C5222A232A2340
:104874002A232A232A232A232A232A2340234023A0
:104884004023402357235723572357236A23852341
:10489400A823AD23BF23BF23BF23BF23D723E523EF
:1048A400EE23F523FE238621862186218621862177
:1048B40086218621862186218621B5210F920FB675
:1048C4000F92AF93BF93CF93DF93EF93FF930F9226
:1048D4001F922F923F924F925F926F927F928F928C
:1048E4009F92AF92BF92CF92DF92EF92FF920F937B
:1048F4001F932F9300E0A02EB02EC02EB0E0A0E0B6
:104904000090840111241394E5E8F1E0C5E9D1E0B5
:1049140010910C011F70043008F088C09C848884B6
:104924007C8068802084419030845190079428F0E2
:104934001F9211221F9009F474C083FE01C01BC092
:104944001F92109411211F900F931F9314E9010FCC
:104954000E9417210E943F211F910F9162C01129CB
:104964000F931F9314E9010F0E942B210E943F21F2
:104974001F910F9156C0421453040CF026C01F928D
:1049840011221F9009F41FC0992089F09A949C86E3
:104994000F931F9314EA010F0E943F211F910F915F
:1049A40080FCA39481FCB39482FCC3943AC00F931B
:1049B4001F9314E9010F0E9417210E943F211F91A8
:1049C4000F916C86BDCF6C862CC01F9211221F9054
:1049D40009F408C07C8680FCA39481FCB39482FC17
:1049E400C3941FC0992059F09A949C860F931F93E7
:1049F40014EA010F0E943F211F910F9112C00F93DF
:104A04001F9314E9010F0E942B210E943F211F9143
:104A14000F9180FCA39481FCB39482FCC3947C86A4
:104A24009ECF8894111C2196039575CF10930C0189
:104A340003B1007F10951F70012B102F15B9009141
:104A4400DD01AA2011F001E003C0013009F40027C0
:104A54000093DD010091E1010B7F1091E903133014
:104A640011F0BB2009F004600093E101CC2099F01F
:104A74001091E903133079F00F9303E0CCEED3E007
:104A84000A830FEF088309830091E0010062009319
:104A9400E0010F9137C00091F703003009F432C0F0
:104AA4000091F6031127E5E8F1E0E00FF11FE00FB4
:104AB400F11FC081D18100E010E80C171D0709F433
:104AC40021C0E8EFF3E0A081B181CA17DB0708F445
:104AD40019C00091E903013009F014C00091FA03F0
:104AE400033020F403950093FA030FC000E0CCEEEA
:104AF400D3E00A830FEF088309830091E001006289
:104B04000093E00100E00093FA032F911F910F91AD
:104B1400FF90EF90DF90CF90BF90AF909F908F90D9
:104B24007F906F905F904F903F902F901F900F90C9
:104B3400FF91EF91DF91CF91BF91AF910F900FBE95
:104B44000F9008958101831C0ACFD0C8C2C5D280BA
:104B540083000081015484FD01810001830E0081E2
:104B6400019083000281015484FD01810002830EBF
:104B74000281019181008303045403002020928365
:104B84000305540400202093830006C0F2ECEE20B9
:104B940089830007A8835500AC0094835501AD00B8
:104BA40095835502AE0096835503AF00978349055C
:104BB400D2E5ECEF208367058C834906C8F2EEE367
:104BC400208361068D834907C0E2F2EE20836707E4
:104BD4008E8349048880EF25F92586B186B2850144
:104BE400EAEEEDF2F0EEEBFF20EDE5F28000850158
:104BF40000D28501B1850120E4EE008501B2850172
:104C0400008008261B262C2645265E2686AA86B406
:104C140086B186B2830006C0F2ECEE2089200083C0
:104C2400000755E2FBF5208500A900202084F4004C
:104C3400AB8086A986AA86AB868986B186B28300B4
:104C440006850100D0E0E7E3EEED00A985010083CD
:104C54000007B48086A986AA86AB868986B486B105
:104C640086B2830006850100CDE0E3F0E5E220E2B0
:104C7400FBEAEB00830007850100E2FBF5EEE4208C
:104C840000A98501008086A986AA86AB868986B498
:104C940086B186B2830006850100CDE0E3F0E5E24B
:104CA40020E2FBEAEB008300078501202020C0C23C
:104CB400C0D0C8DF20202080830006C0F2ECEE20A4
:104CC4008920008300072020CEF2EAEBFEF7E5ED11
:104CD400202086A986AA86AB86B486B186B28000D7
:104CE400830A008100CDE0F1F2F0EEE9EAE020E48D
:104CF400E0F2F7E8EA2030830A012D2D2D2D2D2D29
:104D04002D2D2D2D2D2D2D2D2D2D2D2D830A02D222
:104D1400E5EAF3F9E5E583550290830A032D2D2D89
:104D24002D2D2D2D2D2D2D2D2D2D2D2D2D2D2D8359
:104D34000A04CFEEF0EEE383550494830A05C4E538
:104D4400E9F1F2E2E8E5835E05A0830A06C7E0E440
:104D5400E5F0E6EAE02020E2EAEB2E208364069800
:104D640022830A07C7E0E4E5F0E6EAE020E2FBEA92
:104D7400EB2E208364079C228000830A008100CDEF
:104D8400E0F1F2F0EEE9EAE020E4E0F2F7E8EA200C
:104D940031830A012D2D2D2D2D2D2D2D2D2D2D2D34
:104DA4002D2D2D2D2D2D830A02D2E5EAF3F9E5E50B
:104DB40083550291830A032D2D2D2D2D2D2D2D2D5F
:104DC4002D2D2D2D2D2D2D2D2D830A04CFEEF0EE1E
:104DD400E383550495830A05C4E5E9F1F2E2E8E5C5
:104DE400835E05A1830A06C7E0E4E5F0E6EAE02075
:104DF40020E2EAEB2E208364069922830A07C7E0A7
:104E0400E4E5F0E6EAE020E2FBEAEB2E2083640727
:104E14009D228000830A008100CDE0F1F2F0EEE9EA
:104E2400EAE020E4E0F2F7E8EA2032830A012D2DDB
:104E34002D2D2D2D2D2D2D2D2D2D2D2D2D2D2D2D9E
:104E4400830A02D2E5EAF3F9E5E583550292830A7F
:104E5400032D2D2D2D2D2D2D2D2D2D2D2D2D2D2DA8
:104E64002D2D2D830A04CFEEF0EEE38355049683B3
:104E74000A05C4E5E9F1F2E2E8E5835E05A2830AE6
:104E840006C7E0E4E5F0E6EAE02020E2EAEB2E20C3
:104E94008364069A22830A07C7E0E4E5F0E6EAE0C1
:104EA40020E2FBEAEB2E208364079E228000830A23
:104EB400008100CDE0F1F2F0EEE9EAE020E4E0F276
:104EC400F7E8EA2033830A012D2D2D2D2D2D2D2DCC
:104ED4002D2D2D2D2D2D2D2D2D2D830A02D2E5EADC
:104EE400F3F9E5E583550293830A032D2D2D2D2D2A
:104EF4002D2D2D2D2D2D2D2D2D2D2D2D2D830A04D4
:104F0400CFEEF0EEE383550497830A05C4E5E9F197
:104F1400F2E2E8E5835E05A3830A06C7E0E4E5F070
:104F2400E6EAE02020E2EAEB2E208364069B22835B
:104F34000A07C7E0E4E5F0E6EAE020E2FBEAEB2E4C
:104F4400208364079F228000830A008100CDE0F162
:104F5400F2F0EEE9EAE020E4EEE7E0F2EEF0E083DE
:104F64000A012D2D2D2D2D2D2D2D2D2D2D2D2D2DBC
:104F74002D2D2D2D830A02D8E0E3E82020202020C7
:104F8400208A830A032D2D2D2D2D2D2D2D2D2D2DF4
:104F94002D2D2D2D2D2D2D830A04C8F2EEE3EE20A8
:104FA400202020208D20ECEB830A05D1F2EEEF20A7
:104FB400F7E5F0E5E7208E20ECEB830A06C4EEE784
:104FC400E8F0EEE2EAE020208F20ECEB830A07878A
:104FD4008000830A008100CAE0EBE8E1F0EEE2EA37
:104FE400E02020EDE0F1EEF1E0830A012D2D2D2DDE
:104FF4002D2D2D2D2D2D2D2D2D2D2D2D2D2D830AAA
:1050040002D2E5EAF3F9E5E520203A208B830A038E
:105014002D2D2D2D2D2D2D2D2D2D2D2D2D2D2D2DBC
:105024002D2D830A04D1F7E5F2F7E8EA20203A8A25
:10503400830705D2E5ECEF208C20C8F2EEE38D83E4
:105044000A062D2D2D2D2D2D2D2D2D2D2D2D2D2DD6
:105054002D2D2D2D830A07C7E0EFE8F1E0F2FC20A7
:1050640020E220454550524F4D800000830A0081C4
:105074000020CAEEEDF2F0EEEBFC20F0E0E7E3EE08
:10508400EDE020830A012D2D2D2D2D2D2D2D2D2DDF
:105094002D2D2D2D2D2D2D2D830A02D2E5EAF3F988
:1050A400E0FF20D220202000B3830A032D2D2D2DD4
:1050B4002D2D2D2D2D2D2D2D2D2D2D2D2D2D830AE9
:1050C40004D1EEF1F2EEFFEDE8E52020202020B03F
:1050D400830A05C4E0F2F7E8EA20202020202020FB
:1050E400202020D2B1830A06CFEEF0EEE320202068
:1050F4002020202000B2830A072D2D2D2D2D2D2DAB
:105104002D2D2D2D2D2D2D2D2D2D2D8000008300A9
:1051140000810011837A001083000420837A042024
:1051240083000520837A052083000620837A0620E5
:1051340083000720837A07208000830000810020F9
:10514400837A00208300043E837A043C8300052094
:10515400837A052083000620837A062083000720B3
:10516400837A07208000830000810020837A002056
:1051740083000420837A04208300053E837A053C5F
:1051840083000620837A062083000720837A072081
:105194008000830000810020837A002083000420A3
:1051A400837A042083000520837A05208300063E49
:1051B400837A063C83000720837A072080008300DB
:1051C40000810020837A002083000420837A042055
:1051D40083000520837A052083000620837A062035
:1051E4008300073E837A073C80008300008100200F
:1051F400837A002083000410837A0411830005203D
:10520400837A052083000620837A06208300072002
:10521400837A07208000830000810020837A0020A5
:1052240083000420837A042083000510837A051107
:1052340083000620837A062083000720837A0720D0
:105244008000830000810020837A002083000420F2
:10525400837A042083000520837A052083000610C6
:10526400837A061183000720837A07208000830055
:1052740000810020837A002083000420837A0420A4
:1052840083000520837A052083000620837A062084
:1052940083000710837A0711800053295D29672949
:1052A4007129CFF0EEE4EEEBE6E8F2FC2020F0E02A
:1052B400E1EEF2F38000CFF0EEE4EEEBE6E8F2FC90
:1052C40020E220EFE0F3E7E58000CDE0E7E0E42032
:1052D400EA20EDE0F1F2F0EEE9EAE0EC8000CAE069
:1052E400EBE8E1F0EEE2EAE02020EDE0F1EEF1E0BF
:1052F400800083298929912998299F29A029A129F6
:10530400A2292D2D2D2D2D2D2D2D2D800000850133
:105314002D2DEFE0F3E7E02D2D85008000008501C1
:1053240000E0E2F2EEF1F2EEEF0080008501002DE4
:1053340020F1F2EEEF202D0080008000800080003C
:105344008000B329B629B929BC29BF29C229C52996
:10535400C829CB29CE29D129D429D729DA29DD296D
:10536400E029EEF2EAEB8000EEF2EAEB8000EEF2E6
:10537400EAEB8000EEF2EAEB8000EEF2EAEB80006A
:10538400EEF2EAEB8000EEF2EAEB8000EEF2EAEBFA
:10539400800000200F200080200F0D208000200FAF
:1053A40009208000000F090D0080200F19208000C3
:1053B400000F190D0080000F190900800F19090D45
:1053C400800020C2CACB8000E2FBEAEB80000F928F
:1053D4000FB60F92EF93FF931F930F93EAE5F3E059
:1053E4000091DA0310E0E00FF11F03950F77003806
:1053F40079F00093DA030191003051F00093C60074
:105404000F911F91FF91EF910F900FBE0F90189580
:1054140008ED0093C10000E00093E301F1CF0FEF2A
:105424000093E30108EF0093C10008950F931F93C5
:10543400EF93FF930091E301002379F40091DB03E0
:10544400003029F40091DC03003009F406C00E9406
:10545400342A0E94432A0E94112AFF91EF911F913E
:105464000F910895E4EEF4E50091DC030770112731
:10547400E00FF11FE00FF11F05911491F801099558
:105484000895ECEDF3E017E0112321F0018101937D
:105494001A95FACF002700830091DB03002319F04B
:1054A4000A950093DB030895EF93FF931F9308304D
:1054B40098F41091DB03173008F00EC0ECEDF3E024
:1054C400E10F1127F11F1191011731F000831091A1
:1054D400DB0313951093DB031F91FF91EF91089564
:1054E4009B014B2BFA2A802BBB2A7A2A9B019B0116
:1054F4000F920FB60F92AF93BF93CF93DF93EF93B7
:10550400FF930F931F93AAE5B3E00CE30D9306E515
:105514000D930AE30D93C0E0D2E009810E94D11CEF
:105524001D930D9308810E94D11C1D930D93C7E018
:10553400D2E009810E94D11C1D930D9308810E9421
:10554400D11C1D930D930EE30D930DE00D930AE012
:105554000D9300E00D930093DA031F910F91FF91D7
:10556400EF91DF91CF91BF91AF910F900FBE0F904C
:1055740008950F920FB60F92AF93BF93CF93DF931B
:10558400EF93FF930F931F93AAE5B3E00CE30D93FE
:105594000AE50D930AE30D93C1EFD1E00B810E945C
:1055A400D11C1D930D930A810E94D11C1D930D9350
:1055B40009810E94D11C1D930D9308810E94D11C66
:1055C4001D930D930EE30D930DE00D930AE00D93DF
:1055D40000E00D930093DA031F910F91FF91EF9177
:1055E400DF91CF91BF91AF910F900FBE0F900895AF
:1055F4000F920FB60F92AF93BF93CF93DF93EF93B6
:10560400FF930F931F93AAE5B3E00CE30D9305E515
:105614000D930AE30D93C5EED3E009810E94D11CDA
:105624001D930D9308810E94D11C1D930D930B8132
:105634000E94D11C1D930D930A810E94D11C1D93BD
:105644000D93C9EED3E008810E94D11C0D93CBEEDB
:10565400D3E008810E94D11C0D93CAEED3E00881E7
:105664000E94D11C0D930EE30D930DE00D930AE0FF
:105674000D9300E00D930093DA031F910F91FF91B6
:10568400EF91DF91CF91BF91AF910F900FBE0F902B
:1056940008950F920FB60F92AF93BF93CF93DF93FA
:1056A400EF93FF930F931F93AAE5B3E00CE30D93DD
:1056B40003E50D930AE30D93CEEFD1E009810E9437
:1056C400D11C1D930D9308810E94D11C1D930D9331
:1056D4000EE30D930DE00D930AE00D9300E00D939E
:1056E4000093DA031F910F91FF91EF91DF91CF9116
:1056F400BF91AF910F900FBE0F9008950F920FB608
:105704000F92AF93BF93CF93DF93EF93FF930F93D6
:105714001F93AAE5B3E00CE30D9304E50D930AE3AC
:105724000D93C5E8D1E009810E94D11C1D930D930E
:1057340008810E94D11C1D930D930B810E94D11CE2
:105744001D930D930A810E94D11C1D930D930D810D
:105754000E94D11C1D930D930C810E94D11C1D939A
:105764000D930F810E94D11C1D930D930E810E94F5
:10577400D11C1D930D93CDE8D1E009810E94D11C69
:105784001D930D9308810E94D11C1D930D930B81D1
:105794000E94D11C1D930D930A810E94D11C1D935C
:1057A4000D930D810E94D11C1D930D930C810E94B9
:1057B400D11C1D930D930F810E94D11C1D930D9339
:1057C4000E810E94D11C1D930D93CBE7D1E00A8179
:1057D4000E94D11C1D930D9309810E94D11C1D931D
:1057E4000D9308810E94D11C1D930D93CEEFD1E03F
:1057F40009810E94D11C1D930D9308810E94D11C24
:105804001D930D930F931F932F933F934F935F9388
:105814006F937F938F939F936091F1017091F20145
:105824008091F3019091F40150E040E030E024E6EF
:105834000E94081D9B01AC016091E9017091EA018D
:105844008091EB019091EC010E94081D6093040289
:1058540070930502809306029F918F917F916F91BF
:105864005F914F913F912F911F910F91C4E0D2E02E
:105874000A810E94D11C0D9309810E94D11C1D93A1
:105884000D9308810E94D11C1D930D93C0E0D2E0BA
:1058940009810E94D11C1D930D9308810E94D11C83
:1058A4001D930D930F931F932F933F934F935F93E8
:1058B4006F937F938F939F936091F1017091F201A5
:1058C4008091F3019091F40150E040E030E024E64F
:1058D4000E94081D9B01AC016091ED017091EE01E5
:1058E4008091EF019091F0010E94081D60930702DE
:1058F400709308029F918F917F916F915F914F9167
:105904003F912F911F910F91C7E0D2E009810E942E
:10591400D11C1D930D9308810E94D11C1D930D93DE
:10592400CCE0D1E008810E94D11C0D93CDE9D1E0F7
:1059340008810E94D11C0D9309810E94D11C0D93F2
:105944000A810E94D11C0D930B810E94D11C0D93DE
:10595400C1EED1E008810E94D11C0D93C5EED3E0C5
:1059640009810E94D11C1D930D9308810E94D11CB2
:105974001D930D930B810E94D11C1D930D930A81DD
:105984000E94D11C1D930D93C9EED3E008810E949F
:10599400D11C0D93C7EFD3E008810E94D11C0D9355
:1059A400C6EFD3E008810E94D11C0D93C8EFD3E069
:1059B40009810E94D11C1D930D9308810E94D11C62
:1059C4001D930D930EE30D930DE00D930AE00D93DB
:1059D40000E00D930093DA031F910F91FF91EF9173
:1059E400DF91CF91BF91AF910F900FBE0F900895AB
:1059F400003398F00A3318F4005388940FC001342C
:105A040060F0073418F40753889408C0013628F06E
:105A1400073618F40755889401C00894089518951A
:105A24000F920FB60F92EF93FF931F930F93009172
:105A3400E10103FD3DC0E9EDF2E00091C6000D3047
:105A440009F431C0073408F40CC00A3558F051F099
:105A5400013608F42DC00A3710F009F029C00052AD
:105A6400F1CF06C000C0008300270093590320C073
:105A7400003350F0093348F041F0013428F0063483
:105A840020F019F00052F9CF13C010915903139567
:105A94001F3010F009F00CC010935903E10F10E00F
:105AA400F11F008305C00091E10108600093E1014A
:105AB4000F911F91FF91EF910F900FBE0F901895CA
