:020000020000FC
:0A0000000C9433000C94D103189502
:02000C00189545
:060010000C945405189544
:02001800189539
:02001C00189535
:02002000189531
:0200240018952D
:02002800189529
:10002C000C9491050C9493050C949A050C949C05D6
:02003C00189515
:02004000189511
:0200440018950D
:100048000C94130A0C94D00A0C94CF0A0C948B03CA
:020058001895F9
:02005C001895F5
:100060000C94F216189505B70160102F0D7F15BF7F
:1000700005BFE0E0F1E000270193F530E9F7E0305B
:10008000D9F70293EDBFFEBFEEE1FF27EA95F083BB
:10009000E9F700E007B90FE308B902EC0AB90AEF83
:1000A0000BB90BE204B90FEF05B903E000936C0044
:1000B00002E00093680002E30093BA0005EC0093AD
:1000C000BC0007E60093C40000E00093C50008ED03
:1000D0000093C10006E00093C20002E00093B0006C
:1000E00003E00093B1000CE70093B30000E000933D
:1000F0007000BAE4A8E3A0930201B0930301B093A7
:100100008900A0938800BAE4A8E3A0930401B09307
:100110000501B0938B00A0938A0000E0009380005B
:1001200006E000936F0002E00093810009EF07BD35
:1001300008BD02E004BD03E000936E0003E005BDCE
:1001400009E00093470109E00093480109E00093AA
:1001500049010AE00093690001E00DBB00E0009353
:100160007B0007E000937C000DEE00937A000E9474
:10017000581E36F00E94081E0FEF0093930120C016
:100180000E9472090AE70E949A090E9488090023C6
:1001900021F40AE7009393010DC00E94720908E759
:1001A0000E949A090E948809002321F408E700931D
:1001B000930100C00E94E3070E9407080E949C0769
:1001C0000FEF0093130100E80093150109B105FD3D
:1001D0000C94EE00B4E0A2EE0C94F000AA27BB272A
:1001E000A0932301B0932401B0E0A5E0A0930D01FA
:1001F000B0930E0178940FEF009311010E94030A4F
:100200000C94020100914D0100FF07C00E7F009386
:100210004D010F930E94680A0F9101FF07C00D7FE7
:1002200000934D010F930E948C160F9102FF05C0A1
:100230000B7F00934D010F930F9103FF09C0077FC0
:1002400000934D010F930E94030A0E94CC010F916D
:1002500004FF09C00F7E00934D010F930E94030A13
:100260000E9404020F9105FF23C00F7D00934D01F2
:100270000F9300919801003059F0CF93DF93C2E3C0
:10028000D0E0C0930D01D0930E01DF91CF910AC051
:10029000CF93DF93C5E0D0E0C0930D01D0930E0162
:1002A000DF91CF9102E0009398010E94D1020F915B
:1002B00006FF23C00F7B00934D010F93009198011F
:1002C000003059F0CF93DF93C2E3D0E0C0930D012B
:1002D000D0930E01DF91CF910AC0CF93DF93C5E099
:1002E000D0E0C0930D01D0930E01DF91CF9102E0D9
:1002F000009398010E9412030F9107FF05C00F772A
:1003000000934D010F930F9100914E0100FF0FC01C
:100310000E7F00934E010F9300919801003021F061
:10032000023008F002E00A95009398010F9101FF56
:1003300007C00D7F00934E010F930E943E020F9164
:1003400002FF05C00B7F00934E010F930F9103FF37
:1003500005C0077F00934E010F930F9104FF05C066
:100360000F7E00934E010F930F9105FF05C00F7D87
:1003700000934E010F930F9106FF05C00F7B009372
:100380004E010F930F9107FF05C00F7700934E01A9
:100390000F930F910C940201FF92FFB6FF920F93FF
:1003A00000911601003049F402E0009316010FEFAE
:1003B000009311010093130122C0013061F400E0A9
:1003C000009316010027009314010A950093110170
:1003D0000093130114C0023061F400E00093160191
:1003E0000027009314010A95009311010093130153
:1003F00006C0033021F400E00093950100C00F9186
:10040000FF90FFBEFF900895FF92FFB6FF920F93FB
:1004100000911601003049F401E0009316010FEF3E
:10042000009311010093130124C0013049F402E04C
:10043000009316010FEF009311010093130119C0EF
:10044000023049F401E0009316010FEF009311010F
:10045000009313010EC0033061F400E00093160115
:100460000FEF009311010093130100E00093950139
:1004700000C00F91FF90FFBEFF900895FF92FFB65E
:10048000FF92CF93DF93EF93FF930F931F932F93DD
:100490000E94EC0900914A01023009F01BC00027BC
:1004A0000F930091230100939D010091240100937B
:1004B0009E010091210100939F0100912201009370
:1004C000A001009116010093A1010E94F50A0E946B
:1004D000931E0F91039500934A010E94531F2F9181
:1004E0001F910F91FF91EF91DF91CF91FF90FFBE90
:1004F000FF9008951CE520E00E94280802EC0E946D
:10050000E4080BEF0E94E40805EF0E94E4080EEEF9
:100510000E94E40804EE0E94E40816E522E00E942E
:1005200028080E9449080895ECE5F5E01127E00F3E
:10053000F11FE00FF11F05911491F801EE0FFF1F5D
:100540000591002351F0003829F4159125910E945E
:100550002808F6CF0E940709F3CF0895B202B70228
:10056000BC02C002800700C2FBF5EEE40000800779
:1005700000D0C0C7C3CECD00801300D1D2CECF00F3
:10058000800A00CED2CACBDED7C5CDCE801603C23C
:10059000CDC5D8CDC8CC801006D1C8C3CDC0CBCE78
:1005A000CC00FF92FFB6FF920F931F932F933F93C0
:1005B00000911601109193011F3F19F4003021F0B2
:1005C00029C0033009F426C00FEF009311010091F8
:1005D00014010F3F09F41EC0009123011091240162
:1005E00020910D0130910E01020F131F0E94EC06A5
:1005F00020E931E00217130710F4890107C024EC49
:1006000039E00217130710F009F089010093230164
:10061000109324013F912F911F910F91FF90FFBEE6
:10062000FF900895FF92FFB6FF926F927F928F9294
:100630009F92AF92BF92CF92DF920F931F932F930F
:100640003F9300911601109193011F3F19F4003060
:1006500021F051C0033009F44EC00FEF0093110197
:10066000E0911401EF3F71F580900D0190900E0123
:10067000880C991C880C991C880C991C880C991C56
:1006800060902501709026016818790888249924C3
:10069000A0900D01B0900E01CC24DD240E946C06C8
:1006A00080900D0190900E010E943E06850128E881
:1006B00033E1209302013093030120910D01309129
:1006C0000E0108C0009123011091240120910D0119
:1006D00030910E01021B130B0E94EC0620E931E061
:1006E0000217130717FD01C010F40027112700930C
:1006F0002301109324013F912F911F910F91DF90BF
:10070000CF90BF90AF909F908F907F906F90FF9011
:10071000FFBEFF900895FF92FFB6FF92EF93FF9305
:100720006F927F928F929F92AF92BF92CF92DF9201
:100730005E9B05C0AA24BB24CC24DD2407C06090A6
:1007400078007090790043010E943E066090170186
:10075000709018018090190190901A016A0C7B1C0E
:100760008C1C9D1C609217017092180180921901D7
:1007700090921A01E0911B01F0911C013196E093D7
:100780001B01F0931C01DF90CF90BF90AF909F9022
:100790008F907F906F90FF91EF91FF90FFBEFF9041
:1007A0001895FF92FFB6FF920F931F932F933F93DD
:1007B00000E000931D005E9A009181000F93087F76
:1007C00000938100209184003091850000270093E0
:1007D00085000093840010910301009102011093A1
:1007E0008900009388001091050100910401109385
:1007F0008B0000938A0001E003BD0F9100938100FC
:100800004F93FF93EF93DF93CF930F921F922F920B
:100810003F924F925F926F927F928F929F92AF9290
:10082000BF92CF92DF92EF92FF9200916900037026
:10083000023021F1033029F00BE0009369000C94A1
:1008400037050DEE00937A00009169000C7F02607D
:10085000009369002093060130930701009108017D
:1008600010910901201B310B3695221F3695221F4E
:1008700020930A0130930B010C9437050DE6009389
:100880007A00009169000C7F036000936900209357
:100890000801309309010091060110910701201B06
:1008A000310B3695221F3695221F20930A01309373
:1008B0000B016090170170901801809019019090C1
:1008C0001A01A0901B01B0901C01660C771C881CBB
:1008D000991C660C771C881C991CCC24DD240E9472
:1008E0006C06660C771C881C991C660C771C881C8F
:1008F000991CA301B40160921D0170921E018092A7
:100900001F01909220010E948606809225019092FC
:100910002601002700931701009318010093190185
:1009200000931A0100931B0100931C01F1E0E5E420
:10093000EF010027802E202E302E7A906A900FE053
:10094000002359F00A951A900A90600C711C821CC1
:10095000931C129202920C94A004E0E1F0E05F017B
:10096000CC24DD240E946C06609221017092220149
:1009700000911601003009F41CC0013009F407C0D1
:10098000023009F40DC0033009F40AC070C02D987C
:100990008824992483940FEF009311013CC067C011
:1009A0002D9A08E31AE448010FEF0093110133C0B8
:1009B0005EC02D9A609025017090260180902301E1
:1009C000909024016818790877FC03C00EEF60222C
:1009D00002C00EEF60228090020190900301860C0D
:1009E000971C97FE0AC001E010E048010FEF00934A
:1009F0001401009311010C940B0508E31AE480160E
:100A0000910630F048010FEF00931101009312019D
:100A10000027009314018092020190920301E0915B
:100A20002101F09122010091230110912401E01B8A
:100A3000F10B18F4E095F095319603E010E0E01723
:100A4000F10758F45F98009115010F70003009F01C
:100A50000EC00FE8009315010AC05F9A00911501BE
:100A60000F700F3009F003C000E800931501FF90EC
:100A7000EF90DF90CF90BF90AF909F908F907F903E
:100A80006F905F904F903F902F901F900F90CF915D
:100A9000DF91EF91FF914F913F912F911F910F9116
:100AA000FF90FFBEFF901895FF92FFB6FF920F9345
:100AB00000911601033009F42FC006B1037000FF46
:100AC0001FC001FD03C001FF0EC026C0009116012A
:100AD000013041F400E0009316010FEF0093110183
:100AE0000093130119C000911601003041F401E098
:100AF000009316010FEF00931101009313010CC036
:100B000003E0009316010FEF00931101009313010E
:100B100002E00093950100C00F91FF90FFBEFF908F
:100B200018955E9818955E9A0F9301E000931D004A
:100B30000F9118955E9A1895FF92FFB6FF92EF936A
:100B4000FF930F931F932F933F93E7E4F1E03091CE
:100B50004E01019111912191002311F00A9532C0AB
:100B600031600E94620709E0112311F01A952AC032
:100B7000326019E0222311F02A9524C0346029E064
:100B80000F931F9300911601033021F400E00093AE
:100B9000960116C006B11091960100FD1FEF139546
:100BA000153060F003E00093160102E00093950118
:100BB0000FEF009313010093110102C010939601EF
:100BC0001F910F9122931293029330934E010E9432
:100BD000F5050E9422063F912F911F910F91FF91E1
:100BE000EF91FF90FFBEFF90189509B10871109129
:100BF0000C01103021F4003011F510E820C008314C
:100C000061F0083021F413951A3F90F418C00031B8
:100C100019F41A95153020F012C0103881F040F008
:100C200000914D0100640F7D00934D01112707C015
:100C300000914D010F7B006200934D01112710932D
:100C40000C01089509B100721FEF012705FBA0E018
:100C5000B1E0C1E0D1E00E94CD090E94DB09109112
:100C60004D0100910101007E003A11F4106103C0B2
:100C7000003409F4186010934D010895FF92FFB6F7
:100C8000FF92FF920F921F92799C6001689C500125
:100C9000699CFF24B00CC11CDF1C789CFF24B00CA5
:100CA000C11CDF1C1F900F90FF90FF90FFBEFF90B4
:100CB0000895FF92FFB6FF92102F0F70107F1295CC
:100CC000005D0A3308F0095F105D1A3308F0195F00
:100CD000FF90FFBEFF9008950024112422243324A6
:100CE000F0E2660C771C881C991C001C111C221C4D
:100CF000331C0A141B042C043D0428F063940A18C6
:100D00001B082C083D08FA9561F708950F931F936F
:100D10002F933F934F935F936F937F93CC24DD2466
:100D2000EE2400E4F02E88249924AA24BB24840114
:100D300095010C291D292E293F29B694A794979433
:100D40008794401751076207730740F08C289D284D
:100D5000AE28BF28401B510B620B730BF694E7942F
:100D6000D794C794F694E794D794C7940C2D0D2983
:100D70000E290F29E1F67F916F915F914F913F917D
:100D80002F911F910F910895FF92FFB6FF920F933D
:100D90001F933F934F9330E1CC24BB24AA24FF2719
:100DA000000F111FAA1CBB1CCC1C3A9549F4000073
:100DB0004F913F911F910F91FF90FFBEFF900895BB
:100DC000EDE042914D5F43FD40834081405D47FD32
:100DD0004083EA30B1F7E4CF380188249924A09009
:100DE0000D01B0900E01CC24DD240E946C06809091
:100DF0000D0190900E010E943E06850108950207A4
:100E000002073207EEEED4D4BDBDB2B29E9E8D8DE8
:100E10007E7E767669695E5E58584F4F46463E3E06
:100E20003B3B00000000000000000000000000004C
:100E300000000000000000000000000000000000B2
:100E400000000000000000000000000000000000A2
:100E50000000000000000000000000000000000092
:100E600000000000464646464646464646460000C6
:100E70000000000000000000464646464646464642
:100E80004646000000000000000000003B3B3B3BEA
:100E90003B3B3B3B3B3B00000000000000000000F0
:100EA0000000000000000000000000000000000042
:100EB0000000000000000000000000000000000032
:100EC00000000000EF93FF930F931F930091950193
:100ED000002309F425C0EEEFFDE011270370E00FB9
:100EE000F11FE00FF11F05911491F801EE0FFF1FA4
:100EF0000091940110E0E00FF11F0395003608F017
:100F00000027009394010491002331F00093B30073
:100F100002E40093B0000BC002E00093B00007C0F1
:100F200002E00093B00000270093940100C01F91DD
:100F30000F91FF91EF9108950E9472090091930122
:100F40000E949A0900E80E949A090FEA0E949A09F1
:100F50000E94880908950F931F932F9310E0202F6C
:100F60000E9428080E947209009193010E949A0928
:100F700000E40E949A0914E800E00E949A091A9578
:100F8000D9F70E9488092F911F910F9108950F930F
:100F90001F932F9310E0202F0E9428080E947209AF
:100FA000009193010E949A0900E40E949A0910E8B6
:100FB0002F91022F0E949A091A95D9F70E94880949
:100FC0001F910F9108950E947209009193010E9450
:100FD0009A09000000E00E949A091AE1E2EFFFE09E
:100FE00005910E949A091A951123D1F70E94880948
:100FF0000895D580A83FD30040008D14A100C800FB
:10100000DA1281F0D922DB30A400A600AF000F93E2
:101010001F932F9328E014E82A951F9310E00E9455
:1010200028081F910E947209009193010E949A0959
:1010300000E40E949A0900E00E949A091A95D9F7E3
:101040000E948809222339F72F911F910F9108954B
:101050000F9310939101209392010E9472090091C5
:1010600093010E949A0900E00E949A09022F0770DA
:10107000006B0E949A09012F0F700E949A09012F9C
:1010800002950F7000610E949A090E9488090F91D1
:101090000895FF92FFB6FF92EF93FF930F931F9374
:1010A0000FEF0093100100912301109124010E9481
:1010B000C40600E20E94E4080B2D02950F70002385
:1010C00009F400EF10E3010F0E94E4080B2D002348
:1010D00011F400EF01C00F7010E3010F0E94E4084B
:1010E00010E30A2D02950F70010F0E94E4080EE232
:1010F0000E94E4080A2D0F70010F0E94E40800E22C
:101100000E94E4080027009310011F910F91FF91A6
:10111000EF91FF90FFBEFF900895FF92FFB6FF9200
:10112000EF93FF930F931F930FEF0093100116E0BF
:1011300023E00E94280800914B0110914C010E946D
:10114000C406E8E4FFE26F0111270B2D02950F7032
:10115000002309F404E116E9019F8001E00FF11F6B
:101160000E944309F60111270B2D002311F404E11D
:1011700001C00F7016E9019F8001E00FF11F0E946E
:101180004309F60111270A2D02950F7016E9019FF8
:101190008001E00FF11F0E944309F60111270A2D7B
:1011A0000F70065F16E9019F8001E00FF11F0E949A
:1011B000430900E0009310011F910F91FF91EF91FF
:1011C000FF90FFBEFF9008950F931F93EF93FF933F
:1011D000E8E9F8E2003C08F0005416E0019FE00D59
:1011E000F11D0E947209009193010E949A0900E486
:1011F0000E949A0916E005910E949A091A95D9F75A
:101200000E948809FF91EF911F910F9108950F930C
:101210001F932F93EF93FF93E8E9F6E1003C08F06A
:10122000005418E1019FE00DF11D109191012091F2
:1012300092011F932F9312E01F930E947209009155
:1012400093010E949A0900E40E949A091CE005910A
:101250000E949A091A95D9F70E9488091091910164
:101260002091920123950E9428081F911A9521F739
:101270002F911F91145F0E942808FF91EF912F91E9
:101280001F910F9108950F931F932F931091910128
:10129000209192011F932F9315E01F930E947209D2
:1012A000009193010E949A0900E40E949A091EE1AC
:1012B00005910E949A091A95D9F70E948809109100
:1012C00091012091920123950E9428081F911A955F
:1012D00021F72F911F91125E0E9428082F911F91D4
:1012E0000F910895FF92FFB6FF92F8942F9321E09B
:1012F0002150F0F7289A299A21E02150F0F72998F7
:1013000021E02150F0F72F91FF90FFBEFF9008954C
:10131000FF92FFB6FF92F8942F93289A21E0215074
:10132000F0F7299A21E02150F0F72F91FF90FFBEAE
:10133000FF900895FF92FFB6FF92F8941F932F93AA
:1013400018E0289821E02150F0F7001F10F4299AA6
:1013500001C0299821E02150F0F7289A21E021507E
:10136000F0F71A9571F72198289821E02150F0F7AD
:10137000289A21E02150F0F713B1002711FD0A95BA
:10138000000028982998219A21E02150F0F72F9108
:101390001F91FF90FFBEFF9008950C911FE02EF06B
:1013A0001A95011731F0039504C01195011709F042
:1013B0000A950C930895188117FB0C91002342F0B5
:1013C00056F416FD03C01F77106404C0112702C035
:1013D00016F010E818830895C1E0D1E021E01991DA
:1013E00017FB76F416FB66F0012F0F710F3141F0F9
:1013F0000395107E102B0A3008F010621A93199191
:101400002A9569F708950F931F93CF93DF93C1E057
:10141000D1E011E00FEF09931A95E9F7DF91CF9131
:101420001F910F910895FF92FFB6FF92EF93FF93E4
:101430001F930F9300914D0100FD42C0EFE4F1E0D6
:101440000091C600033509F412C0033711F403E517
:101450000EC00D3409F40BC00D3611F40DE407C0B5
:10146000043509F404C00D3009F425C005C000831B
:10147000002700938F0124C0003370F0093368F017
:1014800061F0013448F0063440F039F00052013484
:1014900018F0063410F009F013C010918F01139565
:1014A0001F3010F009F00CC010938F01E10F10E015
:1014B000F11F008305C000914D01016000934D01B3
:1014C0000F911F91FF91EF91FF90FFBEFF90189534
:1014D000FF92FFB6FF92EF93FF930F931F932F930B
:1014E000EFE4F1E010918F010191033509F407C099
:1014F0000D3409F431C0043509F43EC03FC0222741
:10150000133051F0123071F039C001910E94350B47
:1015100010F10295007F202F01910E94350BD8F029
:101520000F70202B01910E94350BA8F00295007FCF
:10153000102F01910E94350B70F00F70102B05ECED
:10154000101709E0200738F4209324011093230199
:101550000FEF0093110112C0113009F00FC001917B
:101560000E94350B40F0033008F008C000931601CC
:101570000FEF0093130102C0000000C0002700938A
:101580008F0100914D010E7F00934D012F911F910E
:101590000F91FF91EF91FF90FFBEFF900895189576
:1015A000FF92FFB6FF92EF93FF931F930F93EFE627
:1015B000F1E00091900110E0E00FF11F03950F7131
:1015C000003079F0009390010191003051F00093C8
:1015D000C6000F911F91FF91EF91FF90FFBEFF900A
:1015E000189508ED0093C100F4CFFF92FFB6FF926B
:1015F000AF93BF93CF93DF93EF93FF930F931F931B
:10160000AFE6B1E004E50D93C1E2D1E009810E94AB
:1016100059060D9308810E9459061D930D930B8165
:101620000E9459060D930A810E9459061D930D933D
:10163000C6E1D1E008810E9459060D930DE00D939B
:101640000AE00D9300E00D930093900108EF0093E2
:10165000C1001F910F91FF91EF91DF91CF91BF9149
:10166000AF91FF90FFBEFF900895003398F00A33CA
:1016700018F4005388940FC0013460F0073418F454
:101680000753889408C0013628F0073618F4075528
:10169000889401C008940895000000000000000034
:1016A000000000000000000000000000000000003A
:1016B00000000000000000E0180404020000000028
:1016C0000000000718202040020202020204041851
:1016D000E00000004040404040202018070000008B
:1016E00000000000000000E018C4F4F20000000058
:1016F0000000000718232F4FFAFAFAFAF2F4C41880
:10170000E00000005F5F5F5F4F2F231807000000BD
:101710000080C0C0B8FCFCFCB8C0C0800003070754
:10172000131B1F1B13070703000080C0E0F0FCF031
:10173000E0C0800000000307171B1F1B17070300F2
:1017400000000080C0E0E0C0800000000000000158
:101750000307070301000000FFFFFFFF7F3F3F7FFC
:10176000FFFFFFFFFFFFFFFFFEFCFCFEFFFFFFFF91
:1017700000F8F81818181818F8F80000001F1F18BB
:10178000181818181F1F0000FFFFFF3FDFEFEFDFE3
:101790003FFFFFFFFFFFFFFCFBF7F7FBFCFFFFFF37
:1017A00000C030100888483030C800000009060624
:1017B00009080804060100000000384482828244BF
:1017C00038000000000000000000000000000000E1
:1017D000000000000000FF0E7C3800000000000C3C
:1017E0001E1E0F000000000000F0F80C06060606A2
:1017F000060CF8F00033333F3E0000003E3F33015B
:101800000080C8F030181E1830F0C88000000907AA
:10181000060C3C0C06070900000000FCF8F0E0C0D4
:10182000800000000000001F0F07030100000000FF
:1018300000000080C0E0F0F8FC00000000000000A4
:101840000103070F1F00000000000010181CFE1C01
:1018500018100000000000040C1C3F1C0C040000C9
:101860000000303030FEFE3030300000000018182C
:10187000181919181818000000387CC682FEFE02DC
:10188000FEFE020000000000003F3F003F3F00005E
:101890000000DCFE22222222E6C40000000008191B
:1018A000111111111F0E00000000000000000000C7
:1018B0000000000000000038383838383838380068
:1018C0000000625151494600000000000000000085
:1018D000000000000000000000000010181CFE1CAA
:1018E000181000000000000000003F000000000091
:1018F000000000000000FE000000000000000004E6
:101900000C1C3F1C0C04000000008080808080F0D4
:10191000E0C080000000000000000007030100009C
:10192000000080C0E0F08080808080000000000126
:10193000030700000000000000000000000000009D
:1019400000000000003F2020202020202020200038
:101950000080C0E0F0808080F0E0C08000000103E3
:1019600007000000070301000000000080C0E0C085
:1019700080000000000406070707070707070604A2
:10198000002060E0E0E0E0E0E0E060200000000037
:101990000103070301000000000000000000000038
:1019A0000000000000000000000000000000000037
:1019B000000000007CFFFF7C000000000000000031
:1019C00000333300000000000000003C3C00003CFD
:1019D0003C000000000000000000000000000000CB
:1019E00000001090F07E1E90F07E1E1000021E1F60
:1019F00003021E1F03020000000078FCCCFFFFCC96
:101A0000CC8800000000040C0C3F3F0C0F070000C6
:101A100000003838380080C0E070381C0030381CB6
:101A20000E07030138383800000000B8FCC6E23E5B
:101A30001C00000000001F3F3121371E1C36220011
:101A400000000000273F1F00000000000000000011
:101A50000000000000000000000000F0FCFE070194
:101A600001000000000000030F1F382020000000CC
:101A7000000000010107FEFCF00000000000002053
:101A800020381F0F03000000000098B8E0F8F8E0CD
:101A9000B898000000000C0E030F0F030E0C00009E
:101AA0000000808080F0F080808000000000010154
:101AB000010F0F0101010000000000000000000004
:101AC0000000000000000000B8F8780000000000EE
:101AD0000000808080808080808000000000010104
:101AE00001010101010100000000000000000000F0
:101AF000000000000000000038383800000000003E
:101B0000000000000080C0E070381C0E00181C0EA1
:101B1000070301000000000000F8FE060383C36312
:101B2000331EFEF800071F1E3331303030181F07F8
:101B30000000000C0C0EFFFF000000000000003051
:101B400030303F3F30303000001C1E07030383C39A
:101B5000E3773E1C0030383C3E3733313030303094
:101B6000000C0E070303C3C3C3E77E3C000C1C3804
:101B70003030303030391F0E00C0E070381C0E0796
:101B8000FFFF000000030303030303033F3F0303BE
:101B9000003F7F636363636363E3C383000C1C38AC
:101BA0003030303030381F0F00C0F0F8DCCEC7C303
:101BB000C3C38000000F1F393030303030391F0F61
:101BC00000030303030303C3F33F0F0300000000FC
:101BD000303C0F03000000000000BCFEE7C3C3C39D
:101BE000E7FEBC00000F1F393030303030391F0F96
:101BF000003C7EE7C3C3C3C3C3E7FEFC0000003064
:101C00003030381C0E0703000000000070707000B8
:101C100000000000000000001C1C1C000000000070
:101C20000000000070707000000000000000000064
:101C30009CFC7C00000000000000C0E0F0381C0E9E
:101C4000070300000000000103070E1C38300000ED
:101C50000000606060606060606060000000060618
:101C60000606060606060600000003070E1C38F0EE
:101C7000E0C00000000030381C0E07030100000027
:101C8000001C1E070383C3E3773E1C000000000016
:101C9000003737000000000000F8FE07F3FB1BFBD5
:101CA000FB07FEF8000F1F183337363737360301AE
:101CB000000000E0FC1F1FFCE000000000383F07B0
:101CC00006060606073F380000FFFFC3C3C3C3E78D
:101CD000FEBC0000003F3F3030303030391F0F0075
:101CE00000F0FC0E07030303070E0C0000030F1C9B
:101CF00038303030381C0C0000FFFF0303030307AB
:101D00000EFCF000003F3F30303030381C0F030035
:101D100000FFFFC3C3C3C3C3C3030300003F3F307F
:101D2000303030303030300000FFFFC3C3C3C3C396
:101D3000C3030300003F3F0000000000000000005C
:101D400000F0FC0E0703C3C3C3C7C60000030F1C8B
:101D500038303030303F3F0000FFFFC0C0C0C0C04F
:101D6000C0FFFF00003F3F0000000000003F3F00B9
:101D70000000000303FFFF03030000000000003029
:101D8000303F3F3030000000000000000000000045
:101D900000FFFF00000E1E3830303030381F0700C3
:101DA00000FFFFC0E0F0381C0E070300003F3F00BB
:101DB0000103070E1C38300000FFFF000000000088
:101DC00000000000003F3F30303030303030300015
:101DD00000FFFF1E78E0E0781EFFFF00003F3F009D
:101DE00000010100003F3F0000FFFF0E38F0C0007F
:101DF00000FFFF00003F3F00000003071C3F3F00C3
:101E000000F0FC0E070303070EFCF00000030F1C9C
:101E1000383030381C0F030000FFFF838383838337
:101E2000C7FE7C00003F3F010101010101000000ED
:101E300000F0FC0E070303070EFCF00000030F1C6C
:101E40003830363E1C3F330000FFFF83838383839B
:101E5000C7FE7C00003F3F010103070F1D38300023
:101E6000003C7EE7C3C3C3C3C78E0C00000C1C3804
:101E700030303030391F0F000000030303FFFF0331
:101E80000303000000000000003F3F0000000000CE
:101E900000FFFF000000000000FFFF0000071F38E8
:101EA00030303030381F070000073FF8C00000C056
:101EB000F83F0700000000010F3E3E0F0100000048
:101EC00000FFFF000080800000FFFF00003F3F1C7C
:101ED000060303061C3F3F0000030F1C30E0E03008
:101EE0001C0F030000303C0E030101030E3C3000C8
:101EF00000030F3CF0C0C0F03C0F030000000000E6
:101F0000003F3F00000000000003030303C3E3336E
:101F10001F0F030000303C3E333130303030300092
:101F2000000000FFFF030303030000000000003F68
:101F30003F30303030000000000E1C3870E0C080B0
:101F4000000000000000000000000103070E1C1844
:101F500000000003030303FFFF0000000000003047
:101F60003030303F3F000000006070381C0E070E1C
:101F70001C3870600000000000000000000000003D
:101F800000000000000000000000000000C0C0C011
:101F9000C0C0C0C0C0C0C0C00000003E3F3900008B
:101FA0000000000000000000000000000000000031
:101FB000000040606060606060E0C000001C3E3374
:101FC00033333333333F3F0000FFFFC06060606056
:101FD000E0C08000003F3F3030303030381F0F000D
:101FE0000080C0E06060606060C08000000F1F384B
:101FF00030303030301808000080C0E0606060E0B1
:10200000C0FFFF00000F1F3830303030303F3F003E
:102010000080C0E06060606060C08000000F1F3B17
:10202000333333333313010000C0C0FCFEC7C3C3D6
:10203000030000000000003F3F000000000000001F
:102040000080C0E06060606060E0E0000003C7CE38
:10205000CCCCCCCCE67F3F0000FFFFC0606060E0EE
:10206000C0800000003F3F00000000003F3F000034
:102070000000000060ECEC000000000000000030F8
:10208000303F3F303000000000000000000060ECF6
:10209000EC00000000000060E0C0C0FF7F00000016
:1020A0000000FFFF0080C0E06000000000003F3F34
:1020B00003070F1C383000000000000003FFFF0082
:1020C0000000000000000030303F3F3030000000D2
:1020D00000E0C0E0E0C0C0E0E0C08000003F3F00A2
:1020E000003F3F00003F3F000000E0E060606060B4
:1020F000E0C0800000003F3F00000000003F3F00C4
:102100000080C0E060606060E0C08000000F1F38A9
:1021100030303030381F0F0000E0E06060606060F9
:10212000E0C0800000FFFF0C181818181C0F0700F3
:102130000080C0E06060606060E0E00000070F1CAD
:10214000181818180CFFFF000000E0E0C060606085
:1021500060E0C00000003F3F000000000000000001
:1021600000C0E06060606060400000000011333338
:102170003333333F1E000000006060FEFE6060608D
:10218000000000000000001F3F3030303000000031
:1021900000E0E0000000000000E0E000000F1F3859
:1021A00030303030183F3F000060E0800000000019
:1021B00080E06000000001071E38381E07010000A3
:1021C00000E0E00000E0E00000E0E00000071F3871
:1021D0001C0F0F1C381F07000060E0C0800080C08B
:1021E000E06000000030381D0F070F1D3830000080
:1021F000000060E080000080E060000000000081DE
:10220000E77E1E0701000000006060606060E0E0A3
:10221000602000000030383C363331303030000070
:10222000000080C0FC7E07030303000000000001E3
:102230001F3F7060606000000000000000FFFF00B2
:102240000000000000000000003F3F000000000010
:102250000000030303077EFCC080000000006060F4
:1022600060703F1F010000000010180C040C1810D3
:10227000180C040000000000000000000000000036
:10228000000080C060303060C0800000000F0F0C84
:102290000C0C0C0C0C0F0F0000F0FC0E07030303DA
:1022A00003FFFF00003F3F0303030303033F3F001F
:1022B00000FFFFC3C3C3C3C3C3830300003F3F305A
:1022C00030303030391F0F0000FFFFC3C3C3C3E7F6
:1022D000FEBC0000003F3F3030303030391F0F006F
:1022E00000FFFF030303030303030300003F3F005A
:1022F000000000000000000000F0FC0E07030303D4
:1023000003FFFF00F0FF3F3030303030303FFFF050
:1023100000FFFFC3C3C3C3C3C3030300003F3F3079
:1023200030303030303030000F3EF8E0C0FFFFC0BA
:10233000E0F81E073C1F0701003F3F0001071F3C5C
:10234000000C0E07C3C3C3C3C3E77E3C000C1C389C
:102350003030303030391F0E00FFFF0000C0F03841
:102360000EFFFF00003F3F1C07030000003F3F003F
:1023700000FFFF0000C6F3380EFFFF00003F3F1CC8
:1023800007030000003F3F0000FFFFC0E0F0381CE3
:102390000E070300003F3F000103070E1C3830000A
:1023A0000000000003FFFF0303FFFF0000183830A8
:1023B000381F0F00003F3F0000FFFF1E78E0E0786D
:1023C0001EFFFF00003F3F0000010100003F3F00F3
:1023D00000FFFFC0C0C0C0C0C0FFFF00003F3F0003
:1023E00000000000003F3F0000F0FC0E0703030761
:1023F0000EFCF00000030F1C383030381C0F0300B7
:1024000000FFFF030303030303FFFF00003F3F0040
:1024100000000000003F3F0000FFFF8383838383B1
:10242000C7FE7C00003F3F010101010101000000E7
:1024300000F0FC0E07030303070E0C0000030F1C43
:1024400038303030381C0C000000030303FFFF035A
:102450000303000000000000003F3F0000000000F8
:10246000007FFFC0C0C0C0C0C0FFFF0000183830F0
:1024700030303030381F070000F8FC0C0CFFFF0C28
:102480000CFCF80000030706063F3F0606070300A2
:1024900000030F1C30E0E0301C0F030000303C0E46
:1024A000030101030E3C300000FFFF0000000000AC
:1024B000FFFF0000003F3F30303030303FFFF00082
:1024C000007FFFC0C0C0C0C0C0FFFF000000000010
:1024D00000000000003F3F0000FFFF0000FFFF0082
:1024E00000FFFF00003F3F30303F3F30303F3F00B4
:1024F00000FFFF0000FFFF0000FFFF00003F3F3034
:10250000303F3F30303FFFF00F0F03FFFF60606050
:10251000E0C080000000003F3F303030381F0F0027
:1025200000FFFF6060E0C08000FFFF00003F3F3021
:1025300030381F0F003F3F0000FFFF6060606060A9
:10254000E0C08000003F3F3030303030381F0F0097
:10255000000C0E07C3C3C3C7CEFCF000000C1C3830
:10256000303030381C0F0300FFFFC0F0FC0E0703B3
:10257000070EFCF03F3F00030F1C3830381C0F03E0
:10258000007CFEC78383838383FFFF000030381DF8
:102590000F070301013F3F00000040606060606082
:1025A00060E0C000001C3E3333333333333F3F0021
:1025B00000F0F898D8D8D8D8D88C0000001F3F3148
:1025C00030303030391F0F000000E0E060606060A4
:1025D000E0C0000000003F3F323232323F1D0000B9
:1025E0000000E0E0606060606060000000003F3F6D
:1025F0000000000000000000000080C0606060601B
:10260000E0E0000000F0FF3F303030303FFFF000EE
:102610000080C0E06060606060C08000000F1F3B11
:10262000333333333313010060E0C08000E0E00057
:1026300080C0E06030381F07033F3F03071F38307A
:10264000000080C060606060C0800000000008186A
:10265000303232321F0D00000000E0E000000000C8
:1026600080E0E00000003F3F180C0603013F3F0000
:102670000000E0E00000180C80E0E00000003F3FB8
:10268000180C0603013F3F000000E0E00080C0E0BE
:102690006000000000003F3F03070F1C38300000BF
:1026A000000000000080E060E0E000000000203852
:1026B0001E0701003F3F000000E0E0E0C00000C056
:1026C000E0E0E000003F3F0001030301003F3F0066
:1026D0000000E0E00000000000E0E00000003F3FFC
:1026E00006060606063F3F000080C0E060606060AE
:1026F000E0C08000000F1F3830303030381F0F002E
:102700000000E0E06060606060E0E00000003F3FEB
:1027100000000000003F3F0000E0E060606060609B
:10272000E0C0800000FFFF0C181818181C0F0700ED
:102730000080C0E06060606060C08000000F1F38F3
:1027400030303030301808000000606060E0E06039
:102750006060000000000000003F3F00000000003B
:10276000000060E080000080E06000000000008168
:10277000E77E1E07010000000080C0C0C0E0E0C08E
:10278000C0C08000001F3F3030FFFF30303F1F00CF
:102790000060E0C0800080C0E06000000030381DB4
:1027A0000F070F1D383000000000E0E000000000BF
:1027B000E0E0000000003F3F303030303FFFF000ED
:1027C0000000E0E000000000E0E00000000003077F
:1027D000060606063F3F000000E0E00000E0E000E3
:1027E00000E0E000003F3F30303F3F30303F3F00EF
:1027F00000E0E00000E0E00000E0E000003F3F30EB
:10280000303F3F30303FFFF000E0E060E0E00000AC
:1028100000000000000000003F3F3333333F1E0044
:1028200000E0E0000000000000E0E000003F3F3377
:1028300033333F1E003F3F000000E0E00000000097
:102840000000000000003F3F333333333F1E0000E1
:102850000080C06060606060C080000000081830C8
:102860003033333B1F0F000000E0E00080C0E06029
:10287000E0C08000003F3F030F1F3830381F0F00BB
:102880000000C0E060606060E0E000000000313BFC
:102890001E0E06023F3F0000000000000000FFC3C4
:1028A000BDBDC3FFFFFFFB81FFFFFFBB9DADB3FFBE
:1028B000FFDDBDB5C9FF0030367F363000185C7EC5
:1028C0005C180000780808081818181818183E2214
:1028D00022223E00FFC3DBDBC3FF002C122A241A96
:1028E0000006090906000060703F0204005C6202F5
:1028F000625C002A1C361C2A00007F3E1C0800086F
:102900001C3E7F000014367F36140044445F44446C
:102910000006097F017F00224D555922006060604A
:1029200060000048645448000004067F060400105C
:10293000307F30100008083E1C0800081C3E0808C4
:1029400000784040404000081C081C0800303C3F14
:102950003C3000030F3F0F030000000000000000A8
:10296000065F060000070300070300247E247E2480
:1029700000242B6A12000063130864630036495672
:10298000205000000700000000003E410000000051
:10299000413E000000083E1C3E080008083E0808B2
:1029A0000000E060000000080808080800006060FF
:1029B0000000002010080402003E5149453E00007E
:1029C000427F400000625149494600224149493650
:1029D000001814127F10002F49494931003C4A4920
:1029E000493000017109050300364949493600069E
:1029F0004949291E00006C6C00000000EC6C0000CE
:102A00000008142241000024242424240000412230
:102A10001408000201590906003E415D551E007E62
:102A20001111117E007F49494936003E4141412242
:102A3000007F4141413E007F49494941007F0909EA
:102A40000901003E4149497A007F0808087F0000DB
:102A5000417F410000304040403F007F0814224148
:102A6000007F40404040007F0204027F007F02045C
:102A7000087F003E4141413E007F09090906003EB2
:102A80004151215E007F09091966002649494932F2
:102A90000001017F0101003F4040403F00071860F6
:102AA0001807003F403C403F0063140814630007D0
:102AB0000870080700714945430000007F4141004C
:102AC000000204081020000041417F0000040201C0
:102AD00002048080808080800000070600000020C3
:102AE00054545478007F44444438003844444428C3
:102AF00000384444447F00385454540800087E0988
:102B000009000018A4A4A47C007F0404780000003D
:102B1000007D4000004080847D00007F102844003C
:102B20000000007F4000007C04180478007C04044E
:102B3000780000384444443800FC444444380038A9
:102B4000444444FC0044784404080008545454208D
:102B500000043E442400003C40207C00001C204037
:102B6000201C003C6030603C006C10106C00009C2D
:102B7000A0603C00006454544C0000083E414100F9
:102B8000000077000000000041413E080002010201
:102B90000100003C2623263C007E1111117E007F9F
:102BA00049494931007F49494936007F0101010106
:102BB000C07E41417FC0007F494949410077087F7D
:102BC0000877224949493600007F2010087F007E9F
:102BD0002111097E007F0814224100407E01017FFF
:102BE000007F0204027F007F0808087F003E414109
:102BF000413E007F0101017F007F09090906003E77
:102C0000414141220001017F010100274848483F1E
:102C1000000E117F110E006314081463007F404002
:102C20007FC000070808087F007F407F407F007F4B
:102C3000407F40FF03017F484830007F4848307F95
:102C4000007F4848483000224149493E007F083E05
:102C5000413E00661909097F002054545478003C15
:102C60004A4A4A31007C54545428007C04040C0025
:102C7000C07844447CC0003854545408006C107C24
:102C8000106C002844545428007C2010087C007CE0
:102C900020120A7C007C10284400403804047C0088
:102CA000007C0810087C007C1010107C0038444424
:102CB0004438007C0404047C00FC4444443800385C
:102CC000444444280004047C0404009CA0603C00AC
:102CD0000018247C2418006C10106C00007C40400C
:102CE0007CC0000C1010107C007C407C407C007C80
:102CF000407C40FC0C047C505020007C5050207CD8
:102D0000007C50505020002844545438007C103827
:102D1000443800483414147CFF92FFB6FF920F939E
:102D20001F932F9300919901013009F407C00230DD
:102D300009F416C0033009F428C04DC000919A016F
:102D4000033010F009F047C010911601133009F458
:102D500042C0009316010091FF00009313013BC095
:102D600000919A0110919B0117FD35C024EC0217C8
:102D700029E0120711F008F02EC0009323011093F0
:102D800024010FEF0093110126C000919A011091C8
:102D90009B0117FD0FC024EC021729E0120711F068
:102DA00008F008C000932301109324010FEF009353
:102DB000110111C000919C01033008F00CC010916A
:102DC0001601133009F407C0009316010091FF00AB
:102DD0000093130100C02F911F910F91FF90FFBE30
:102DE000FF9008950F931F93EF93FF93E8E1FEE2A6
:102DF0000091B900087F0695069506951127E00F0A
:102E0000F11FE00FF11F05911491F8010995FF9151
:102E1000EF911F910F9118952C17A317A317A317C4
:102E2000A317A317A317A317A317A317A317A317D2
:102E30003017A317A317A3173D175417A317A317EA
:102E40006A177317A31788179F179F17A317A3173E
:102E5000A317A317A317A31705ED0093BC000895AC
:102E600000E00093990100910300013011F405E89E
:102E700001C005EC0093BC00089500271091990152
:102E8000EAE9F1E0E10FF01F0091BB000083139528
:102E90001093990103E00A95101711F405E801C099
:102EA00005EC0093BC000895002710919901EAE910
:102EB000F1E0E10FF01F0091BB0000831395109328
:102EC000990105EC0093BC0000914D010260009354
:102ED0004D01089505EC0093BC0000914D01026086
:102EE00000934D01089510E010939901EDE9F1E090
:102EF0000027E10FF01F00810093BB000091050047
:102F0000013011F405E801C005EC0093BC00089500
:102F1000002710919901139510939901EDE9F1E0C3
:102F2000E10FF01F00810093BB0005E00A95101728
:102F300011F405E801C005EC0093BC00089505EC10
:102F40000093BC00089508950000000080C0E0F0E8
:102F5000F0F8F8FCFCFCFCFCFCFCFCF8F8F0F0E001
:102F6000C080000000000000F8FEFFFFFFFFFF1F11
:102F7000070303010101010303071FFFFFFFFFFF19
:102F8000FEF800000000FFFFFFFFFFFFFF00000052
:102F9000000000000000000000FFFFFFFFFFFFFF38
:102FA000000000001F7FFFFFFFFFFFF8E0C0C080B0
:102FB000808080C0C0E0F8FFFFFFFFFF7F1F0000A0
:102FC000000000000103070F0F1F1F3F3F3F3F3F5F
:102FD0003F3F3F1F1F0F0F070301000000000000CD
:102FE000000000000000000080C0E0F0F8FCFCFCE5
:102FF000FCFC0000000000000000000000000000D9
:1030000000F0F8FCFEFF7F3F1FFFFFFFFFFFFFFF09
:103010000000000000000000000000000000000FA1
:1030200007030100000000FFFFFFFFFFFFFF00009C
:103030000000000000000000000000000000000090
:103040000000000000FFFFFFFFFFFFFF0000000087
:10305000000000000000000000003F3F3F3F3F3FF6
:103060003F3F3F3F3F3F3F3F3F3F3F3F3F3F3F3F70
:103070003F3F00000000000080C0E0F0F0F8F8FCE6
:10308000FCFCFCFCFCFCFCF8F8F0F0E0C08000006C
:1030900000000000181E1F1F1F1F1F1F0703030132
:1030A0000101010303079FFFFFFFFFFFFEF8000080
:1030B0000000000000000000000000000080C0E0F0
:1030C000F0F8FCFEFFFF7F3F1F0F0701000000002C
:1030D00000000080C0E0F0F8FCFEFFFFFFBF9F8F04
:1030E00087838180808080808080000000003C3E5B
:1030F0003F3F3F3F3F3F3F3F3F3F3F3F3F3F3F3FE0
:103100003F3F3F3F3F3F3F3F000000000000008047
:10311000C0E0F0F0F8F8FCFCFCFCFCFCF8F8F0F087
:10312000E0C0800000000000000000000E0F0F0F44
:103130000F0F0F07838381818383C7FFFFFFFFFF8B
:10314000FFFE000000000000000000000000000082
:1031500000001F1F1F1F1F3F3F7FFFFFFFFBF1E00E
:10316000C000000000001878F8F8F8F8F8F8E0C09F
:10317000C080808080C0C0E0F0FFFFFFFFFF7F1FA6
:103180000000000000000103070F0F1F1F3F3F3F1B
:103190003F3F3F3F3F1F1F0F0F070301000000008D
:1031A00000000000000000000000000080E0F8FCCB
:1031B000FCFCFCFC3C0C00000000000000000000D7
:1031C00000000000000080E0F8FEFFFFFFFF3F0F5F
:1031D00003000000000000000000000000000000EC
:1031E00080E0F8FEFFFFFFFF3F0F0300000000FE3E
:1031F000FEFEFEFEFEFE000000000000787E7F7FE7
:103200007F7F7F7F7F7F7F7F7F7F7F7F7FFFFFFF4E
:10321000FFFFFFFF7F7F00000000000000000000B4
:1032200000000000000000000000003F3F3F3F3F63
:103230003F3F00000000000000FCFCFCFCFCFCFC2C
:10324000FCFCFCFCFCFCFCFCFCFCFCFCFCFCFCFCBE
:10325000FC000000000000FFFFFFFFFFFFFFF0F099
:10326000F0F0F0F0F0F0E0E0E0C0C080000000001E
:10327000000000000001030707070707070707070B
:103280000707070F0F1F7FFFFFFFFFFEF8E000009B
:1032900000001878F8F8F8F8F8F8E0C0C0808080EE
:1032A00080C0C0E0F8FFFFFFFFFF7F1F00000000AD
:1032B00000000103070F0F1F1F3F3F3F3F3F3F3FEE
:1032C0003F1F1F0F0F070301000000000000000058
:1032D000000000000080E0F8FCFCFCFCFCFC7C1C16
:1032E000040000000000000000000000000000805A
:1032F000E0F8FEFFFFFFFFFFFFDFC7C1C0808000D7
:1033000000000000000000000000E0F8FEFFFFFFEA
:10331000FFFF7F3F3F1F1F1F1F3F3F7FFFFFFFFE3E
:10332000FCF8E080000000001F7FFFFFFFFFFFF9B7
:10333000E0C0C080808080C0C0E0F9FFFFFFFFFFD9
:103340007F1F0000000000000103070F0F1F1F3F39
:103350003F3F3F3F3F3F3F1F1F0F0F07030100004D
:1033600000000000FCFCFCFCFCFCFCFCFCFCFCFC8D
:10337000FCFCFCFCFCFCFCFCFCFCFCFCFCFC000085
:10338000000001010101010101010101010101012F
:103390000181E1F9FFFFFFFFFF3F0F030000000085
:1033A000000000000000000000000080E0F8FEFFC8
:1033B000FFFFFF3F0F0300000000000000000000BF
:1033C000000000000080E0F8FEFFFFFFFF3F0F035A
:1033D00000000000000000000000000000000000ED
:1033E00020383E3F3F3F3F3F0F03000000000000FA
:1033F00000000000000000000000000000C0E0F03D
:10340000F0F8F8FCFCFCFCFCFCFCFCF8F8F0F0E04C
:10341000C00000000000000000003FFFFFFFFFFFB2
:10342000C38181000000008181C3FFFFFFFFFF3FD8
:103430000000000000000080E0F0F9FFFFFFFF7FC8
:103440007F3F3F3F3F7F7FFFFFFFFFF9F0E08000BE
:10345000000000001E7FFFFFFFFFFFF3C080800021
:103460000000008080C0F3FFFFFFFFFF7F1E000011
:10347000000000000103070F0F1F1F3F3F3F3F3FAA
:103480003F3F3F1F1F0F0F07030100000000000018
:10349000000080C0E0F0F0F8F8FCFCFCFCFCFCFC58
:1034A000FCF8F8F0F0E0C080000000000000F8FE3A
:1034B000FFFFFFFFFF9F0703030101010103030754
:1034C0009FFFFFFFFFFFFEF80000000001071F3F06
:1034D0007FFFFFFFFEFCFCF8F8F8F8FCFCFEFFFFA6
:1034E000FFFFFF7F1F07000000000000000000003A
:1034F000000101030383E3FBFFFFFFFFFF7F1F07C3
:1035000001000000000000000000000000000000BA
:10351000303C3F3F3F3F3F3F1F070100000000009E
:10352000000000000000000000000000000000009B
:10353000000000000000000000000000000000008B
:10354000000000000000000000000000C0E0F0F8F3
:10355000F8FCFC7C7C7CFCFCF8F8F0E0C00000008F
:10356000000000000000000000FEFFFFFFFF03005E
:1035700000000000000003FFFFFFFFFE000000004E
:10358000000000000000003FFFFFFFFFE080800020
:1035900000008080E0FFFFFFFF7F000000000E1FA3
:1035A0001F1F0E0000000103070F0F1F1F1F1F1F0B
:1035B0001F1F1F0F0F070300000000000000000086
:1035C00000000000000000000000000000000000FB
:1035D00000000000000000000000000000000000EB
:1035E000000000000080C0E0F0F8FCFCFC000000DF
:1035F000000000000000000000000000000000F8D3
:10360000FCFE7F3F1F0FFFFFFFFFFF0000000000D9
:1036100000000000000000000000000000010100A8
:1036200000000000FFFFFFFFFF000000000000009F
:10363000000000000E1F1F1F0E0000001F1F1F1F95
:103640001F1F1F1F1F1F1F1F1F1F1F1F1F000000E7
:10365000000000000000000000000000000000006A
:10366000000000000000000000000000000000005A
:103670000000000000000080C0F0F8F8FCFC7C7C3A
:103680007C7CFCFCF8F8F0E080000000000000000A
:10369000000000000007070707070100000080C0C6
:1036A000E0F1FFFFFF7F1F000000000000000000AE
:1036B0000000000080C0E0F0F8FCFE7F3F1F0F0715
:1036C000030100000000000000000E1F1F1F0E007D
:1036D000001F1F1F1F1F1F1F1F1F1F1F1F1F1F1F19
:1036E0001F1F1F000000000000000000000000007D
:1036F00000000000000000000000000000000000CA
:103700000000000000000000000000000000C0F009
:10371000F8F8FCFCFC7C7C7CFCFCFCF8F8F0E0009D
:103720000000000000000000000000000101010195
:103730000101F0F0F0F0F8FDFFFFFFFFCF00000007
:10374000000000000000000000F0F0F0F0F0C08089
:10375000010101010183C7FFFFFFFFFF000000001F
:103760000E1F1F1F0E00000001070F0F1F1F1F1F3E
:103770001F1F1F1F1F0F0F07030000000000000086
:103780000000000000000000000000000000000039
:103790000000000000000000000000000000000029
:1037A000000000000000000000C0F0FCFCFCFC3C3D
:1037B0000000000000000000000000000000000009
:1037C000000000C0F0FCFFFFFF3F0F0300E0E0E05F
:1037D000E0E0000000000000000000000000007CAD
:1037E0007F7F7F7F7F7F7C7C7C7C7CFFFFFFFFFF78
:1037F0007C7C000000000E1F1F1F0E000000000058
:103800000000000000000000001F1F1F1F1F00001D
:1038100000000000000000000000000000000000A8
:103820000000000000000000000000000000000098
:10383000000000000000000000FCFCFCFCFC7C7CA4
:103840007C7C7C7C7C7C7C7C7C7C7C000000000024
:10385000000000000000001F3F7F7F7F7C7C7C7C9D
:103860007C7CFCFCFCF8F8F0E0C0000000000000EC
:103870000000000000F0F0F0F0F0C0800000000058
:103880008080C1FFFFFFFFFF000000000E1F1F1F11
:103890000E00000001070F0F1F1F1F1F1F1F1F1FFC
:1038A0001F0F0F07030000000000000000000000D1
:1038B0000000000000000000000000000000000008
:1038C00000000000000000000000000000000000F8
:1038D0000000000080E0F8FCFCFC3C0C0000000054
:1038E000000000000000000000000000000080E078
:1038F000F8FEFFFFFFFFF3F0F0F0F0E0E0C00000A3
:1039000000000000000000000000007EFFFFFFFF3D
:10391000C783010101010183C7FFFFFFFF7C000096
:1039200000000E1F1F1F0E00000001070F0F1F1FBA
:103930001F1F1F1F1F1F1F0F0F0701000000000088
:103940000000000000000000000000000000000077
:103950000000000000000000000000000000000067
:1039600000000000007C7C7C7C7C7C7C7C7C7C7C03
:103970007C7CFCFCFCFCFCFC000000000000000067
:1039800000000000000000000000000080E0F8FEE1
:10399000FFFF3F0F030000000000000000000000D8
:1039A00000000000000080E0F8FEFFFF3F0F030072
:1039B00000000000000000000E1F1F1F0E0000008E
:1039C0000000181E1F1F1F0F030000000000000052
:1039D00000000000000000000000000000000000E7
:1039E00000000000000000000000000000000000D7
:1039F00000000000000000000000000000C0E0F82F
:103A0000F8FCFC7C7C7CFCFCF8F8E0C000000000CA
:103A10000000000000000000000080C7FFFFFFFF63
:103A2000FCF8F8F8FCFFFFFFFFC780000000000073
:103A300000000000000000FEFFFFFFFFC381000048
:103A400000000081C3FFFFFFFFFE000000000E1F0B
:103A50001F1F0E00000001070F0F1F1F1F1F1F1F3A
:103A60001F1F1F0F0F0703000000000000000000D1
:103A70000000000000000000000000000000000046
:103A80000000000000000000000000000000000036
:103A900000C0F0F8F8FCFCFC7C7C7C7CFCFCFCF8B6
:103AA000F8F0C000000000000000000000001F7FD0
:103AB000FFFFFFFFF1E0C0C0C0C0E0F1FFFFFFFF6C
:103AC000FF3F0000000000000000000000000103B4
:103AD0000307070787E7FFFFFFFFFF3F0F03000014
:103AE000000000000E1F1F1F0E000000000000005D
:103AF000181E1F1F1F1F0F03000000000000000002
:103B000000000000000000000000000000000000B5
:103B100000000000000000000000000000000000A5
:103B20000000000000000000000000000000000095
:103B30000000000000000000000000000000000085
:103B40000000000000000000000000000000000075
:103B50000000000000000000000000000000000065
:103B60000000000000000000000000000000000055
:103B70000000000000000000000000000000000045
:103B80000000000000000000000000000000000035
:103B9000000000000000FF92FFB6FF920F93EF932A
:103BA000FF9391D000EC9BD0E0EAFCE36F01009121
:103BB0004C01007F0295E00F00E0F01F04910E948D
:103BC0006F1EF60100914C010F70E00F00E0F01F36
:103BD00004910E946F1EF60100914B01007F029537
:103BE000E00F00E0F01F04910E946F1EF6010091AB
:103BF0004B010F70E00F00E0F01F04910E946F1E58
:103C000069D0FF91EF910F91FF90FFBEFF90089553
:103C1000FF92FFB6FF920F931F93EF93FF9353D042
:103C200000EC5DD000914B0110914C010E94C40644
:103C3000E0EAFCE36F0111270B2D02950F700023C2
:103C400009F40FE0E00FF11F04910E946F1EF601CE
:103C500011270B2D002309F40FEF0F70E00FF11F58
:103C600004910E946F1EF60111270A2D02950F7014
:103C7000E00FF11F049100680E946F1EF6011127EA
:103C80000A2D0F70E00FF11F04910E946F1E22D0C9
:103C9000FF91EF911F910F91FF90FFBEFF9008954C
:103CA0003F065B4F666D7D077F6F00005C7971009A
:103CB0000AD00AE814D00ED02FD005D000E40FD0DF
:103CC00009D02AD0089528D0289A299A25D0299851
:103CD00023D00895289A20D0299A1ED008951F93A2
:103CE00018E0289819D0069510F4299A01C029984F
:103CF00013D0289A11D01A95A1F7219828980CD0A2
:103D000013B1E89411FD6894289A06D02898299850
:103D1000219A02D01F9108950F930FE00150F1F7FF
:103D20000F910895089500911001002309F0BAC081
:103D3000009193010F3F09F038C000911101002359
:103D400091F100270093110100911601003081F0DC
:103D5000013091F0023031F0033039F024C00027F7
:103D6000112713C00EEE1CEA17C00EEE1CED14C096
:103D700000911401002329F00091210110912201EA
:103D800004C0009123011091240100934B01109372
:103D90004C010E94081E07C000934B0110934C0178
:103DA0000E94CB1D00C000007DC0009111010023C6
:103DB00009F42BC000270093110100911601023075
:103DC00051F0033009F00AC00027112700934B017E
:103DD00010934C011AC00027112711C00091140143
:103DE000002329F0009121011091220108C00091C7
:103DF00016010130B9F300912301109124010093C1
:103E00004B0110934C010E948D0800911301002377
:103E100009F416C000270093130100E00E94AB07CD
:103E200001E00E94AB0702E020E10E94C707009179
:103E300016010370033011F40E9407080E949402D7
:103E400000911601013019F0023009F006C00E94FD
:103E50007A0200270093120125C000911601002369
:103E600009F020C00091150107FD01C01BC00F70B3
:103E700000931501002309F00BC018E620E00E9412
:103E8000280801E00E94070902E00E9407090AC011
:103E900018E620E00E94280803E00E94070904E0D9
:103EA0000E940709089500911601002359F000E0CF
:103EB0000093970100911601033019F000E0009380
:103EC00095012CC000919501002309F41AC00091BE
:103ED0001401002309F00BC000919701043109F08F
:103EE0000AC000E0009395010093970117C000E01D
:103EF0000093970113C000919701039500939701D8
:103F00000DC000911401002391F300919701043139
:0E3F100009F0F1CF01E000939501E9CF08958B
:00000001FF
