:020000020000FC
:0A0000000C9433000C946113189562
:02000C00189545
:02001000189541
:060014000C942403189572
:02001C00189535
:02002000189531
:0200240018952D
:02002800189529
:10002C000C9469020C946B020C9472020C947B027B
:02003C00189515
:02004000189511
:0200440018950D
:100048000C94BD030C947E040C947D040C941B1337
:020058001895F9
:02005C001895F5
:100060000C947718189505B70160102F0D7F15BFF8
:1000700005BFE0E0F1E000270193F530E9F7E0305B
:10008000D9F70293EDBFFEBFEEE1FF27EA95F083BB
:10009000E9F700E007B90FE308B902EC0AB90AEF83
:1000A0000BB90BE204B90CEF05B903E000936C0047
:1000B00000E0009368000CE00093B80002E30093B6
:1000C000BA0005E40093BC0009E10093C40000E01D
:1000D0000093C50008ED0093C10006E00093C20044
:1000E00008E100936D0004E00093680002E00093D3
:1000F000B00003E00093B1000CE70093B30000E010
:1001000000937000B6E4A0E5A0930B01B0930C013E
:10011000B0938900A0938800B6E4A0E5A0930D01F8
:10012000B0930E01B0938B00A0938A0000E000937F
:10013000800007E000936F0002E00093810009EF68
:1001400007BD08BD02E004BD03E000936E0003E0BC
:1001500005BD0AE00093690001E00DBB00E00093DB
:100160007B0007E000937C000DEE00937A00CAEF5D
:10017000D0E00E9419010E945C170E94791026F0BD
:100180000FEF0093A2012CC00E945C170E9465171C
:100190000AE70E94AA170E948F1726F00AE7009329
:1001A000A20112C00E945C170E94651708E70E9416
:1001B000AA170E948F1726F008E70093A20104C037
:1001C0000EEF0093A2010CC00E9429110E944E1153
:1001D0000E94DA10CCE2D1E0C0932E01D0932F011F
:1001E00009B105FD0C94F800B4E0A0EB0C94FA0002
:1001F000AA27BB27A0932C01B0932D0109E80E94E8
:100200001D16B0E0A5E0A0931A01B0931B01009168
:10021000A2010F3F21F0E5EDF7E10E948F157894E0
:100220000E94AD0309E80E941D160C942401C8EE3B
:10023000D3E0EF93FF93E0E4FFE13197F1F72197EB
:10024000D1F7FF91EF9108950091560100FF07C08B
:100250000E7F009356010F930E940F040F9101FF30
:1002600007C00D7F009356010F930E9414180F9141
:1002700003FF09C0077F009356010F930E94AD034F
:100280000E94CB010F9104FF09C00F7E009356011D
:100290000F930E94AD030E94F1010F9105FF23C04F
:1002A0000F7D009356010F9300911701003059F014
:1002B000CF93DF93C2E3D0E0C0931A01D0931B0128
:1002C000DF91CF910AC0CF93DF93C5E0D0E0C09318
:1002D0001A01D0931B01DF91CF9102E00093170127
:1002E0000E94FC040F9106FF23C00F7B0093560170
:1002F0000F9300911701003059F0CF93DF93C2E3C1
:10030000D0E0C0931A01D0931B01DF91CF910AC0B6
:10031000CF93DF93C5E0D0E0C0931A01D0931B01C7
:10032000DF91CF9102E0009317010E943F050F91EA
:100330000091570100FF08C00E7F009357010F93F3
:100340000E94A3040F9125C001FF0AC00D7F0093F6
:1003500057010F930E9410020E94D1050F9119C0FE
:1003600002FF0DC00B7F009357010F9300911701FF
:10037000003009F00A95009317010F910AC003FF9E
:1003800008C0077F009357010F930E945B030F91F2
:1003900000C00C942401FF92FFB6FF920F930091CE
:1003A0001F01003021F402E00E94B90215C00130A3
:1003B00039F400E00E94B90209E80E941D160CC041
:1003C000023039F400E00E94B90209E80E941D16CB
:1003D00003C0033009F400C00F91FF90FFBEFF90EF
:1003E0000895FF92FFB6FF920F9300911F01003016
:1003F00021F401E00E94B9020EC0023019F401E0BC
:100400000E94B902033039F400E00E94B90209E801
:100410000E941D1600C00F91FF90FFBEFF9008952F
:10042000FF92FFB6FF92CF93DF93EF93FF930F936B
:100430001F932F930E9496030E948A0F00915001F0
:10044000023009F038C000270F9300912C0100936F
:10045000040100912D010093050100912A010093F0
:10046000060100912B010093070100911F010F70FD
:1004700010911E011071012B10911D011072012BA2
:10048000009308010AE80E941D1600911F01002335
:1004900089F400911D01002339F009E80E94E2155A
:1004A0000AE80E94F61506C009E80E94F6150AE857
:1004B0000E94E2150F910395009350012F911F9117
:1004C0000F91FF91EF91DF91CF91FF90FFBEFF90D1
:1004D00008955E9818955E9A0F9301E000931D00B1
:1004E0000F9118955E9A0F9300911D000160009383
:1004F0001D000F9118950F930FB70F9300911401E2
:10050000002319F40FEF009314011F93109157016A
:1005100000915201093029F00395009352011860AF
:1005200021C000270093520100915301093029F0A6
:10053000039500935301146015C0002700935301E5
:1005400000915401093029F0039500935401126081
:1005500009C00027009354010091550103950093B1
:1005600055011160109357011F910F910FBF0F910B
:1005700018950F93002700931D010F91003009F487
:100580000AC0013009F41DC0023009F430C0033044
:1005900009F443C058C000931F01CCE2D1E0C093DE
:1005A0002E01D0932F012D9A0091A201002341F03A
:1005B0000F3F31F00E944E11E5EDF7E10E948F15DB
:1005C00042C000931F01CAE2D1E0C0932E01D09334
:1005D0002F012D980091A201002341F00F3F31F02F
:1005E0000E944E11E4EEF7E10E948F152CC000939B
:1005F0001F01CAE2D1E0C0932E01D0932F012D9AA2
:100600000091A201002341F00F3F31F00E944E11F2
:10061000E3EFF7E10E948F1516C000931F01CAE2B5
:10062000D1E0C0932E01D0932F012D9A0091A20109
:10063000002341F00F3F31F00E944E11E1E0F8E15C
:100640000E948F1500C008950F931F93FF92FFB66D
:10065000FF9209B1087110911301103021F400309C
:1006600011F510E820C0083161F0083021F413952D
:100670001A3F90F418C0003119F41A95153020F083
:1006800012C0103881F040F00091560100640F7DD7
:1006900000935601112707C0009156010F7B00629D
:1006A00000935601112710931301FF90FFBEFF9096
:1006B0001F910F91189509B100721FEF012705FBDB
:1006C000A9E0B1E0CAE0D1E00E9477030E9485036F
:1006D0001091560100910A01007E003A11F4106158
:1006E00003C0003409F418601093560108950C916A
:1006F0001FE22EF01A95011731F0039504C01195F1
:10070000011709F00A950C930895188117FB0C91B5
:10071000002342F056F416FD03C01F77106404C096
:10072000112702C016F010E818830895CAE0D1E03E
:1007300021E0199117FB76F416FB66F0012F0F717B
:100740000F3141F00395107E102B0A3008F0106233
:100750001A9319912A9569F708950F931F93CF93D0
:10076000DF93CAE0D1E011E00FEF09931A95E9F7A2
:10077000DF91CF911F910F910895FF92FFB6FF92E5
:10078000EF93FF931F930F930091560100FD3FC01D
:10079000E8E5F1E00091C6000D3009F431C00734FE
:1007A00008F40CC00A3558F051F0013608F42FC097
:1007B0000A3710F009F02BC00052F1CF06C000C07C
:1007C000008300270093980122C0003350F00933C2
:1007D00048F041F0013428F0063420F019F00052BE
:1007E000F9CF15C01091980113951F3010F009F042
:1007F0000EC010939801E10F10E0F11F008307C0B5
:10080000009156010160009356010E940F040F9160
:100810001F91FF91EF91FF90FFBEFF901895FF92FF
:10082000FFB6FF92EF93FF930F931F932F93E8E58B
:10083000F1E0109198010191033509F407C00D34DE
:1008400009F435C0043509F445C046C022271430E8
:1008500039F0133061F0123081F01130A9F03CC052
:1008600001910E94E50410F10295007F202F019173
:100870000E94E504D8F00F70202B01910E94E5043E
:10088000A8F00295007F102F01910E94E50470F0FE
:100890000F70102B05EC101709E0200738F4209397
:1008A0002D0110932C0109E80E941D1615C011306E
:1008B00009F012C000911F01033059F001910E940C
:1008C000E50438F0033008F007C000931F010E94D0
:1008D000B90202C0000000C00027009398010091F7
:1008E00056010E7F009356012F911F910F91FF919A
:1008F000EF91FF90FFBEFF9008951895FF92FFB60D
:10090000FF92EF93FF931F930F93E8E7F1E00091BD
:10091000990110E0E00FF11F03950F71003079F09D
:10092000009399010191003051F00093C6000F919E
:100930001F91FF91EF91FF90FFBEFF90189508ED7A
:100940000093C100F4CFFF92FFB6FF92AF93BF9325
:10095000CF93DF93EF93FF930F931F93A8E7B1E03B
:1009600004E50D93CAE2D1E009810E94B3110D9311
:1009700008810E94B3111D930D93CCE2D1E009814F
:100980000E94B3110D9308810E94B3111D930D9322
:10099000CFE1D1E008810E94B3110D930DE00D93DA
:1009A0000AE00D9300E00D930093990108EF009386
:1009B000C1001F910F91FF91EF91DF91CF91BF91F6
:1009C000AF91FF90FFBEFF900895003398F00A3377
:1009D00018F4005388940FC0013460F0073418F401
:1009E0000753889408C0013628F0073618F40755D5
:1009F000889401C008940895FF92FFB6FF920F9368
:100A00001F932F933F9300911F011091A2011F3F4D
:100A100019F0103029F002C0003011F4033009F44D
:100A200026C000911D010F3F09F421C000912C0147
:100A300010912D0120911A0130911B01020F131FFB
:100A40000E94BE0520E931E00217130710F4890166
:100A500007C024EC39E00217130710F009F08901F0
:100A600000932C0110932D0109E80E941D163F915F
:100A70002F911F910F91FF90FFBEFF900895FF925D
:100A8000FFB6FF926F927F928F929F92AF92BF922A
:100A9000CF92DF920F931F932F933F9300911F01EB
:100AA0001091A2011F3F19F0103029F002C0003050
:100AB00011F4033009F452C0E0911D01EF3F91F5AC
:100AC00000911F01003071F580901A0190901B0178
:100AD000880C991C880C991C880C991C880C991CF2
:100AE0006090300170903101681879088824992449
:100AF000A0901A01B0901B01CC24DD240E94C611E5
:100B000080901A0190901B010E949811850128E89D
:100B100033E120930B0130930C0120911A013091A5
:100B20001B0108C000912C0110912D0120911A0188
:100B300030911B01021B130B0E94BE0520E931E01E
:100B40000217130717FD01C010F4002711270093A7
:100B50002C0110932D0109E80E941D163F912F9141
:100B60001F910F91DF90CF90BF90AF909F908F908B
:100B70007F906F90FF90FFBEFF900895380188240A
:100B80009924A0901A01B0901B01CC24DD240E946E
:100B9000C61180901A0190901B010E949811850146
:100BA0000895FF92FFB6FF920F931F9300911F01CC
:100BB000033009F444C006B1037000FF2EC010E0FA
:100BC0001093A401027010911801011721F411274C
:100BD0001093190134C0109119011A3020F41395A3
:100BE000109319012CC000931801112710931901BB
:100BF00001FD03C001FF09C022C000911F010130A7
:100C000019F400E00E94B9021AC000911F010030DF
:100C100019F401E00E94B90212C010911F011330B3
:100C200011F400E005C00091A4010A3020F40395FE
:100C30000093A40104C003E00E94B90200C01F9108
:100C40000F91FF90FFBEFF9008952806AC092A0976
:100C5000C0FF0C0200F0FC0E0703030303FFFF00BC
:100C6000003F3F0303030303033F3F0000FFFFC3B5
:100C7000C3C3C3C3C3830300003F3F3030303030B1
:100C8000391F0F0000FFFFC3C3C3C3E7FEBC000052
:100C9000003F3F3030303030391F0F0000FFFF037E
:100CA0000303030303030300003F3F0000000000B1
:100CB0000000000000F0FC0E0703030303FFFF0029
:100CC000F0FF3F3030303030303FFFF000FFFFC3E7
:100CD000C3C3C3C3C3030300003F3F3030303030D1
:100CE000303030000F3EF8E0C0FFFFC0E0F81E07D4
:100CF0003C1F0701003F3F0001071F3C000C0E078F
:100D0000C3C3C3C3C3E77E3C000C1C383030303053
:100D100030391F0E00FFFF0000C0F0380EFFFF004B
:100D2000003F3F1C07030000003F3F0000FFFF00A3
:100D300000C6F3380EFFFF00003F3F1C0703000012
:100D4000003F3F0000FFFFC0E0F0381C0E0703002B
:100D5000003F3F000103070E1C3830000000000078
:100D600003FFFF0303FFFF0000183830381F0F0098
:100D7000003F3F0000FFFF1E78E0E0781EFFFF000D
:100D8000003F3F0000010100003F3F0000FFFFC0A7
:100D9000C0C0C0C0C0FFFF00003F3F000000000017
:100DA000003F3F0000F0FC0E070303070EFCF000BD
:100DB00000030F1C383030381C0F030000FFFF0306
:100DC0000303030303FFFF00003F3F000000000098
:100DD000003F3F0000FFFF8383838383C7FE7C00C7
:100DE000003F3F01010101010100000000F0FC0E85
:100DF00007030303070E0C0000030F1C38303030CC
:100E0000381C0C000000030303FFFF030303000072
:100E100000000000003F3F0000000000007FFFC016
:100E2000C0C0C0C0C0FFFF000018383030303030C4
:100E3000381F070000F8FC0C0CFFFF0C0CFCF8003E
:100E400000030706063F3F060607030000030F1CCA
:100E500030E0E0301C0F030000303C0E03010103C2
:100E60000E3C300000FFFF0000000000FFFF00000C
:100E7000003F3F30303030303FFFF000007FFFC098
:100E8000C0C0C0C0C0FFFF000000000000000000A4
:100E9000003F3F0000FFFF0000FFFF0000FFFF00DA
:100EA000003F3F30303F3F30303F3F0000FFFF000A
:100EB00000FFFF0000FFFF00003F3F30303F3F30AA
:100EC000303FFFF00F0F03FFFF606060E0C0800065
:100ED0000000003F3F303030381F0F0000FFFF6040
:100EE00060E0C08000FFFF00003F3F3030381F0F40
:100EF000003F3F0000FFFF6060606060E0C0800076
:100F0000003F3F3030303030381F0F00000C0E07EC
:100F1000C3C3C3C7CEFCF000000C1C3830303038DF
:100F20001C0F0300FFFFC0F0FC0E0703070EFCF0D0
:100F30003F3F00030F1C3830381C0F03007CFEC7F6
:100F40008383838383FFFF000030381D0F07030175
:100F5000013F3F00000040606060606060E0C000F2
:100F6000001C3E3333333333333F3F0000F0F898F7
:100F7000D8D8D8D8D88C0000001F3F31303030305E
:100F8000391F0F000000E0E060606060E0C000001A
:100F900000003F3F323232323F1D00000000E0E0EF
:100FA000606060606060000000003F3F0000000083
:100FB00000000000000080C060606060E0E00000B1
:100FC00000F0FF3F303030303FFFF0000080C0E0E5
:100FD0006060606060C08000000F1F3B33333333BC
:100FE0003313010060E0C08000E0E00080C0E060FA
:100FF00030381F07033F3F03071F3830000080C011
:1010000060606060C080000000000818303232323A
:101010001F0D00000000E0E00000000080E0E000A4
:1010200000003F3F180C0603013F3F000000E0E0D6
:101030000000180C80E0E00000003F3F180C0603A1
:10104000013F3F000000E0E00080C0E060000000E1
:1010500000003F3F03070F1C383000000000000075
:101060000080E060E0E00000000020381E07010082
:101070003F3F000000E0E0E0C00000C0E0E0E00032
:10108000003F3F0001030301003F3F000000E0E09C
:101090000000000000E0E00000003F3F06060606FA
:1010A000063F3F000080C0E060606060E0C08000FC
:1010B000000F1F3830303030381F0F000000E0E0E4
:1010C0006060606060E0E00000003F3F0000000002
:1010D000003F3F0000E0E06060606060E0C08000D2
:1010E00000FFFF0C181818181C0F07000080C0E044
:1010F0006060606060C08000000F1F3830303030AA
:10110000301808000000606060E0E060606000008F
:1011100000000000003F3F0000000000000060E011
:1011200080000080E060000000000081E77E1E0774
:10113000010000000080C0C0C0E0E0C0C0C080006E
:10114000001F3F3030FFFF30303F1F000060E0C025
:10115000800080C0E06000000030381D0F070F1DC8
:10116000383000000000E0E000000000E0E0000097
:1011700000003F3F303030303FFFF0000000E0E043
:1011800000000000E0E0000000000307060606067D
:101190003F3F000000E0E00000E0E00000E0E00091
:1011A000003F3F30303F3F30303F3F0000E0E00045
:1011B00000E0E00000E0E000003F3F30303F3F3023
:1011C000303FFFF000E0E060E0E0000000000000E1
:1011D000000000003F3F3333333F1E0000E0E000DB
:1011E0000000000000E0E000003F3F3333333F1ECB
:1011F000003F3F000000E0E00000000000000000B1
:1012000000003F3F333333333F1E00000080C06097
:1012100060606060C0800000000818303033333BED
:101220001F0F000000E0E00080C0E060E0C0800030
:10123000003F3F030F1F3830381F0F000000C0E091
:1012400060606060E0E000000000313B1E0E0602BE
:101250003F3F00002E3D080200000000000018186B
:10126000001818000000000000000000000000004E
:10127000000000000000000000E0F0180818F0E096
:1012800000070F1810180F0700406030F8F8000032
:10129000001010101F1F1010003038080888F87058
:1012A00000181C16131118180030388888C87830B8
:1012B000000C1C1010111F0E0000C0F07818808068
:1012C0000007070504041F1F00F8F88888888808AD
:1012D000000C1C1010101F0F00F0F8888888981060
:1012E000000F1F1010101F0F0008080888E878185A
:1012F0000000181E070100000070F8888888F87048
:10130000000F1F1010101F0F00F0F8080808F8F069
:101310000008191111111F0F0000000080800080CB
:10132000000000000101000180008080000000003A
:101330000100010100000000008080C0C0E0F8FE54
:101340000001010303071F7FFEF8E0C0C08080009A
:101350007F1F07030301010030431E05000000004A
:1013600080C0E0F0F0F8F8FCFCFCFCFCFCFCFCF8B5
:10137000F8F0F0E0C080000000000000F8FEFFFF81
:10138000FFFFFF1F070303010101010303071FFF05
:10139000FFFFFFFFFEF800000000FFFFFFFFFFFF61
:1013A000FF000000000000000000000000FFFFFF41
:1013B000FFFFFFFF000000001F7FFFFFFFFFFFF8A0
:1013C000E0C0C080808080C0C0E0F8FFFFFFFFFF6A
:1013D0007F1F0000000000000103070F0F1F1F3FC9
:1013E0003F3F3F3F3F3F3F1F1F0F0F0703010000DD
:1013F00000000000000000000000000080C0E0F0DD
:10140000F8FCFCFCFCFC00000000000000000000F8
:101410000000000000F0F8FCFEFF7F3F1FFFFFFF11
:10142000FFFFFFFF000000000000000000000000C0
:101430000000000F07030100000000FFFFFFFFFF97
:10144000FFFF00000000000000000000000000009E
:10145000000000000000000000FFFFFFFFFFFFFF93
:1014600000000000000000000000000000003F3FFE
:101470003F3F3F3F3F3F3F3F3F3F3F3F3F3F3F3F7C
:101480003F3F3F3F3F3F00000000000080C0E0F0D2
:10149000F0F8F8FCFCFCFCFCFCFCFCF8F8F0F0E0DC
:1014A000C080000000000000181E1F1F1F1F1F1F0C
:1014B000070303010101010303079FFFFFFFFFFF74
:1014C000FEF8000000000000000000000000000026
:1014D0000080C0E0F0F8FCFEFFFF7F3F1F0F070118
:1014E0000000000000000080C0E0F0F8FCFEFFFFFC
:1014F000FFBF9F8F878381808080808080800000F5
:1015000000003C3E3F3F3F3F3F3F3F3F3F3F3F3F6D
:101510003F3F3F3F3F3F3F3F3F3F3F3F00000000D7
:1015200000000080C0E0F0F0F8F8FCFCFCFCFCFCE3
:10153000F8F8F0F0E0C080000000000000000000BB
:101540000E0F0F0F0F0F0F07838381818383C7FF58
:10155000FFFFFFFFFFFE0000000000000000000092
:101560000000000000001F1F1F1F1F3F3F7FFFFFE5
:10157000FFFBF1E0C000000000001878F8F8F8F870
:10158000F8F8E0C0C080808080C0C0E0F0FFFFFFBE
:10159000FFFF7F1F0000000000000103070F0F1F67
:1015A0001F3F3F3F3F3F3F3F3F1F1F0F0F070301BD
:1015B000000000000000000000000000000000002B
:1015C00080E0F8FCFCFCFCFC3C0C0000000000008F
:1015D0000000000000000000000080E0F8FEFFFFB7
:1015E000FFFF3F0F030000000000000000000000AC
:1015F0000000000080E0F8FEFFFFFFFF3F0F030048
:10160000000000FEFEFEFEFEFEFE000000000000E8
:10161000787E7F7F7F7F7F7F7F7F7F7F7F7F7F7FE2
:101620007FFFFFFFFFFFFFFF7F7F00000000000044
:101630000000000000000000000000000000003F6B
:101640003F3F3F3F3F3F00000000000000FCFCFC2C
:10165000FCFCFCFCFCFCFCFCFCFCFCFCFCFCFCFCCA
:10166000FCFCFCFCFC000000000000FFFFFFFFFF93
:10167000FFFFF0F0F0F0F0F0F0F0E0E0E0C0C0804C
:101680000000000000000000000103070707070733
:10169000070707070707070F0F1F7FFFFFFFFFFE63
:1016A000F8E0000000001878F8F8F8F8F8F8E0C062
:1016B000C080808080C0C0E0F8FFFFFFFFFF7F1F79
:1016C0000000000000000103070F0F1F1F3F3F3FF6
:1016D0003F3F3F3F3F1F1F0F0F0703010000000068
:1016E00000000000000000000080E0F8FCFCFCFCB2
:1016F000FCFC7C1C04000000000000000000000056
:1017000000000080E0F8FEFFFFFFFFFFFFDFC7C122
:10171000C080800000000000000000000000E0F831
:10172000FEFFFFFFFFFF7F3F3F1F1F1F1F3F3F7F4A
:10173000FFFFFFFEFCF8E080000000001F7FFFFFBE
:10174000FFFFFFF9E0C0C080808080C0C0E0F9FFEB
:10175000FFFFFFFF7F1F0000000000000103070FD5
:101760000F1F1F3F3F3F3F3F3F3F3F1F1F0F0F07D1
:101770000301000000000000FCFCFCFCFCFCFCFC85
:10178000FCFCFCFCFCFCFCFCFCFCFCFCFCFCFCFC99
:10179000FCFC000000000101010101010101010147
:1017A000010101010181E1F9FFFFFFFFFF3F0F038D
:1017B00000000000000000000000000000000080A9
:1017C000E0F8FEFFFFFFFF3F0F03000000000000F6
:1017D00000000000000000000080E0F8FEFFFFFFB6
:1017E000FF3F0F03000000000000000000000000A9
:1017F0000000000020383E3F3F3F3F3F0F03000006
:1018000000000000000000000000000000000000D8
:1018100000C0E0F0F0F8F8FCFCFCFCFCFCFCFCF880
:10182000F8F0F0E0C00000000000000000003FFF02
:10183000FFFFFFFFC38181000000008181C3FFFF24
:10184000FFFFFF3F0000000000000080E0F0F9FF14
:10185000FFFFFF7F7F3F3F3F3F7F7FFFFFFFFFF99E
:10186000F0E08000000000001E7FFFFFFFFFFFF39D
:10187000C08080000000008080C0F3FFFFFFFFFFFA
:101880007F1E0000000000000103070F0F1F1F3F15
:101890003F3F3F3F3F3F3F1F1F0F0F070301000028
:1018A00000000000000080C0E0F0F0F8F8FCFCFC54
:1018B000FCFCFCFCFCF8F8F0F0E0C080000000004C
:1018C0000000F8FEFFFFFFFFFF9F07030301010178
:1018D000010303079FFFFFFFFFFFFEF8000000006A
:1018E00001071F3F7FFFFFFFFEFCFCF8F8F8F8FC44
:1018F000FCFEFFFFFFFFFF7F1F070000000000004E
:1019000000000000000101030383E3FBFFFFFFFF72
:10191000FF7F1F0701000000000000000000000022
:1019200000000000303C3F3F3F3F3F3F1F070100AA
:1019300000000000000000000000000000000000A7
:101940000000000000000000000000000000000097
:101950000000000000000000000000000000000087
:10196000C0E0F0F8F8FCFC7C7C7CFCFCF8F8F0E0D3
:10197000C0000000000000000000000000FEFFFFAB
:10198000FFFF030000000000000003FFFFFFFFFE59
:1019900000000000000000000000003FFFFFFFFF0C
:1019A000E080800000008080E0FFFFFFFF7F0000FC
:1019B00000000E1F1F1F0E0000000103070F0F1F66
:1019C0001F1F1F1F1F1F1F0F0F0703000000000016
:1019D0000000000000000000000000000000000007
:1019E00000000000000000000000000000000000F7
:1019F00000000000000000000080C0E0F0F8FCFCE7
:101A0000FC000000000000000000000000000000DA
:101A1000000000F8FCFE7F3F1F0FFFFFFFFFFF00ED
:101A200000000000000000000000000000000000B6
:101A30000001010000000000FFFFFFFFFF000000A9
:101A400000000000000000000E1F1F1F0E0000001D
:101A50001F1F1F1F1F1F1F1F1F1F1F1F1F1F1F1F96
:101A60001F00000000000000000000000000000057
:101A70000000000000000000000000000000000066
:101A8000000000000000000000000080C0F0F8F836
:101A9000FCFC7C7C7C7CFCFCF8F8F0E08000000026
:101AA0000000000000000000000707070707010012
:101AB000000080C0E0F1FFFFFF7F1F00000000007A
:101AC000000000000000000080C0E0F0F8FCFE7F95
:101AD0003F1F0F07030100000000000000000E1F61
:101AE0001F1F0E00001F1F1F1F1F1F1F1F1F1F1F55
:101AF0001F1F1F1F1F1F1F0000000000000000000D
:101B000000000000000000000000000000000000D5
:101B100000000000000000000000000000000000C5
:101B20000000C0F0F8F8FCFCFC7C7C7CFCFCFCF8C1
:101B3000F8F0E000000000000000000000000000DD
:101B4000010101010101F0F0F0F0F8FDFFFFFFFFDE
:101B5000CF000000000000000000000000F0F0F0E6
:101B6000F0F0C080010101010183C7FFFFFFFFFF0B
:101B7000000000000E1F1F1F0E00000001070F0FC6
:101B80001F1F1F1F1F1F1F1F1F0F0F070300000016
:101B90000000000000000000000000000000000045
:101BA0000000000000000000000000000000000035
:101BB00000000000000000000000000000C0F0FC79
:101BC000FCFCFC3C000000000000000000000000E5
:101BD00000000000000000C0F0FCFFFFFF3F0F030B
:101BE00000E0E0E0E0E00000000000000000000095
:101BF0000000007C7F7F7F7F7F7F7C7C7C7C7CFF04
:101C0000FFFFFFFF7C7C000000000E1F1F1F0E0067
:101C1000000000000000000000000000001F1F1F67
:101C20001F1F000000000000000000000000000076
:101C300000000000000000000000000000000000A4
:101C400000000000000000000000000000FCFCFCA0
:101C5000FCFC7C7C7C7C7C7C7C7C7C7C7C7C7C0040
:101C600000000000000000000000001F3F7F7F7F99
:101C70007C7C7C7C7C7CFCFCFCF8F8F0E0C0000008
:101C8000000000000000000000F0F0F0F0F0C08064
:101C9000000000008080C1FFFFFFFFFF0000000088
:101CA0000E1F1F1F0E00000001070F0F1F1F1F1F19
:101CB0001F1F1F1F1F0F0F07030000000000000061
:101CC0000000000000000000000000000000000014
:101CD0000000000000000000000000000000000004
:101CE000000000000000000080E0F8FCFCFC3C0C60
:101CF00000000000000000000000000000000000E4
:101D0000000080E0F8FEFFFFFFFFF3F0F0F0F0E0EE
:101D1000E0C0000000000000000000000000007EA5
:101D2000FFFFFFFFC783010101010183C7FFFFFF21
:101D3000FF7C000000000E1F1F1F0E0000000107A7
:101D40000F0F1F1F1F1F1F1F1F1F1F0F0F07010038
:101D50000000000000000000000000000000000083
:101D60000000000000000000000000000000000073
:101D70000000000000000000007C7C7C7C7C7C7CFF
:101D80007C7C7C7C7C7CFCFCFCFCFCFC0000000083
:101D90000000000000000000000000000000000043
:101DA00080E0F8FEFFFF3F0F03000000000000008E
:101DB0000000000000000000000080E0F8FEFFFFCF
:101DC0003F0F030000000000000000000E1F1F1F57
:101DD0000E0000000000181E1F1F1F0F0300000050
:101DE00000000000000000000000000000000000F3
:101DF00000000000000000000000000000000000E3
:101E000000000000000000000000000000000000D2
:101E100000C0E0F8F8FCFC7C7C7CFCFCF8F8E0C03E
:101E2000000000000000000000000000000080C76B
:101E3000FFFFFFFFFCF8F8F8FCFFFFFFFFC7800083
:101E40000000000000000000000000FEFFFFFFFF98
:101E5000C381000000000081C3FFFFFFFFFE000000
:101E600000000E1F1F1F0E00000001070F0F1F1F95
:101E70001F1F1F1F1F1F1F0F0F0703000000000061
:101E80000000000000000000000000000000000052
:101E90000000000000000000000000000000000042
:101EA0000000000000C0F0F8F8FCFCFC7C7C7C7CAE
:101EB000FCFCFCF8F8F0C00000000000000000008E
:101EC00000001F7FFFFFFFFFF1E0C0C0C0C0E0F1D6
:101ED000FFFFFFFFFF3F00000000000000000000C8
:101EE000000001030307070787E7FFFFFFFFFF3F2E
:101EF0000F030000000000000E1F1F1F0E00000057
:101F000000000000181E1F1F1F1F0F03000000000D
:101F10000000000000911C01002309F008950FEF5C
:101F200000931C010091A2010F3F41F0003011F01D
:101F30000E94AC1000E000931C01089500911F0165
:101F4000003039F0013009F1023089F10330E1F15C
:101F500048C000911D01002361F40091C40107FFF6
:101F60005AC00F770093C40160912C0170912D012C
:101F700045C00091C60107FF4EC00F770093C60110
:101F800060912A0170912B0139C009E20093A901E7
:101F900008E20093A80103E30093A7010BE200937A
:101FA000A60137C060912A0170912B0127C009E278
:101FB0000093A9010CE30093A8010EE30093A7018D
:101FC0000EE30093A60125C008E20093A90108E3EF
:101FD0000093A80108E20093A70109E20093A6017B
:101FE00018C00BE30093A9010BE30093A8010BE3D6
:101FF0000093A7010BE30093A6010BC08827992744
:102000000E9446120E94AF120091A701006800933F
:10201000A7010E940C108ECFFF92FFB6FF921F9374
:102020000F93EF93FF9300911F01033081F40E94FF
:102030006517009151010A950770009351010868D6
:102040000E94CF100E94AA170E948F1709C00E94F9
:1020500065170AE80E94CF100E94AA170E948F17E6
:102060001FEF1150F0F70E94651700EC0E94CF108F
:102070000E94AA17E8E3F1E20091A9010E9466100C
:102080000E94CF100E94AA170091A8010E9466101A
:102090000E94CF100E94AA170091A7010E9466100B
:1020A0000E94CF100E94AA170091A6010E946610FC
:1020B0000E94CF100E94AA170E948F17FF91EF91E4
:1020C0000F911F91FF90FFBEFF900895EF93FF9334
:1020D00007FB0F77003220F0003410F4005201C0EB
:1020E00000E0E00F00E0F01F049107F9FF91EF918D
:1020F00008950E9465170CE80E94CF100E94AA174D
:102100000ED71FEF1150F0F71FEF1150F0F7DDD68B
:1021100000E40E94CF101ED702D71FEF1150F0F736
:102120001FEF1150F0F708953F065B4F666D7D0776
:102130007F6F00805CF9710000000000000000006B
:1021400077735F31000000003F065B4F666D7D07CF
:102150007F6F00805CF971000F9308E8003920F46C
:102160000E94B6100395FACF0F910895CF93DF9395
:10217000C1EBD1E00F9300581127C00FD11FC00F42
:10218000D11F0981007C003C0F9131F40F930E9414
:1021900031160E94BD150F91DF91CF9108951F93C5
:1021A0002F9328E00795111F2A95E1F7012F2F9112
:1021B0001F9108950E9465170091A2010E94AA171D
:1021C00000E80E94AA170FEA0E94AA170E948F1720
:1021D00008950F931F932F9310E0202F10939A01CF
:1021E00020939B010E9475110E9465170091A20126
:1021F0000E94AA1700E40E94AA1714E800E00E94B7
:10220000AA171A95D9F70E948F172F911F910F9136
:1022100008950F931F932F9310E0202F10939A018E
:1022200020939B010E9475110E9465170091A201E5
:102230000E94AA1700E40E94AA1710E82F91022F0B
:102240000E94AA171A95D9F70E948F171F910F9114
:1022500008950E9465170091A2010E94AA170F3FDE
:1022600009F4000000E00E94AA1718E1E2E8F2E297
:1022700005910E94AA171A951123D1F70E948F1772
:102280000895D580A83FD300408D14A1C8DA1281EB
:10229000FFD922DB30A4A60010B0AF000F931F932C
:1022A0002F930E94081628E014E82A951F9310E047
:1022B00010939A0120939B010E9475111F910E9417
:1022C00065170091A2010E94AA1700E40E94AA17B4
:1022D00000E00E94AA171A95D9F70E948F172223AF
:1022E00019F72F911F910F91089510919A01209144
:1022F0009B0117FD1CC00F930E9465170091A2015E
:102300000E94AA1700E00E94AA17022F0770006B14
:102310000E94AA17012F0F700E94AA17012F029581
:102320000F7000610E94AA170E948F170F910895E5
:10233000FF92FFB6FF92FF920F921F92799C60016D
:10234000689C5001699CFF24B00CC11CDF1C789C68
:10235000FF24B00CC11CDF1C1F900F90FF90FF905A
:10236000FFBEFF900895FF92FFB6FF92102F0F70EF
:10237000107F1295005D0A3308F0095F105D1A3373
:1023800008F0195FFF90FFBEFF900895002411240C
:1023900022243324F0E2660C771C881C991C001C54
:1023A000111C221C331C0A141B042C043D0428F0AD
:1023B00063940A181B082C083D08FA9561F70895E4
:1023C0000F931F932F933F934F935F936F937F933D
:1023D000CC24DD24EE2400E4F02E88249924AA24C1
:1023E000BB24840195010C291D292E293F29B6946F
:1023F000A79497948794401751076207730740F09A
:102400008C289D28AE28BF28401B510B620B730BF4
:10241000F694E794D794C794F694E794D794C79426
:102420000C2D0D290E290F29E1F67F916F915F91F7
:102430004F913F912F911F910F910895FF92FFB6F9
:10244000FF920F931F933F934F9330E1CC24BB2413
:10245000AA24FF27000F111FAA1CBB1CCC1C3A95F5
:1024600049F400004F913F911F910F91FF90FFBEE3
:10247000FF900895EDE042914D5F43FD4083408120
:10248000405D47FD4083EA30B1F7E4CF4F935F935F
:102490006F937F938F939F93FF93EF9397FD0E948A
:1024A000121340E2EE24DD24CC24BB24AA24FF270F
:1024B000660F771F881F991FAA1CBB1CCC1CDD1C34
:1024C000EE1C4A9561F0EFE052915D5F53FD508341
:1024D0005081505D57FD5083EA30B1F7E9CF5A2D56
:1024E0005F7050635093A6015A2D52955F705063F0
:1024F0005093A7015B2D5F7050635093A8015B2D33
:1025000052955F7050635093A9015C2D5F705063CA
:102510005093AA015C2D52955F7050635093AB01AC
:102520005D2D5F7050635093AC015D2D52955F70CF
:1025300050635093AD015E2D5F7050635093AE01B8
:102540005E2D52955F7050635093AF01EF91FF91F4
:102550009F918F917F916F915F914F9108950F930C
:102560001F932F93222710E30091AF01011719F455
:1025700000E2239501C010E20093AF010091AE018B
:10258000011719F400E2239501C010E20093AE0197
:102590000091AD01011719F4239500E201C010E28A
:1025A0000093AD010091AC01011719F4239500E2ED
:1025B00001C010E20093AC010091AB01011719F4C6
:1025C000239500E201C010E20093AB010091AA0143
:1025D000011719F4239500E201C010E20093AA014B
:1025E0000091A901011719F4239500E201C010E23E
:1025F0000093A9010091A801011719F4239500E2A5
:1026000001C010E20093A8010091A7010093A70167
:102610000091A6010093A6012093B0012F911F9174
:102620000F91089560957095809590956F5F7F4F9D
:102630008F4F9F4F0895FF92FFB6FF92EF93FF9346
:102640006F927F928F929F92AF92BF92CF92DF92C2
:102650005E9B05C0AA24BB24CC24DD2407C0609067
:1026600078007090790043010E94981160902001D9
:102670007090210180902201909023016A0C7B1CB4
:102680008C1C9D1C6092200170922101809222017D
:1026900090922301E0912401F09125013196E0937D
:1026A0002401F0932501DF90CF90BF90AF909F90D1
:1026B0008F907F906F90FF91EF91FF90FFBEFF9002
:1026C0001895FF92FFB6FF920F931F932F933F939E
:1026D00000E000931D005E9A009181000F93087F37
:1026E00000938100209184003091850000270093A1
:1026F00085000093840010910C0100910B01109350
:1027000089000093880010910E0100910D01109333
:102710008B0000938A0001E003BD0F9100938100BC
:102720004F93FF93EF93DF93CF930F921F922F92CC
:102730003F924F925F926F927F928F929F92AF9251
:10274000BF92CF92DF92EF92FF92009169000370E7
:102750000230B1F0033029F00BE0009369000C94D3
:10276000DC140DEE00937A00009169000C7F02608A
:102770000093690020930F01309310010C94DC1436
:102780000DE600937A00009169000C7F03600093CE
:102790006900209311013093120160902001709024
:1027A00021018090220190902301A0902401B090FB
:1027B0002501660C771C881C991C660C771C881CEC
:1027C000991CCC24DD240E94C611660C771C881C41
:1027D000991C660C771C881C991CA301B40160929B
:1027E00026017092270180922801909229010E946F
:1027F000E011809230019092310100270093200176
:1028000000932101009322010093230100932401EE
:1028100000932501F1E0E0E5EF010027802E202E56
:10282000302E7A906A900FE0002359F00A951A90A2
:102830000A90600C711C821C931C129202920C94E0
:102840001414E0E1F0E05F01CC24DD240E94C61105
:1028500060922A0170922B0100911F01003009F44F
:1028600032C0013009F407C0023009F418C0033047
:1028700009F415C0A1C02D985F9A00E000931E01D5
:10288000E0910B01F0910C01C8ECD0E0EC1BFD0BCA
:1028900009F018F4EE27FF2731964F0154C02D9A06
:1028A0005F9A00E000931E0100E516E4C8ECD0E05A
:1028B00080900B0190900C018C0E9D1E801691064D
:1028C00008F0480140C02D9A6090300170903101AD
:1028D00080902C0190902D016818790818F0C8ECB0
:1028E000D0E007C0C8E3DFEF6C167D0660F43E0160
:1028F0000AC06C167D0638F03E0105C0889477FC4E
:1029000008947794679480900B0190900C01860C4A
:10291000971C97FE0BC001E010E0480110911D01CB
:102920000FEF00931D0101130EC00DC000E516E46A
:102930008016910608F0480100911D01002319F04E
:10294000002700931D0180920B0190920C010091D1
:102950001F01003009F030C0E0912A01F0912B01F5
:1029600000912C0110912D01E01BF10B18F4E09562
:10297000F095319603E010E0E017F10750F40027DE
:102980000093A3015F9810911E010FEF00931E01A9
:102990000EC00091A301093120F403950093A30117
:1029A0000BC05F9A10911E0100E000931E010113FD
:1029B00003C008E80E941D16FF90EF90DF90CF90B3
:1029C000BF90AF909F908F907F906F905F904F904F
:1029D0003F902F901F900F90CF91DF91EF91FF913B
:1029E0004F913F912F911F910F91FF90FFBEFF904C
:1029F0001895FF92FFB6FF920F931F932F933F936B
:102A00004F930F921F92FF93EF93F198F0980F93CB
:102A10000091A00110E0EAE4FCE0E00FF11FE00FFC
:102A2000F11F05911591000F111F00939E01109346
:102A30009F01F8010F911591259135914591003233
:102A400049F0003031F0011718F0021721F018F0AA
:102A500059C0F09AF19A003828F0003CC8F3103CB5
:102A600008F400540F93011B349F009DE00DF11DED
:102A700000919A0100939C0100919B0100939D019C
:102A80000F910E3219F400243695301D4F930E9499
:102A900065170091A2010E94AA1700E40E94AA17DC
:102AA0003F9300919A01003868F4039500939A01CE
:102AB00000E0F19B05910E94AA173A95F0993A958A
:102AC00081F702C00591F9CF3F910E948F174A9577
:102AD00079F000919C0100939A0100919D0103956A
:102AE000077000939B0100939D010E947511CFCF49
:102AF0004F9100919B01041B0395077000939B016C
:102B00000E947511EF91FF911F900F904F913F918F
:102B10002F911F910F91FF90FFBEFF900895FF929C
:102B2000FFB6FF920F931F93AF93BF93CF93DF93A3
:102B3000EE0FFF1F00270093A1010091A1010038B3
:102B400008F011C003950093A2150591003809F40F
:102B50000AC0003828F0003C18F40E94BD15EDCFE3
:102B60000E94F914EACFDF91CF91BF91AF911F91ED
:102B70000F91FF90FFBEFF900895DF01EAE1FEE2B2
:102B8000C1EBD1E00F93005810E0E00FF11FE00F10
:102B9000F11FC00FD11FC00FD11F05911491F80173
:102BA00000919A01088310919B0117700091A00178
:102BB00002950073102B10641F7719830F910995EC
:102BC000FD010895CF93DF930F931F9300581127B2
:102BD000C1EBD1E0C00FD11FC00FD11F09810F7B06
:102BE00009831F910F91DF91CF910895CF93DF93C8
:102BF0000F9300581127C1EBD1E0C00FD11FC00FB8
:102C0000D11F0981006409830F91DF91CF9108954D
:102C1000CF93DF930F931F93C1EBD1E000E4002328
:102C200039F00A9519811F7B1F7719832296F7CFF8
:102C30001F910F91DF91CF910895CF93DF930F9361
:102C40001F93C1EBD1E000581127C00FD11FC00F57
:102C5000D11F1981106819831F910F91DF91CF91B6
:102C600008950F931F93CF93DF93C1EBD1E00058EA
:102C70001127C00FD11FC00FD11F088119810093E8
:102C80009A0110939B011F7710641983129513709A
:102C90001093A0010E947511DF91CF911F910F91A8
:102CA00008950895FD01059103700093A001DF01CF
:102CB0000895FD012F933F9315912591359105912D
:102CC0000F9320939A0110939B010E9475110E940B
:102CD00065170091A2010E94AA1700E40E94AA179A
:102CE0000F91231739F030F40F930E94AA170F9118
:102CF0002395F7CF0E948F173F912F91DF01089501
:102D0000FD010591003808F00FE700939A01059145
:102D1000077000939B01DF010E9475110895FD016A
:102D200000919A011591010F003808F00FE7009308
:102D30009A0100919B011591010F077000939B016F
:102D4000DF010E9475110895CF93DF930F931F93B6
:102D5000FD010591DF01003CC0F40A38B0F00058D5
:102D60001127C1EBD1E0C00FD11FC00FD11F0091BF
:102D70009A01088310919B0117700091A0010295A0
:102D80000073102B1F7B1F7719831F910F91DF9109
:102D9000CF91089500911F01003089F400911E0128
:102DA000003039F00CE30E94F9140DE30E94F9148D
:102DB00006C00AE30E94F9140BE30E94F914089577
:102DC000CCE2D1E003C0CAE2D1E000C068817981E1
:102DD000882799270E9446120E94AF120091A901EC
:102DE0000E94F9140091A8010E94F9140091A70112
:102DF0000E94F9140091A001013031F40091A60164
:102E0000065F0E94F91408C00EE20E94F9140091B6
:102E1000A6010E94F91400C00895511652165916C1
:102E200080168F16A41651165116CA16E016E31610
:102E3000511651165116511651165116511651165A
:102E4000511651165116511651165116511651164A
:102E5000511651165116511651165116511651163A
:102E6000511651165116511651165116511651162A
:102E7000511651165116511651165116511651161A
:102E8000511651165116511651165116511651160A
:102E9000511651165116511651162098289A23B1E1
:102EA00020FFFDCF08952898209A08952198299A07
:102EB00008952998219A08952F930E9456170E94E9
:102EC0004D170E948F172F9108952F930E94591725
:102ED00024E02150F0F700000E94531724E0215015
:102EE000F0F700002F9108952F930E94561724E0C9
:102EF0002150F0F700000E944D1724E02150F0F718
:102F000000000E94591724E02150F0F700000E94B1
:102F1000531724E02150F0F700002F9108952F93CC
:102F20000E94531724E02150F0F700000E94591727
:102F300024E02150F0F700000E944D1724E02150BA
:102F4000F0F700000E94561724E02150F0F700002F
:102F50002F9108951F932F9318E0001F18F40E94DB
:102F6000561702C00E94591724E02150F0F70000C4
:102F70000E944D1724E02150F0F700000E945317E3
:102F80001A9559F70E94561724E02150F0F70000D7
:102F90000E944D1724E02150F0F7000013B111FBFF
:102FA0000E9453172F911F9108958100830000C242
:102FB000FBF5EEE4810283680088810183040385C8
:102FC0008A898202008018808100830000D0E0E7B7
:102FD000E3EEED8102835C008982020080188101AA
:102FE0008304038A80008100830000D1F2EEEF8128
:102FF00002835C0089820200801881018304038AB5
:1030000080008100830A01C2FBEAEBFEF7E5EDEEEA
:10301000830A03E0E2E0F0E8E9EDFBEC831005F160
:10302000E8E3EDE0EBEEEC80FF92FFB6FF920F934A
:103030001F932F9300910001013009F407C0023063
:1030400009F414C0033009F426C04AC000910101FC
:10305000033010F009F044C010911F01133009F43F
:103060003FC000931F010E94B9023AC000910101C4
:103070001091020117FD34C024EC021729E0120759
:1030800011F008F02DC000932C0110932D0109E8D8
:103090000E941D1625C0009101011091020117FD2B
:1030A0000FC024EC021729E0120711F008F008C045
:1030B00000932C0110932D0109E80E941D1610C0E9
:1030C00000910301033010F009F00AC010911F01B4
:1030D000133009F405C000931F010E94B90200C01B
:1030E0002F911F910F91FF90FFBEFF900895FF92C7
:1030F000FFB6FF920F931F93EF93FF93EEE2F1E37E
:103100000091B900087F0695069506951127E00FF6
:10311000F11FE00FF11F05911491F8010995FF913E
:10312000EF911F910F91FF90FFBEFF901895B71878
:103130002E192E192E192E192E192E192E192E1957
:103140002E192E192E19BB182E192E192E19C81822
:10315000DF182E192E19F518FE182E1913192A1911
:103160002A192E192E192E192E192E192E1905ED80
:103170000093BC00089500E000930001009103005B
:10318000013011F405E801C005EC0093BC0008957E
:10319000002710910001E1E0F1E0E10FF01F009144
:1031A000BB00008313951093000103E00A951017EC
:1031B00011F405E801C005EC0093BC000895002758
:1031C00010910001E1E0F1E0E10FF01F0091BB0080
:1031D000008313951093000105EC0093BC0000914F
:1031E0005601026000935601089505EC0093BC005F
:1031F00000915601026000935601089510E010936B
:103200000001E4E0F1E00027E10FF01F00810093EE
:10321000BB0000910500013011F405E801C005EC88
:103220000093BC000895002710910001139510939E
:103230000001E4E0F1E0E10FF01F00810093BB002A
:1032400005E00A95101711F405E801C005EC00939C
:0E325000BC00089505EC0093BC00089508959D
:00000001FF
