:020000020000FC
:060000000C94330018957A
:02000800189549
:02000C00189545
:02001000189541
:060014000C94EC18189595
:02001C00189535
:02002000189531
:0200240018952D
:02002800189529
:06002C000C94A31A1895C4
:0200340018951D
:060038000C94601A1895FB
:02004000189511
:0200440018950D
:0A0048000C94202D0C94F729189554
:020054001895FD
:020058001895F9
:02005C001895F5
:020060001895F1
:100064001895E0E0F1E000270193F830E9F7EF3F5D
:10007400D9F7EE27FF27F083E395EE31E1F7EE277A
:100084000FEF0DBF08E00EBF05B70160102F0D7F05
:1000940015BF05BF0FEF04B90FED05B900E007B9AF
:1000A40000E308B90EE10AB90FEF0BB903E803BD89
:1000B40002E004BD03E005BD09EF07BD02E00093C3
:1000C4006E0000E00093800008E00093810018E1D6
:1000D4000AE6109389000093880002E000936F0001
:1000E40002E00093B00003E00093B1000CE700933A
:1000F400B30002E00093700007E60093C40000E040
:100104000093C50008ED0093C10006E00093C2000F
:1001140000EC00936D0004E0009368000CE0009391
:10012400B8000E948A190E943D1B0E94A91B0E94CC
:10013400D31BE2EBF5E20E9481200E94BC1D0CEC73
:100144000E94161E0EE40E94161E00E00E94161E57
:1001540000E00E94161E0FE70E94161E0E94851ED4
:100164000E94290700910F01002359F40E94A2075D
:100174000E9439070E94D70700E10E94BE090A9530
:10018400E1F70E942C170E949D17E1EAF1E005E0D7
:10019400019301930193019300E003BD78940091CE
:1001A400DF0103FFFCCF077F0093DF010E94C21E23
:1001B4000E94851E0E94A91BE8EBF5E20E948120A3
:1001C4000AE0009381000093FB010091E1010160CA
:1001D4000093E10100C00091DF0103FF07C0077F26
:1001E4000093DF010F930E94B6160F9102FF07C020
:1001F4000B7F0093DF010F930E9452160F9101FFB2
:1002040007C00D7F0093DF010F930E947B150F91B0
:100214000091E00101FF07C00F930E945C010F9160
:100224000D7F0093E00100FF09C00F930E945C0161
:100234000E9448010F910E7F0093E00102FF0BC062
:100244000F930E9473190E9473010E9448010F9139
:100254000B7F0093E00103FF0BC00F930E947319FF
:100264000E948A010E9448010F91077F0093E001D8
:100274000091E10103FF02C00E94702D0091E3018F
:10028400002309F002C00E94262AA5CF0F9300E0A4
:100294000093DE010F910895D404E8042806F003C6
:1002A40003030303050505050B0B080901FFC00340
:1002B400E09304000F931F93EF93FF93E4E4F3E0C0
:1002C4000091130211270770E00FF11FE00FF11FD7
:1002D40005911491F8010995FF91EF911F910F91E8
:1002E40008950F931F93EF93FF93E4E5F3E00091D8
:1002F400130211270770E00FF11FE00FF11F0591A2
:100304001491F8010995FF91EF911F910F910895B0
:100314000F931F93EF93FF93E4E6F3E0009113022E
:1003240011270770E00FF11FE00FF11F05911491E1
:10033400F8010995FF91EF911F910F910895089588
:10034400D605C0043904BA01A101A101A101A1018A
:10035400F5040A046003B103A101A101A101A101F3
:1003640089047D0475040103A101A101A101A10176
:100374000F931F93EF93FF930091150210911402B2
:10038400111F111F010F11271C3150F4EEEAF3E085
:10039400E00FF11FE00FF11F05911491F801099589
:1003A400FF91EF911F910F910895D40246028C02A0
:1003B4006C02D40246028C026C02D40246028C0205
:1003C4006C02D40246028C026C02A101A101120546
:1003D400AC02D605A101A101A10132021902F70163
:1003E400A101A101A101A101A101EF93FF93CF9369
:1003F400DF93E8EFF3E0C081D1810091E00100FDDB
:1004040003C001FD05C008C02196C083D18304C088
:100414002197C083D18300C002EB0E944D2104EBDD
:100424000E944D21DF91CF91FF91EF91089510919A
:10043400F6030091E00100FD03C001FD03C003C009
:10044400139501C01A9513701093F60301EB0E94E3
:100454004D2103EB0E944D2104EB0E944D21089590
:100464000091F703003021F00F3F21F000E003C0BA
:100474000FEF01C000E00093F70300EB0E944D2151
:1004840004EB0E944D2108950091140210E0ADE99F
:10049400B1E0A00FB11F0091E00100FD03C001FD18
:1004A40005C011C00C9103950F7003C00C910A95FF
:1004B4000F70013019F0083018F004C008E002C0D1
:1004C40000E000C00C930091140210EA010F0E9496
:1004D4004D2108950091140210E0A9E9B1E0A00FA4
:1004E400B11F0091E00100FD03C001FD07C00BC076
:1004F4000C91043140F403950C9305C00C91002336
:1005040011F00A950C93009114021CE9010F0E944A
:100514004D2108950091140210E0A5E9B1E0A00F67
:10052400B11F0091E00100FD03C001FD07C00BC035
:100534000C91043140F403950C9305C00C910023F5
:1005440011F00A950C930091140218E9010F0E940E
:100554004D2108950091E00100FD03C001FD06C096
:100564000AC0009118020F5F037005C000911802C1
:100574000150037000C00093180207E80E944D2147
:10058400089500270093E9010093EA010093EB0129
:100594000093EC010AE80E944D210E948F060E94FC
:1005A400B1030895CF93DF93EF93FF930F931F93BA
:1005B400009114021127EDE8F1E0E00FF11FE00FC4
:1005C400F11FC081D1810091E00100FD03C001FD54
:1005D40005C008C02196C083D18304C02197C0837D
:1005E400D18300C00091140214E9010F0E944D212F
:1005F4001F910F91FF91EF91DF91CF910895009199
:100604001402043008F40CC039F4009115020030CF
:1006140031F40E94C30203C0053009F425C04DC063
:1006240000911502002309F048C00091140211271B
:10063400E5E8F1E0E00FF11FE00FF11FA081B181C7
:10064400C0E0D0E8AC17BD0709F40DC0CDE8D1E097
:10065400C00FD11FC00FD11F1296A883B98314E90C
:10066400010F0E944D2129C000911502002309F0B9
:100674001EC0A091FE01B091FF01AB2BF1F4002745
:100684000093E9010093EA010093EB010093EC016C
:100694000AE80E944D21A0E0B0E0A0930002B093CC
:1006A40001020E948F060FE80E944D2106C003300C
:1006B40009F003C00E94341800C0089503E00093B9
:1006C400130200911402053009F02FC000911502A5
:1006D4000030D9F4A0E0B0E0A093FE01B093FF0194
:1006E4000E94BD06A0910002B0910102A0930202F3
:1006F400B0930302A0E0B0E0A0930002B093010223
:100704000E948F060E94EB0410C000911502013074
:1007140009F40BC000911502023009F406C00091DF
:100724001502033009F401C00000009115020030E5
:1007340019F4E5E0F9E210C0013019F4EBE1F9E253
:100744000BC0023019F4E1E3F9E206C0033019F4F6
:10075400E7E4F9E201C000C00E94812008950091FD
:100764001402043008F44EC0043009F404C0053007
:1007740009F429C047C000911502033009F042C0B2
:1007840000911802003029F40E94EB040E947F04B7
:100794003EC0013029F40E94E4040E947F0437C063
:1007A400023011F42FC033C0033061F401E0009330
:1007B400130205E00093140200E0009315020E9466
:1007C400920425C024C000911502003009F40AC027
:1007D400013009F413C0023009F411C0033009F4E4
:1007E4000FC010C0A0E0B0E0A093FE01B093FF01E1
:1007F4000E94BD0600E00093DD0104C003C002C0F6
:1008040001C000C002E0009313020E942004089576
:1008140002E00093130200270093150200911402D2
:10082400043009F00BC00E94E40403E000931502B5
:1008340000E00093180207E80E944D210091150280
:10084400003019F4EDEAF8E20FC0013019F4E3ECDA
:10085400F8E20AC0023019F4E9EDF8E205C0033009
:1008640019F4EFEEF8E200C00E94812008952F935E
:100874001F930F9320911402109115020091E0012F
:1008840000FD03C001FD13C025C0133009F427C0C7
:1008940005E0201700E0100711F412E006C004E0A0
:1008A400201700E0100709F411E0139513C0112379
:1008B40019F40E94750413C005E0201703E0100723
:1008C40011F411E006C004E0201702E0100709F457
:1008D40011E01A951370109315020E9420040F91D1
:1008E4001F912F91089501E000931302E7E9F8E2C4
:1008F4000E94812008950E94781800E0009313025A
:100904000E94A91BE8EBF5E20E948120089501E012
:100914000093130214E00091E10101FD109314020D
:1009240000911402003019F4E0E8F6E21EC0013030
:1009340019F4EDECF6E219C0023019F4EAE1F7E239
:1009440014C0033019F4E7E6F7E20FC0043019F4D9
:10095400E4EBF7E20AC0053019F4E9EFF7E205C069
:10096400063019F4E6E4F8E200C00E94A91B0E94D4
:100974008120E7E9F8E20E94812008950F931F93F4
:10098400109114020091E00100FD03C001FD0CC0B0
:1009940016C0163008F01FEF13951530E9F31093C5
:1009A40014020E9492040BC0103009F417E01A9547
:1009B4001530E9F3109314020E94920400C01F91B1
:1009C4000F9108950091E1010E7F0D7F0093E101E5
:1009D40008950091E10101600D7F0093E10100E0C1
:1009E4000093DD0108950F931F930091DD0100230F
:1009F40021F000270093DD0110C00091E10102FD08
:100A04000CC0102F0770013021F0012F0160097F05
:100A140002C0012F087F0093E1011F910F910895F7
:100A24000091E00100FD03C001FD04C005C00E9467
:100A3400240502C00E9478050E948F060EE80E94D9
:100A44004D2108950F920FB60F920F931F932F937A
:100A54003F934F935F936F937F938F939F93609193
:100A640000027091010280E090E050E040E033E148
:100A740028E80E94B11D38F068E873E150E040E0D6
:100A840030E020E01CC050E040E033E028EE0E945B
:100A9400B11D28F050E040E030E024E610C050E002
:100AA40040E030E024E60E94B11D28F050E040E030
:100AB40030E022E304C050E040E030E02AE00E944D
:100AC400951D60930002709301020FE80E944D216E
:100AD4009F918F917F916F915F914F913F912F9152
:100AE4001F910F910F900FBE0F9008950F920FB6A4
:100AF4000F920F931F932F933F934F935F936F9393
:100B04007F938F939F93609100027091010280E024
:100B140090E050E040E030E02AE00E94B11D10F087
:100B240009F007C060E070E050E040E030E020E011
:100B340020C050E040E030E024E60E94B11D10F0F7
:100B440009F005C050E040E030E02AE012C050E077
:100B540040E033E028EE0E94B11D10F009F005C01A
:100B640050E040E030E022E304C050E040E030E0F8
:100B740024E60E949A1D6093000270930102609320
:100B84000702709308020FE80E944D219F918F91F4
:100B94007F916F915F914F913F912F911F910F9191
:100BA4000F900FBE0F9008950091E00100FD03C067
:100BB40001FD04C005C00E94E30502C00E9439067D
:100BC40008950F920FB60F920F931F932F933F9395
:100BD4004F935F936F937F938F939F936091FE01E5
:100BE4007091FF0180E090E050E040E03DE02CEAAD
:100BF4000E94B11D38F060E17EE050E040E030E05A
:100C040020E01CC050E040E033E028EE0E94B11D1B
:100C140028F050E040E030E024E610C050E040E02E
:100C240030E028EC0E94B11D28F050E040E030E0B4
:100C340022E304C050E040E030E02AE00E94951D29
:100C44006093FE017093FF010E94BD0601E00E94C3
:100C5400642A9F918F917F916F915F914F913F9102
:100C64002F911F910F910F900FBE0F9008950F9326
:100C74001F932F933F934F935F936F937F938F9320
:100C84009F936091FE017091FF0180E090E050E03D
:100C940040E030E02AE00E94B11D10F009F007C0E6
:100CA40060E070E050E040E030E020E020C050E040
:100CB40040E030E028EC0E94B11D10F009F005C0BE
:100CC40050E040E030E02AE012C050E040E033E081
:100CD40028EE0E94B11D10F009F005C050E040E07C
:100CE40030E022E304C050E040E030E024E60E941B
:100CF4009A1D6093FE017093FF010E94BD0601E0FE
:100D04000E94642A9F918F917F916F915F914F917F
:100D14003F912F911F910F9108950F931F932F933C
:100D24003F934F935F936F937F938F939F936091C0
:100D3400F5017091F6018091F7019091F8012091ED
:100D44000002309101020E94FE1C6093ED01709339
:100D5400EE018093EF019093F0010FE80E944D2182
:100D64009F918F917F916F915F914F913F912F91BF
:100D74001F910F9108950F931F932F933F934F93B8
:100D84005F936F937F938F939F9396ED83E974EAB8
:100D940060E02091F5013091F6014091F701509106
:100DA400F8010E94161D2091FE013091FF01442795
:100DB40055272417340729F490E080E07FEF6FEF84
:100DC4001CC00E94161D00248015900511F4AAE091
:100DD40014C050E040E030E028E00E94161D0024DA
:100DE4008015900511F4ABE008C050E040E030E01D
:100DF40028E00E94161DACE000C050E040E030E066
:100E040021E00E949A1D08E0009381008091F9017D
:100E14009091FA016093F9017093FA0168177907C8
:100E240021F07093890060938800A093FB01A09344
:100E340081000CE80E944D219F918F917F916F91C9
:100E44005F914F913F912F911F910F9108950E94AF
:100E540083190EEE0E94901900910401003200E003
:100E640009F40FEF00930F010E948A1908950F935C
:100E74000FB70F931F93FF93EF930E9483190EEE06
:100E84000E94901904EF0E9490190EE20E9490199A
:100E94000E948A19FEE4E0E23197F1F70E94831977
:100EA4000EEE0E94901906EF0E9490190E94831979
:100EB4000EEE01600E9490190E9499190093260178
:100EC4000E94A019009327010E948A190E94831985
:100ED4000EEE0E94901904EF0E94901904EF0E94F4
:100EE40090190E948A19F5E7E0E33197319631971A
:100EF4003196319731963197C1F70E9483190EEEDE
:100F04000E94901906EF0E9490190E9483190EEE18
:100F140001600E9490190E949919009328010E946F
:100F24009919009329010E94A01900932A010E9493
:100F34008A19EF91FF911F910F910FBF0F9108959F
:100F44000F930FB70F931F93FF93EF93F1E0E0E13B
:100F540015E10E9483190EEE0E9490190AEA0E947C
:100F640090190E9483190FEE0E9490190E949919FA
:100F740001931A95D9F70E94A01901930E948A1926
:100F8400EF91FF911F910F910FBF0F910895F030D2
:100F940039F07595679557954795FA950C94C90757
:100FA4000F1F1F1F2F1F3F1F08950F920FB60F9281
:100FB4001F922F923F924F925F926F927F928F92E5
:100FC4009F92AF92BF92CF92DF92EF92FF920F93D4
:100FD4001F932F933F934F935F936F937F938F93BD
:100FE4009F93AF93BF93CF93DF93EF93FF9360915E
:100FF4002701709126018827992720911B013091A0
:101004001A0137FD03C04427552702C04FEF5FEF95
:1010140000000E949A1D209119013091180137FD9A
:1010240003C04427552702C04FEF5FEF00000E9422
:10103400551D1FE00E94771D2B013C0120912501C5
:101044003091240137FD03C04427552702C04FEFD8
:101054005FEF00000E94951D9B01AC01609123018C
:101064007091220177FD03C08827992702C08FEF72
:101074009FEF00001BE00E94811D0E94461D92010B
:10108400A3010E94951D2B013C0150E040E030E09B
:1010940028E00E94951D50E040E030E020E10E94ED
:1010A400461D0000B201C30150E040E03FE020EAE9
:1010B4000E949A1D2B013C019B01AC010E94651DFD
:1010C4001CE00E94771D20911F0130911E0137FD05
:1010D40003C04427552702C04FEF5FEF00000E9472
:1010E400651D1BE00E94771D4B015C01609113019B
:1010F4007091120177FD03C08827992702C08FEFF2
:101104009FEF00009201A3010E94651D1BE00E9455
:10111400771D9401A5010E94951D4B015C0160910E
:1011240011017091100177FD03C08827992702C02F
:101134008FEF9FEF000050E040E030E024E00E9499
:10114400651D9401A5010E94951D10E00E94811D5A
:1011540050E040E030E022E00E94951D50E040E085
:1011640030E024E00E94461D4B015C0160911501B2
:101174007091140177FD03C08827992702C08FEF6F
:101184009FEF00009201A3010E94651D1DE00E94D3
:10119400771D6B017C01B201C3019B01AC010E946C
:1011A400651D1CE00E94771D20911D0130911C01DA
:1011B40037FD03C04427552702C04FEF5FEF0000FF
:1011C4000E94651D10E10E94771D9601A7010E94EF
:1011D400951D50E040E030E022E00E94951D12E0B1
:1011E4000E94771D50E040E030E820E00E94951D09
:1011F400209117013091160137FD03C0442755276C
:1012040002C04FEF5FEF00000E94551D1FE00E94D7
:10121400771D2B013C0160912901709128018827D9
:1012240099279401A5010E949A1D50E040E033ECF7
:1012340020E510E00E948B1D0E94551D97FD08C0FB
:1012440011E00E94811D9201A3010E94161D07C096
:101254009201A3010E94161D11E00E94811D2B0121
:101264003C0150E040E031E020E00E94461D9B013B
:10127400AC010E94651D50E040E03BE02EED8F93F1
:101284000E94551D1F91129F800D911D139F900D5B
:1012940010E10E94771D4B015C01B201C30150E0D3
:1012A40040E03CE12DEB8F930E94551D1F91129F4E
:1012B400800D911D139F900D10E10E94771D9B01DD
:1012C400AC010E94951DB401C5010E949A1D50E015
:1012D40040E03EE02FEC0E94951D50E040E030E0FD
:1012E40020E10E94461D9201A3010E94951D609376
:1012F4003701709338018093390190933A018B013F
:101304009C01000F111F221F331F600F711F821FCA
:10131400931F959587957795679595958795779577
:10132400679560932F0170933001809331019093FE
:101334003201FF91EF91DF91CF91BF91AF919F91D6
:101344008F917F916F915F914F913F912F911F9159
:101354000F91FF90EF90DF90CF90BF90AF909F9050
:101364008F907F906F905F904F903F902F901F9041
:101374000F900FBE0F9008950F920FB60F92AF9378
:10138400BF93CF93DF93EF93FF930F931F932F9309
:101394003F934F935F936F937F938F939F9300E15A
:1013A400E7E7F1E0C7E7D1E09A918A917A916A91EF
:1013B4000A95002371F00A955A914A913A912A911B
:1013C4005293429332932293620F731F841F951F8B
:1013D400F0CF20E130E040E050E00E94161DEBE742
:1013E400F1E061937193819391938B019C01000FC0
:1013F400111F221F331F600F711F821F931F9595AA
:1014040087957795679595958795779567952091B5
:10141400330130913401409135015091360160938C
:10142400330170933401809335019093360126176C
:1014340037074807590719F009E80E944D219F9181
:101444008F917F916F915F914F913F912F911F9158
:101454000F91FF91EF91DF91CF91BF91AF910F90D9
:101464000FBE0F9008953913370A00FF0C020000D5
:101474000000000000000000000000000000000068
:1014840000000000000000F00C0232310131320291
:101494000CF000030C101122222211100C0300F096
:1014A400FCFECECFFFCFCEFEFCF000030F1F1E3D8F
:1014B4003D3D1E1F0F030000F0F8F8F0E0F0F8F8CF
:1014C400F0000000000103070F0703010000000003
:1014D40080C0E0F0F8F0E0C08000000000010307E5
:1014E4000F07030100000080C0C0B8FCFCFCB8C0BA
:1014F400C08000030707131B1F1B1307070300000B
:1015040080C0E0F0FCF0E0C0800000000307171B7F
:101514001F1B1707030000000080C0E0E0C080002C
:101524000000000000010307070301000000FFFFA3
:10153400FFFF7F3F3F7FFFFFFFFFFFFFFFFFFEFC3B
:10154400FCFEFFFFFFFF00F8F81818181818F8F849
:101554000000001F1F18181818181F1F0000FFFF95
:10156400FF3FDFEFEFDF3FFFFFFFFFFFFFFCFBF776
:10157400F7FBFCFFFFFF00C030100888483030C87C
:10158400000000090606090808040601000000001E
:1015940038448282824438000000000000000000C9
:1015A400000000000000000000000000FF0E7C3876
:1015B40000000000000C1E1E0F000000000000F0E0
:1015C400F80C06060606060CF8F00033333F3E001E
:1015D40000003E3F33010080C8F030181E1830F080
:1015E400C88000000907060C3C0C0607090000002F
:1015F40000FCF8F0E0C0800000000000001F0F07AE
:1016040003010000000000000080C0E0F0F8FC00CE
:101614000000000000000103070F1F00000000008D
:101624000010181CFE1C18100000000000040C1C04
:101634003F1C0C0400000000303030FEFE3030301F
:10164400000000001818181919181818000000389C
:101654007CC682FEFE02FEFE020000000000003F87
:101664003F003F3F00000000DCFE22222222E6C4AD
:10167400000000000819111111111F0E00000000D4
:1016840000000000000000000000000000383838AE
:10169400383838383800000062515149460000009B
:1016A4000000000000000000000000000000000036
:1016B4000010181CFE1C18100000000000000000A0
:1016C4003F0000000000000000000000FE000000D9
:1016D4000000000000040C1C3F1C0C04000000006F
:1016E4008080808080F0E0C0800000000000000066
:1016F400000703010000000080C0E0F080808080CB
:10170400800000000001030700000000000000004A
:1017140000000000000000000000003F2020202006
:101724002020202020000080C0E0F0808080F0E0B5
:10173400C08000000103070000000703010000004F
:10174400000080C0E0C08000000000040607070716
:10175400070707070604002060E0E0E0E0E0E0E0BF
:1017640060200000000001030703010000000000E6
:101774000000000000000000000000000000000065
:10178400000000000000000000007CFFFF7C00005F
:1017940000000000000000333300000000000000DF
:1017A400003C3C00003C3C00000000000000000045
:1017B40000000000000000001090F07E1E90F07EFB
:1017C4001E1000021E1F03021E1F03020000000061
:1017D40078FCCCFFFFCCCC8800000000040C0C3F4C
:1017E4003F0C0F07000000003838380080C0E0705C
:1017F400381C0030381C0E0703013838380000004C
:1018040000B8FCC6E23E1C00000000001F3F31216E
:10181400371E1C36220000000000273F1F00000076
:1018240000000000000000000000000000000000B4
:1018340000F0FCFE070101000000000000030F1F80
:10184400382020000000000000010107FEFCF00029
:1018540000000000002020381F0F030000000000DB
:1018640098B8E0F8F8E0B898000000000C0E030FF8
:101874000F030E0C00000000808080F0F080808058
:10188400000000000101010F0F0101010000000030
:101894000000000000000000000000000000B8F894
:1018A40078000000000000008080808080808080BC
:1018B400000000000101010101010101000000001C
:1018C40000000000000038383800000000003838FC
:1018D400380000000000000000000080C0E0703804
:1018E4001C0E00181C0E070301000000000000F885
:1018F400FE060383C363331EFEF800071F1E333145
:10190400303030181F070000000C0C0EFFFF0000E1
:1019140000000000003030303F3F30303000001C09
:101924001E07030383C3E3773E1C0030383C3E3775
:10193400333130303030000C0E070303C3C3C3E728
:101944007E3C000C1C383030303030391F0E00C063
:10195400E070381C0E07FFFF0000000303030303BD
:1019640003033F3F0303003F7F636363636363E3F6
:10197400C383000C1C383030303030381F0F00C0A7
:10198400F0F8DCCEC7C3C3C38000000F1F3930306A
:10199400303030391F0F00030303030303C3F33F45
:1019A4000F0300000000303C0F03000000000000A3
:1019B400BCFEE7C3C3C3E7FEBC00000F1F393030D1
:1019C400303030391F0F003C7EE7C3C3C3C3C3E7C5
:1019D400FEFC000000303030381C0E07030000000D
:1019E40000007070700000000000000000001C1C6B
:1019F4001C00000000000000000070707000000077
:101A04000000000000009CFC7C00000000000000BE
:101A1400C0E0F0381C0E07030000000000010307BB
:101A24000E1C383000000000606060606060606020
:101A3400600000000606060606060606060000000C
:101A440003070E1C38F0E0C00000000030381C0E04
:101A5400070301000000001C1E070383C3E3773E55
:101A64001C0000000000003737000000000000F8F0
:101A7400FE07F3FB1BFBFB07FEF8000F1F183337B1
:101A8400363737360301000000E0FC1F1FFCE0007E
:101A9400000000383F0706060606073F380000FF2F
:101AA400FFC3C3C3C3E7FEBC0000003F3F30303078
:101AB4003030391F0F0000F0FC0E07030303070E3C
:101AC4000C0000030F1C38303030381C0C0000FFB1
:101AD400FF03030303070EFCF000003F3F303030E8
:101AE40030381C0F030000FFFFC3C3C3C3C3C303C9
:101AF4000300003F3F30303030303030300000FFE2
:101B0400FFC3C3C3C3C3C3030300003F3F000000BC
:101B140000000000000000F0FC0E0703C3C3C3C7AD
:101B2400C60000030F1C38303030303F3F0000FF48
:101B3400FFC0C0C0C0C0C0FFFF00003F3F000000A6
:101B44000000003F3F000000000303FFFF03030009
:101B5400000000000030303F3F3030000000000043
:101B640000000000000000FFFF00000E1E383030AF
:101B74003030381F070000FFFFC0E0F0381C0E07AC
:101B84000300003F3F000103070E1C38300000FF34
:101B9400FF000000000000000000003F3F30303034
:101BA40030303030300000FFFF1E78E0E0781EFF58
:101BB400FF00003F3F0000010100003F3F0000FF25
:101BC400FF0E38F0C00000FFFF00003F3F000000A0
:101BD40003071C3F3F0000F0FC0E070303070EFC45
:101BE400F00000030F1C383030381C0F030000FFD6
:101BF400FF8383838383C7FE7C00003F3F01010191
:101C040001010100000000F0FC0E070303070EFCB5
:101C1400F00000030F1C3830363E1C3F330000FF39
:101C2400FF8383838383C7FE7C00003F3F0101035E
:101C3400070F1D383000003C7EE7C3C3C3C3C78E03
:101C44000C00000C1C3830303030391F0F000000FD
:101C5400030303FFFF030303000000000000003F31
:101C64003F000000000000FFFF000000000000FF34
:101C7400FF0000071F3830303030381F07000007DE
:101C84003FF8C00000C0F83F0700000000010F3E0D
:101C94003E0F0100000000FFFF000080800000FFF5
:101CA400FF00003F3F1C060303061C3F3F000003E8
:101CB4000F1C30E0E0301C0F030000303C0E030129
:101CC40001030E3C300000030F3CF0C0C0F03C0F99
:101CD400030000000000003F3F000000000000037C
:101CE400030303C3E3331F0F030000303C3E3331CF
:101CF400303030303000000000FFFF0303030300E6
:101D040000000000003F3F30303030000000000E83
:101D14001C3870E0C08000000000000000000000DB
:101D24000103070E1C1800000003030303FFFF0058
:101D34000000000000303030303F3F000000006001
:101D440070381C0E070E1C38706000000000000084
:101D5400000000000000000000000000000000007F
:101D6400000000C0C0C0C0C0C0C0C0C0C0C000002F
:101D7400003E3F39000000000000000000000000A9
:101D8400000000000000000040606060606060E0EF
:101D9400C000001C3E3333333333333F3F0000FF76
:101DA400FFC060606060E0C08000003F3F303030C2
:101DB4003030381F0F000080C0E06060606060C099
:101DC4008000000F1F383030303030180800008099
:101DD400C0E0606060E0C0FFFF00000F1F383030DB
:101DE4003030303F3F000080C0E06060606060C021
:101DF4008000000F1F3B333333333313010000C023
:101E0400C0FCFEC7C3C3030000000000003F3F0046
:101E14000000000000000080C0E06060606060E0DE
:101E2400E0000003C7CECCCCCCCCE67F3F0000FF63
:101E3400FFC0606060E0C0800000003F3F00000021
:101E440000003F3F00000000000060ECEC000000D8
:101E5400000000000030303F3F3030000000000040
:101E64000000000060ECEC00000000000060E0C036
:101E7400C0FF7F0000000000FFFF0080C0E06000A2
:101E8400000000003F3F03070F1C38300000000033
:101E9400000003FFFF000000000000000030303F9E
:101EA4003F303000000000E0C0E0E0C0C0E0E0C02F
:101EB4008000003F3F00003F3F00003F3F00000024
:101EC400E0E060606060E0C0800000003F3F000030
:101ED4000000003F3F000080C0E060606060E0C040
:101EE4008000000F1F3830303030381F0F0000E002
:101EF400E06060606060E0C0800000FFFF0C1818C4
:101F040018181C0F07000080C0E06060606060E08B
:101F1400E00000070F1C181818180CFFFF00000041
:101F2400E0E0C060606060E0C00000003F3F00008F
:101F340000000000000000C0E060606060604000DD
:101F44000000001133333333333F1E0000000060C0
:101F540060FEFE606060000000000000001F3F3073
:101F640030303000000000E0E0000000000000E03D
:101F7400E000000F1F3830303030183F3F00006061
:101F8400E0800000000080E06000000001071E38CF
:101F9400381E0701000000E0E00000E0E00000E07F
:101FA400E00000071F381C0F0F1C381F07000060DB
:101FB400E0C0800080C0E06000000030381D0F07E2
:101FC4000F1D38300000000060E080000080E060F9
:101FD400000000000081E77E1E0701000000006091
:101FE40060606060E0E0602000000030383C363320
:101FF400313030300000000080C0FC7E0703030352
:102004000000000000011F3F7060606000000000DD
:10201400000000FFFF000000000000000000003F7F
:102024003F00000000000000030303077EFCC080A3
:1020340000000000606060703F1F0100000000109D
:10204400180C040C1810180C040000000000000008
:10205400000000000000000080C060303060C080DC
:102064000000000F0F0C0C0C0C0C0C0F0F0000F0F8
:10207400FC0E0703030303FFFF00003F3F030303BA
:102084000303033F3F0000FFFFC3C3C3C3C3C383B2
:102094000300003F3F3030303030391F0F0000FF65
:1020A400FFC3C3C3C3E7FEBC0000003F3F30303072
:1020B4003030391F0F0000FFFF0303030303030342
:1020C4000300003F3F00000000000000000000F09B
:1020D400FC0E0703030303FFFF00F0FF3F30303023
:1020E4003030303FFFF000FFFFC3C3C3C3C3C3039B
:1020F4000300003F3F3030303030303030000F3E8E
:10210400F8E0C0FFFFC0E0F81E073C1F0701003FD6
:102114003F0001071F3C000C0E07C3C3C3C3C3E742
:102124007E3C000C1C383030303030391F0E00FF3C
:10213400FF0000C0F0380EFFFF00003F3F1C070304
:102144000000003F3F0000FFFF0000C6F3380EFF11
:10215400FF00003F3F1C07030000003F3F0000FF5B
:10216400FFC0E0F0381C0E070300003F3F000103EE
:10217400070E1C38300000F0FC0E0703030303FFB6
:10218400FF00003F3F0000000000003F3F0000FF51
:10219400FF1E78E0E0781EFFFF00003F3F000001D3
:1021A4000100003F3F0000FFFFC0C0C0C0C0C0FF2F
:1021B400FF00003F3F0000000000003F3F0000F030
:1021C400FC0E070303070EFCF00000030F1C38305D
:1021D40030381C0F030000FFFF030303030303FF56
:1021E400FF00003F3F0000000000003F3F0000FFF1
:1021F400FF8383838383C7FE7C00003F3F0101018B
:1022040001010100000000F0FC0E07030303070EA8
:102214000C0000030F1C38303030381C0C00000058
:10222400030303FFFF030303000000000000003F5B
:102234003F0000000000007FFFC0C0C0C0C0C0FF5E
:10224400FF000018383030303030381F070000F8F5
:10225400FC0C0CFFFF0C0CFCF80000030706063F07
:102264003F060607030000030F1C30E0E0301C0F9C
:10227400030000303C0E030101030E3C300000FF5C
:10228400FF0000000000FFFF0000003F3F3030303F
:1022940030303FFFF000007FFFC0C0C0C0C0C0FFAF
:1022A400FF000000000000000000003F3F0000FFAE
:1022B400FF0000FFFF0000FFFF00003F3F30303F02
:1022C4003F30303F3F0000FFFF0000FFFF0000FFF2
:1022D400FF00003F3F30303F3F30303FFFF00F0FF3
:1022E40003FFFF606060E0C080000000003F3F30FB
:1022F4003030381F0F0000FFFF6060E0C08000FF37
:10230400FF00003F3F3030381F0F003F3F0000FF09
:10231400FF6060606060E0C08000003F3F303030AC
:102324003030381F0F00000C0E07C3C3C3C7CEFCE8
:10233400F000000C1C38303030381C0F0300FFFF55
:10234400C0F0FC0E0703070EFCF03F3F00030F1C18
:102354003830381C0F03007CFEC78383838383FFDC
:10236400FF000030381D0F070301013F3F0000004C
:1023740040606060606060E0C000001C3E33333346
:102384003333333F3F0000F0F898D8D8D8D8D88CEE
:102394000000001F3F3130303030391F0F00000083
:1023A400E0E060606060E0C0000000003F3F323267
:1023B40032323F1D00000000E0E060606060606059
:1023C400000000003F3F000000000000000000008B
:1023D40080C060606060E0E0000000F0FF3F3030EB
:1023E40030303FFFF0000080C0E06060606060C09B
:1023F4008000000F1F3B333333333313010060E09D
:10240400C08000E0E00080C0E06030381F07033F78
:102414003F03071F3830000080C060606060C080E8
:10242400000000000818303232321F0D0000000096
:10243400E0E00000000080E0E00000003F3F180CF6
:102444000603013F3F000000E0E00000180C80E0BC
:10245400E00000003F3F180C0603013F3F0000006E
:10246400E0E00080C0E06000000000003F3F0307A0
:102474000F1C38300000000080C060606060E0E045
:10248400000000003F3F000000003F3F000000E06C
:10249400E0E0C00000C0E0E0E000003F3F000103D6
:1024A4000301003F3F000000E0E00000000000E006
:1024B400E00000003F3F06060606063F3F0000809E
:1024C400C0E060606060E0C08000000F1F38303002
:1024D4003030381F0F000000E0E06060606060E0B2
:1024E400E00000003F3F00000000003F3F0000E02C
:1024F400E06060606060E0C0800000FFFF0C1818BE
:1025040018181C0F07000080C0E06060606060C0A5
:102514008000000F1F3830303030301808000000C1
:10252400606060E0E0606060000000000000003F68
:102534003F0000000000000060E080000080E060D8
:10254400000000000081E77E1E07010000000080FB
:10255400C0C0C0E0E0C0C0C08000001F3F3030FFFA
:10256400FF30303F1F000060E0C0800080C0E060AA
:1025740000000030381D0F070F1D38300000000028
:10258400E0E000000000E0E0000000003F3F3030E9
:1025940030303FFFF0000000E0E000000000E0E029
:1025A400000000000307060606063F3F000000E0A7
:1025B400E00000E0E00000E0E000003F3F30303F9A
:1025C4003F30303F3F0000E0E00000E0E00000E08A
:1025D400E000003F3F30303F3F30303FFFF000E04D
:1025E400E060E0E0000000000000000000003F3F69
:1025F4003333333F1E0000E0E0000000000000E041
:10260400E000003F3F3333333F1E003F3F000000F4
:10261400E0E0000000000000000000003F3F333312
:1026240033333F1E00000080C06060606060C08083
:102634000000000818303033333B1F0F000000E067
:10264400E00080C0E060E0C08000003F3F030F1F57
:102654003830381F0F000000C0E060606060E0E0C8
:1026640000000000313B1E0E06023F3F000000FF49
:102674000601000000000000003C42423C00000053
:10268400047E0000004462524C000024424A34009C
:102694000030367F363000185C7E5C18081830181D
:1026A4000C0600183C3C1800003E3E003E3EFFC3B2
:1026B400DBDBC3FF002C122A241A000609090600DA
:1026C4000060703F0204005C6202625C002A1C36F7
:1026D4001C2A00007F3E1C0800081C3E7F000014DA
:1026E400367F36140044445F44440006097F017F6A
:1026F40000224D5559220060606060000048645417
:1027040048000004067F06040010307F30100008E3
:10271400083E1C0800081C3E080800784040404061
:1027240000081C081C0800303C3F3C3000030F3FED
:102734000F030000000000000000065F0600000711
:102744000300070300247E247E2400242B6A120045
:1027540000631308646300364956205000000700E4
:10276400000000003E4100000000413E000000085F
:102774003E1C3E080008083E08080000E060000017
:102784000008080808080060600000000020100825
:102794000402003E4149413E0000427F4000006285
:1027A40051494946002241494936001814127F1004
:1027B400002F49494931003C4A4949300001710917
:1027C400050300364949493600064949291E0000D7
:1027D4006C6C00000000EC6C000000081422410046
:1027E4000024242424240000412214080002015956
:1027F4000906003E415D551E007E1111117E007FC9
:1028040049494936003E41414122007F4141413E10
:10281400007F49494941007F09090901003E4149B6
:10282400497A007F0808087F0000417F410000309A
:102834004040403F007F08142241007F4040404018
:10284400007F0204027F007F0204087F003E4141B2
:10285400413E007F09090906003E4151215E007F87
:10286400090919660026494949320001017F01011D
:10287400003F4040403F000718601807003F403CBD
:10288400403F0063140814630007087008070071D0
:102894004945430000007F41410000020408102024
:1028A400000041417F000004020102048080808016
:1028B4008080000007060000002054545478007FF4
:1028C4004444443800384444442800384444447F51
:1028D40000385454540800087E0909000018A4A4C0
:1028E400A47C007F040478000000007D40000040C8
:1028F40080847D00007F102844000000007F400099
:10290400007C04180478007C0404780000384444F3
:10291400443800FC444444380038444444FC0044F3
:102924007844040800085454542000043E444400ED
:10293400003C40207C00001C2040201C003C6030F7
:10294400603C006C10106C00009CA0603C000064B3
:1029540054544C0000083E41410000007700000040
:10296400000041413E08000201020100003C262310
:10297400263C007E1111117E007F49494931007FB8
:1029840049494936007F01010101C07E41417FC0B0
:10299400007F494949410077087F0877224949491E
:1029A4003600007F2010087F007E2111097E007F01
:1029B4000814224100407E01017F007F0204027F4F
:1029C400007F0808087F003E4141413E007F01012D
:1029D400017F007F09090906003E414141220001AF
:1029E400017F010100274848483F000E117F110E66
:1029F400006314081463007F40407FC00007080888
:102A0400087F007F407F407F007F407F40FF0301BD
:102A14007F484830007F4848307F007F484848302E
:102A240000224149493E007F083E413E00661909A3
:102A3400097F002054545478003C4A4A4A31007CAF
:102A440054545428007C04040404C07844447CC0D6
:102A5400003854545408006C107C106C0028445402
:102A64005428007C2010087C007C20120A7C007C06
:102A740010284400403804047C00007C0810087CC2
:102A8400007C1010107C003844444438007C04045A
:102A9400047C00FC44444438003844444428000482
:102AA400047C0404009CA0603C000018247C2418CE
:102AB400006C10106C00007C40407CC0000C1010B6
:102AC400107C007C407C407C007C407C40FC0C04FE
:102AD4007C505020007C5050207C007C5050502072
:102AE400002844545438007C1038443800483414C6
:102AF400147C0E94E115089581158115B115857D19
:102B0400767069635E59544F4A46423E3B37373BC1
:102B1400424A545E6976850000000000000000000F
:102B240000000000000000000000000000000000A1
:102B34000000000000000000000000000000000091
:102B44000000000000000000000000000000000081
:102B540000000000000000000000000000004646E5
:102B64004646464646464646000000000000000031
:102B74000000464646464646464646460000000095
:102B84000000000000000000000000000000000041
:102B94000000000000000000000000000000000031
:102BA4000000000000000000000000000000000021
:102BB4000000000000000000000000000000EF938F
:102BC400FF930F931F930091DD01002309F427C0A5
:102BD400ECEFFAE211270370E00FF11FE00FF11F91
:102BE40005911491F801EE0FFF1F0091DC0110E034
:102BF400E00FF11F0395003608F000270093DC0175
:102C04000491002339F00093B30002E10093B00073
:102C14002D9A0DC002E00093B0002D9808C002E088
:102C24000093B00000270093DC012D9800C01F9191
:102C34000F91FF91EF9108950F93AF93BF93CF93AB
:102C4400DF93EF93FF93013031F000E00093FC0138
:102C54000093FD011DC0A091FE01B091FF01C09140
:102C6400FC01D091FD01E4E6F0E0CA17DB0710F0A7
:102C740049F006C0CE0FDF1FAC17BD0708F002C035
:102C8400ED0100C0C093FC01D093FD010E94BD067C
:102C9400FF91EF91DF91CF91BF91AF910F91089583
:102CA4000E945C190E9424170091DF0103FD5BC0A0
:102CB4000091E00105FF06C00F7D0093E0010E9432
:102CC400C41909C00E94E5190091E403002319F016
:102CD40002E00E94642A0091E101077002FF12C021
:102CE40000000091160210911702010F0330D9F170
:102CF40003E010E0009316021093170208E80E9404
:102D04004D2131C001FF12C0000000911602109144
:102D14001702010F023039F102E010E000931602AD
:102D24001093170208E80E944D211DC000FD12C037
:102D340000000091160210911702010F013099F062
:102D440001E010E0009316021093170208E80E94B5
:102D54004D2109C00027009317020093160208E8CA
:102D64000E944D2100C008950E94C21E0E94851E2B
:102D740000910F01002331F40E9439070E94D70704
:102D84000E94BE090E946E240E94FD160DE80E9456
:102D94004D210EE80E944D21009116021091170258
:102DA400011739F0009317021093160208E80E94E5
:102DB4004D2103E00E94642A0E94E11608950F93B6
:102DC4001F932F9300911302003089F00091140295
:102DD400053069F00091DE010C3320F40395009373
:102DE400DE0105C000E00093DE010E947D042F9106
:102DF4001F910F910895EF93FF93E091D801F09103
:102E0400D9013196E093D801F093D901FF91EF9164
:102E14000895CF93DF93C9E1D2E00F9300581127AF
:102E2400C00FD11FC00FD11F0981007600360F914A
:102E340031F40F930E9461210E94CF200F91DF9102
:102E4400CF91089505E8003C20F40E940B170395E8
:102E5400FACF0895E8E7F0E00E94E318602F0E949B
:102E6400E318702F0E94E318802F0E94E318902F1C
:102E74005FEF4FEF3FEF2FEF0E94B11D09F05AC0F3
:102E8400ECE9F2E0CDE8D1E00591099305910993CD
:102E94000591099305910993059109930591099366
:102EA4000591099305910993059109930591099356
:102EB4000591099305910993059109930591099346
:102EC4000591099305910993059109930591099336
:102ED4000591099305910993C6EFD3E005910993F0
:102EE4000591099305910993059109930E94781816
:102EF400E4EBF2E0C1EFD1E0059109930591099368
:102F040005910993059109936091F1017091F20182
:102F14008091F3019091F401E8E7F0E0062F0E941C
:102F2400C918072F0E94C918082F0E94C918092F11
:102F34000E94C9180895E8E7F0E00E94E318602FA2
:102F44000E94E318702F0E94E318802F0E94E31858
:102F5400902F50E041E036E820EA0E94B11D38F09D
:102F640050E046E133EE20E60E94B11D20F090E0EF
:102F740084E073E960EE6093F1017093F201809351
:102F8400F3019093F40150E040E030E024E60E9425
:102F9400161D6093F5017093F6018093F7019093E9
:102FA400F801E4E6F0E0CDE8D1E00E94E3180993EB
:102FB4000E94E31809930E94E31809930E94E318FE
:102FC40009930E94E31809930E94E31809930E944D
:102FD400E31809930E94E31809930E94E3180993E4
:102FE4000E94E31809930E94E31809930E94E318CE
:102FF40009930E94E31809930E94E31809930E941D
:10300400E31809930E94E31809930E94E3180993B3
:103014000E94E31809930E94E31809930E94E3189D
:103024000993ECE7F0E0C6EFD3E00E94E3180993BC
:103034000E94E31809930E94E31809930E94E3187D
:103044000993A0E0B0E0A0930002B09301020E94B3
:103054008F06A0E0B0E0A093FE01B093FF010E94B0
:10306400BD0608956091E9017091EA018091EB0138
:103074009091EC0150E041E036E820EA0E94B11D55
:10308400A0F150E046E133EE20E60E94B11D68F560
:1030940050E040E030E024E60E94161D6093F50104
:1030A4007093F6018093F7019093F80150E040E0AB
:1030B40030E024E60E94F21C6093F1017093F20167
:1030C4008093F3019093F401E8E7F0E0062F0E9467
:1030D400C918072F0E94C918082F0E94C918092F60
:1030E4000E94C9180BE80E944D210895E4E6F0E01F
:1030F400CDE8D1E009910E94C91809910E94C9182C
:1031040009910E94C91809910E94C91809910E9445
:10311400C91809910E94C91809910E94C9180991F6
:103124000E94C91809910E94C91809910E94C918DE
:1031340009910E94C91809910E94C91809910E9415
:10314400C91809910E94C91809910E94C9180991C6
:103154000E94C91809910E94C91809910E94C918AE
:1031640009910E94C91809910E94C918ECE7F0E07E
:10317400C6EFD3E009910E94C91809910E94C918A9
:1031840009910E94C91809910E94C9180895F999D2
:10319400FECF0F920FB60F921F93F8940F930E94D5
:1031A400E318102F0F913197011729F0E1BDF2BDFB
:1031B40000BDFA9AF99A1F910F900FBE0F903196A5
:1031C4000895F999FECFE1BDF2BDF89A00B53196A4
:1031D400089518950F931F930F920FB60F9209B18C
:1031E400007C1091E401103021F4003001F510E866
:1031F4001EC0003C61F0003821F413951A3F88F496
:1032040016C0003419F41A95153020F010C0103887
:1032140071F038F00091E00102600093E0011127A1
:1032240006C00091E00101600093E00111271093B2
:10323400E4010F900FBE0F901F910F91189509B1E3
:1032440000721FEF012705FBA5EEB1E0C7EED1E048
:103254000E943D190E944B191091E0010091E70171
:10326400007E003A11F4186003C0003409F41460BD
:103274001093E00108950C911FE02EF01A950117A8
:1032840031F0039504C01195011709F00A950C93C8
:103294000895188117FB0C91002342F056F416FD93
:1032A40003C01F77106404C0112702C016F010E891
:1032B40018830895C7EED1E021E0199117FB76F445
:1032C40016FB66F0012F0F710F3141F00395107E4C
:1032D400102B0A3008F010621A9319912A9569F795
:1032E40008950F931F93CF93DF93C7EED1E011E0BE
:1032F4000FEF09931A95E9F7DF91CF911F910F9181
:1033040008950F9304EA0093BC001FD00F91089511
:103314000F9304E90093BC000F9108950F93009359
:10332400BB0004E80093BC0010D00F91089504EC96
:103334000093BC000AD00091BB00089504E80093F8
:10334400BC0003D00091BB000895EF93FF93F3E01A
:10335400E8EE989400E031973196319731963197A1
:103364003196319739F00091BC0007FFF4CF0091FA
:10337400B90003C00E948A1900E000930401FF9180
:10338400EF9108950F920FB60F920F930E94831935
:1033940002E30E94901900910401083109F00CC065
:1033A4000091EC030E9490190091ED030E94901982
:1033B4000091EE030E9490190E948A190F910F90B8
:1033C4000FBE0F9008950F920FB60F920F931F9395
:1033D4002F9322270E94831902E301600E9490190F
:1033E40000910401003451F000C00E948A190FEFCB
:1033F4000093E90308EA0E944D2159C00E949919DB
:103404001091E5030093E503101321600E949919BC
:103414001091E6030093E603101321600E949919AA
:103424001091E7030093E703101322600E94991997
:103434001091E8030093E803101322600E94A0197E
:103444000F930F701091E9030093E90310132460A4
:103454000F910F9310E004FD1FEF012F1091EB0368
:103464000093EB03101328600F9110E005FD1FEF8C
:10347400012F1091EA030093EA03101320610E94C4
:103484008A192093E40320FF03C009EA0E944D2116
:1034940021FF03C00AEA0E944D2122FF03C008EA6B
:1034A4000E944D2123FF03C00BEA0E944D212F915E
:1034B4001F910F910F900FBE0F9008950F920FB6AA
:1034C4000F920F931F932F931091DF0111601093AC
:1034D400DF010091D501093020F012601093DF0163
:1034E4000FEF03950093D501B8F00091D601093090
:1034F40020F014601093DF010FEF03950093D601C1
:1035040058F00091D701093020F018601093DF01C2
:103514000FEF03950093D701AF93BF93CF93DF933E
:10352400EF93FF930E942119FF91EF91DF91CF91C7
:10353400BF91AF912F911F910F910F900FBE0F90DC
:1035440018950F920FB60F92AF93BF93CF93DF935B
:10355400EF93FF930F931F932F933F934F935F9397
:103564006F937F938F939F9309B104FD03C004FF6E
:1035740020C060C0A091FE01B091FF0110E0A1172E
:10358400B10709F457C0C091F901D091FA01A09193
:10359400FB01D0938900C0938800A093810000911F
:1035A400E10100FF47C001FD45C002FD43C05C9836
:1035B40041C05C9AA091E901B091EA01C091EB018C
:1035C400D091EC01119608F42196A093E901B093EF
:1035D400EA01C093EB01D093EC010AE80E944D216B
:1035E400A091ED01B091EE01C091EF01D091F001F5
:1035F40010E0A117B107C107D10709F41BC0119747
:1036040008F42197A093ED01B093EE01C093EF016C
:10361400D093F00110E0A117B107C107D10751F40D
:103624000091E10102600093E1010E948F0602E033
:103634000093DD019F918F917F916F915F914F91E5
:103644003F912F911F910F91FF91EF91DF91CF91B6
:10365400BF91AF910F900FBE0F901895D580A83FE2
:10366400D300408D14A1C8DA1281FFD922DB30A423
:10367400A60010B0AF00EF93FF93F3ECE0E53197B1
:10368400319631973196319731963197C1F7F3ECF2
:10369400E0E53197319631973196319731963197EC
:1036A400C1F7FF91EF910E94831908E70E949019D6
:1036B40000E00E94901918E1E0E6F6E305910E940B
:1036C40090191A951123D1F70E948A1908950F931E
:1036D4000E94831908E70E94901900EC0E94901937
:1036E4000F911F9310910B0101271F910E949019B4
:1036F4000E948A190091050103950F770093050133
:1037040008950F931F932F93212F102F10930501CA
:10371400209306010E94831908E70E94901900E093
:103724000E949019022F0770006B0E949019012FBC
:103734000F700E949019012F02950F7000610E9472
:1037440090190E948A192F911F910F9108950F9338
:103754001F932F930E94051C28E010E82A951F93BD
:103764002F9310E01093050120930601012F122FCF
:103774000E94831B2F911F910E94831908E70E94C6
:10378400901900E40E94901900E00E9490191A9583
:10379400D9F70E948A19222301F72F911F910F91C3
:1037A40008950E94831908E70E94901900E80E9476
:1037B40090190FEA0E9490190E948A190895CF93D4
:1037C400DF930F9300581127C9E1D2E0C00FD11F36
:1037D400C00FD11F0981006409830F91DF91CF913C
:1037E4000895CF93DF930F9300581127C9E1D2E0D6
:1037F400C00FD11FC00FD11F09810F7B09830F9107
:10380400DF91CF910895CF93DF930F931F93C9E175
:10381400D2E000E4002331F00A9519811F7D198359
:103824002296F8CF1F910F91DF91CF910895CF93F6
:10383400DF930F931F932F933F934F93C9E1D2E0EC
:1038440000E43091050140910601002369F00A95D6
:1038540018811F77298127701317240719F42981E8
:103864002F7D29832296F1CF4F913F912F911F9164
:103874000F91DF91CF9108950F920FB60F924F934E
:103884005F936F937F938F939F93FF93EF9397FD32
:103894000E949F1D40E2EE24DD24CC24BB24AA24F4
:1038A400FF27660F771F881F991FAA1CBB1CCC1CFF
:1038B400DD1CEE1C4A9561F0EFE052915D5F53FD13
:1038C40050835081505D57FD5083EA30B1F7E9CF02
:1038D4005A2D5F705063509309025A2D52955F70B0
:1038E400506350930A025B2D5F70506350930B0238
:1038F4005B2D52955F70506350930C025C2D5F708A
:10390400506350930D025C2D52955F705063509339
:103914000E025D2D5F70506350930F025D2D529522
:103924005F705063509310025E2D5F70506350932C
:1039340011025E2D52955F70506350931202EF9105
:10394400FF919F918F917F916F915F914F910F9014
:103954000FBE0F9008950F931F935F934F933F9360
:103964002F93CF93DF9320E039E0C2E1D2E00091BE
:103974000D01301751F048F00881003331F400E2B2
:103984000883219723953A9591F720930E010027F8
:1039940000930D01DF91CF912F913F914F915F9152
:1039A4001F910F9108952FE223950456E8F71AE327
:1039B4001A95065FE8F3004D08950F920FB60F9223
:1039C400102F0F70107F1295005D0A3308F0095F05
:1039D400105D1A3308F0195F0F900FBE0F90089511
:1039E4007F93629FB001829FC0010F90029E700D71
:1039F400811D0024901D0895629F1001829F200163
:103A0400729F300C411C1124511C639F300C411CCB
:103A14001124511C739F400C511C839F500CB10105
:103A2400C2010895689400C0002411242224332480
:103A340010E2660F771F881F991F001C111C221C9F
:103A4400331C021A130A240A350A28F4020E131E20
:103A5400241E351E01C061601A9559F75695479585
:103A6400379527951795201531054205530530F4F0
:103A740011E0610F10E0711F811F911F111F221FA0
:103A8400331F441F551F0895952797FB952797FDCE
:103A94000E949F1D57FD0E94A81D0E94161D16F42A
:103AA4000E949F1D0895AB01429FB001539FC00126
:103AB400529F2224700D811D921D349F2224700D6B
:103AC400811D921D0895AB01429FB0015302C001B4
:103AD400520311271040700D811D911F34031127CB
:103AE4001040700D811D911F08951F71112331F035
:103AF4001A959695879577956795F8CF08951F71D0
:103B0400112331F01A95660F771F881F991FF8CF7C
:103B140008951F71112331F01A959695879577951D
:103B24006795F8CF0895620F731F841F951F08953A
:103B3400621B730B840B950B0895609570958095AB
:103B440090956F5F7F4F8F4F9F4F089520953095CD
:103B5400409550952F5F3F4F4F4F5F4F0895621729
:103B640073078407950708959B01AC010895B90173
:103B7400CA0108950F930FB70F931F930FEF07B95F
:103B84000F931F930DEC17E001501040E8F71F91BD
:103B94000F9100EF07B90F931F930DEF10E0015041
:103BA4001040E8F71F910F9116B11F700F931F93E8
:103BB4000DEC16E001501040E8F71F910F9106B18B
:103BC4000F70012B1027109384011F910F910FBFC9
:103BD4000F9108950F930FB70F930FEF07B900EFED
:103BE40008B90F931F9302E10150F0F71F910F9151
:103BF40000918301006F08B90F931F9305EE10E045
:103C040001501040E8F71F910F9100EF07B900EF42
:103C140008B90F931F9307E20150F0F71F910F911A
:103C24000F910FBF0F9108951F931FB71F930F9309
:103C34002F9318E0103061F01A9500FF20E000FD8A
:103C44002FE00795209383010E94EC1D0C941C1E09
:103C54002F910F911F911FBF1F9108950F930FB7BD
:103C64000F930FEF07B90F931F9302E10150F0F781
:103C74001F910F9100EF07B90F931F9302E30150B7
:103C8400F0F71F910F9106B10F70009383010F930A
:103C94001F930DED10E001501040E8F71F910F91B4
:103CA4000F910FBF0F9108950F930FB70F931F93A9
:103CB4004F935F936F937F93442755276627772706
:103CC40018E0103079F01A950E94301E009183019B
:103CD40007954795079557950795679507957795A0
:103CE4000C94631E40937F01509380016093810183
:103CF400709382017F916F915F914F911F910F910A
:103D04000FBF0F9108950F930E94BC1D0CEC0E94ED
:103D1400161E04E40E94161E0F910895EF93FF935C
:103D2400CF93DF930F93E5E8F1E0C5EAD1E0019189
:103D340009930191099301910993019109930191C7
:103D440009930191099301910993019109930F91A9
:103D5400DF91CF91FF91EF910895EF93FF93CF936C
:103D6400DF93E8E0DCE8F12FF02716950695F0FDE7
:103D74001D27EA95C1F7DF91CF91FF91EF91089547
:103D84000F931F932F93AF93BF93CF93DF93EF932F
:103D9400FF930E94901E0E94BC1D0CEC0E94161EF4
:103DA4000EEB0E94161EEDEAF1E0C1EDD1E0002712
:103DB400088309830A830B8328E00E94561EAFE719
:103DC400B1E00D91008318810E94AF1E18830D91FC
:103DD400018719810E94AF1E19830D91028B1A81EC
:103DE4000E94AF1E1A830D91038F1B810E94AF1E88
:103DF4001B8331962A9509F70E94561EAFE7B1E05E
:103E04000D9100831881011741F02091A5012093A1
:103E1400AD012091A6012093AE010D910187198176
:103E2400011741F02091A7012093B6012091A80128
:103E34002093B7010D91028B1A81011741F0209153
:103E4400A9012093BF012091AA012093C0010D91E3
:103E5400038F1B81011741F02091AB012093C8010E
:103E64002091AC012093C901EDEAF1E0C5E8D1E06D
:103E740000810993018109930185099302850993BE
:103E84000289099303890993038D0993048D099386
:103E9400E0E0F0E80091840100FD04C0E0938501B6
:103EA400F093860101FD04C0E0938701F09388013B
:103EB40002FD04C0E0938901F0938A0103FD04C06C
:103EC400E0938B01F0938C01E0E0F0E8A091A50170
:103ED400B091A601C0918501D0918601AE17BF07AC
:103EE40039F0AC17BD0779F000E90E944D210BC0F1
:103EF400E0E5F5E0CE17DF07A1F7C0E0D0E8C09316
:103F04008501D0938601E0E0F0E8A091A701B0918B
:103F1400A801C0918701D0918801AE17BF0739F07D
:103F2400AC17BD0779F001E90E944D210BC0E0E513
:103F3400F5E0CE17DF07A1F7C0E0D0E8C093870112
:103F4400D0938801E0E0F0E8A091A901B091AA0122
:103F5400C0918901D0918A01AE17BF0739F0AC171F
:103F6400BD0779F002E90E944D210BC0E0E5F5E0C0
:103F7400CE17DF07A1F7C0E0D0E8C0938901D09342
:103F84008A01E0E0F0E8A091AB01B091AC01C091EE
:103F94008B01D0918C01AE17BF0739F0AC17BD0768
:103FA40079F003E90E944D210BC0E0E5F5E0CE175E
:103FB400DF07A1F7C0E0D0E8C0938B01D0938C0158
:103FC40003EB0E944D2104EB0E944D21FF91EF91E0
:103FD400DF91CF91BF91AF912F911F910F910895D0
:103FE4000F920FB60F920F931F932F933F934F93FC
:103FF4000F921F92FF93EF93F198F0980F93009113
:104004000901017010E0EAE6F4E1E00FF11FE00FAE
:10401400F11F05911591000F111F009301011093D9
:104024000201F8010F9115912591359145910032C6
:1040340049F0003031F0011718F0021721F018F0A0
:1040440049C0F09AF19A003828F0003CC8F3103CBB
:1040540008F400540F93011B349F009DE00DF11DE3
:1040640000910501009307010091060100930801E6
:104074000F910E3219F400243695301D4F933F935F
:104084000091050100E0F19B05910E94691B3A959E
:10409400F0993A95A9F702C00591F9CF3F914A9555
:1040A40079F000910701009305010091080103953F
:1040B400077000930601009308010E947920DFCF66
:1040C4004F9100910601041B0395077000930601AC
:1040D4000E947920EF91FF911F900F904F913F9193
:1040E4002F911F910F910F900FBE0F900895009183
:1040F4000501109106010E94831B089571CF0F9250
:104104000FB60F92AF93BF93CF93DF93EF93FF93C9
:104114000F931F932F93EE0FFF1F002700930A01A5
:1041240000910A01063908F02BC0039500930A0197
:1041340005910038F0F009F423C0013819F40E9405
:104144009521EECF033819F40E94A421E9CF043855
:1041540019F40E94AB21E4CF053819F40E94B82168
:10416400DFCF063819F40E94C321DACF003C08F4EB
:1041740004C000300E948020D3CF0E94CF20D0CF33
:104184002F911F910F91FF91EF91DF91CF91BF91EB
:10419400AF910F900FBE0F9008950F920FB60F922C
:1041A400AF93BF93CF93DF93EF93FF930F931F933B
:1041B4002F933F934F935F936F937F938F939F932B
:1041C400ECE5F8E4C9E1D2E00F93005810E0E00F09
:1041D400F11FE00FF11FC00FD11FC00FD11F0591B8
:1041E4001491F801009105010F77088310910601DD
:1041F400177000910901029500710062012B198169
:104204001078012B10910B011F3F11F4006801C0BD
:104214000F7709830F91099500E000930B019F919B
:104224008F917F916F915F914F913F912F911F914A
:104234000F91FF91EF91DF91CF91BF91AF910F90CB
:104244000FBE0F900895CF93DF930F931F93C9E18F
:10425400D2E000581127C00FD11FC00FD11F198100
:104264001F7719831F910F91DF91CF910895CF93F9
:10427400DF930F931F93C9E1D2E000581127C00FB9
:10428400D11FC00FD11F1981106819831F910F917D
:10429400DF91CF910895CF93DF930F931F93C9E1DB
:1042A400D2E000581127C00FD11FC00FD11F1981B0
:1042B400106419831F910F91DF91CF9108950F938B
:1042C4001F93CF93DF93C9E1D2E000581127C00FA9
:1042D400D11FC00FD11F088119810E94831B1F7B2E
:1042E4001062198317FD0FEF17FF00E000930B0115
:1042F40012951F7010930901DF91CF911F910F91B7
:10430400089500E20E9480200DE20E9480200E9415
:1043140080200EE20E9480200DE20E9480200E94F4
:104324008020089508950591017000930001009381
:104334000901089500E000930901089501E0009344
:104344000901089505910F77159117700E94831B39
:104354000895259100910501020F0F772591109181
:104364000601120F17700E94831B089515911123E3
:1043740021F01FEF10930B0103C010E010930B0109
:104384000895CF93DF930F931F930591003C68F436
:10439400003858F000581127C9E1D2E0C00FD11FEE
:1043A400C00FD11F09810F7D09831F910F91DF91E8
:1043B400CF910895EAEBF2E50091180203701127FA
:1043C400E00FF11FE00FF11F05911491F8010E9415
:1043D40081200895E2E1F3E50091160207701127A8
:1043E400E00FF11FE00FF11F05911491F8010E94F5
:1043F400812008950E94612100910F01002301F0A2
:10440400C3E3D1E0688179818A819B810E943E1C4B
:1044140000910D020E94802000910C020E948020D5
:1044240000910B020E9480200EE20E9480200091E5
:104434000A020E948020009109020E9480200895AF
:104444000E946121C9EED1E008E068C00E946121A8
:10445400C1EFD1E007E062C00E946121CEEFD1E05C
:1044640004E057C00E9461216091F1017091F20152
:104474008091F3019091F40150E040E030E024E6B3
:104484000E94161D9B01AC016091E9017091EA0143
:104494008091EB019091EC010E94161D05E042C051
:1044A4000E946121C0910002D091010200E0C01776
:1044B400D00769F40EEE0E94802002EF0E94802053
:1044C4000AEE0E9480200BEE0E94802008956091E5
:1044D400F1017091F2018091F3019091F40150E0A7
:1044E40040E030E024E60E94161D9B01AC0160917F
:1044F400ED017091EE018091EF019091F0010E9425
:10450400161D04E00FC00E946121C0E0D2E004E067
:1045140000C0688179818827992704C068817981DE
:104524008A819B810E943E1C0E94AD1C0930A1F02F
:104534000830B1F00730C1F00630D1F00530E1F0B9
:104544000430F1F0033001F1023011F1013021F1B6
:10455400009112020E948020009111020E9480208A
:10456400009110020E94802000910F020E9480207E
:1045740000910E020E94802000910D020E94802072
:1045840000910C020E94802000910B020E94802066
:1045940000910A020E948020009109020E9480205A
:1045A40008950E94612110918401003929F410FDBD
:1045B40018C00E94832159C0013929F411FD11C08A
:1045C4000E94832152C0023929F412FD0AC00E94BC
:1045D40083214BC0033929F413FD03C00E948321B6
:1045E40044C0C5E8D1E000591127C00FD11FC00F46
:1045F400D11F6881798121E732E00E94651D0E9404
:104604003E1C04E000930D010E94AD1C50E048E9FB
:1046140036E920E80E94B11D50F05FEF40EF30EC26
:1046240021E30E94B11D08F420C00DE202C00091F4
:104634000F020E94F21F00910E020E94F21F0091CD
:104644000D020E94F21F0EE20E94F21F00910C0262
:104654000E94F21F10910A0204E3011710E0009176
:104664000B02011F0E94F21F00C008950E946121E5
:10467400C5E9D1E008591127C00FD11F08810E9454
:10468400D51C103309F410E20F93012F0E948020EF
:104694000F910E94802008950E946121CDE9D1E00C
:1046A400005A1127C00FD11F0881E2E6F3E50F700D
:1046B4001127E00FF11FE00FF11F05911491F8018C
:1046C4000E94812008950E946121C1EAD1E0045A28
:1046D4001127C00FD11F08810E94D51C0F93012FF1
:1046E4000E9480200F910E94802008950E946121E1
:1046F400E2E2FCE40091E9030F3F21F0033028F0EB
:1047040021F00EC0ECE6F6E209C003701127E00FB9
:10471400F11FE00FF11F05911491F8010E9481200F
:1047240008950E946121C5EED3E0688179818827CC
:1047340099270E943E1C01E000930D010E94AD1CCC
:1047440000910C020E94802000910B020E948020A4
:1047540000910A020E9480200EE20E9480200091B3
:1047640009020E94802008950E946121C7EED3E0CF
:10477400DCCF0E9461212091EB031091F4032113FB
:1047840001C008C02093F40300E210E0211307E005
:104794000E94F21F08950E946121CDE9D1E00C5AD4
:1047A400102F1395C00F00E0D01F0881083020F0AF
:1047B4000FEF00930B0103C000E000930B01012FE6
:1047C4000E94F21F08950E9461210091F7030F3F98
:1047D40019F0E4EFF9E202C0E1EFF9E20E9481206E
:1047E40008950E9461210091F6030E94DF1C0E943B
:1047F400F21F08950E946121C8EFD3E00E94FB22BA
:1048040008950E9461210091F60310E9010F0E94AE
:10481400D52208950E9461210091F6031127E5E84D
:10482400F1E0E00FF11FE00FF11FC081D18100E042
:1048340010E80C171D07E6EFFBE409F002C0309600
:1048440005C00091F7030030D1F33296059114911D
:10485400F8010E948120089594219C21A021A42183
:10486400AB219421C321DC21EC21FC21222228222A
:104874002E22342252228522D322D322D322D3229F
:10488400D322D322D322D3223823382338233823E4
:1048940038233823382338234E234E234E234E23E4
:1048A400652365236523652378239323B623BB23DC
:1048B400CD23CD23CD23CD23E523F323FC230324D0
:1048C4000C249421942194219421942194219421C1
:1048D400942194219421C3210F920FB60F92AF9388
:1048E400BF93CF93DF93EF93FF930F921F922F9277
:1048F4003F924F925F926F927F928F929F92AF926C
:10490400BF92CF92DF92EF92FF920F931F932F9358
:1049140000E0A02EB02EC02EB0E0A0E000908401F4
:1049240011241394E5E8F1E0C5E9D1E010910C01FC
:104934001F70043008F088C09C8488847C80688060
:104944002084419030845190079428F01F921122C2
:104954001F9009F474C083FE01C01BC01F92109401
:1049640011211F900F931F9314E9010F0E94252119
:104974000E944D211F910F9162C011290F931F9323
:1049840014E9010F0E9439210E944D211F910F91BA
:1049940056C0421453040CF026C01F9211221F90DB
:1049A40009F41FC0992089F09A949C860F931F9351
:1049B40014EA010F0E944D211F910F9180FCA394D2
:1049C40081FCB39482FCC3943AC00F931F9314E9FF
:1049D400010F0E9425210E944D211F910F916C8689
:1049E400BDCF6C862CC01F9211221F9009F408C001
:1049F4007C8680FCA39481FCB39482FCC3941FC086
:104A0400992059F09A949C860F931F9314EA010FEE
:104A14000E944D211F910F9112C00F931F9314E90F
:104A2400010F0E9439210E944D211F910F9180FC9A
:104A3400A39481FCB39482FCC3947C869ECF889417
:104A4400111C2196039575CF10930C0103B1007FBF
:104A540010951F70012B102F15B90091DD01AA20AC
:104A640011F001E003C0013009F400270093DD01D7
:104A74000091E1010B7F1091E903133011F0BB2089
:104A840009F004600093E101CC2099F01091E9034E
:104A9400133079F00F9303E0CCEED3E00A830FEFE9
:104AA400088309830091E00100620093E0010F9103
:104AB40037C00091F703003009F432C00091F603C7
:104AC4001127E5E8F1E0E00FF11FE00FF11FC081CD
:104AD400D18100E010E80C171D0709F421C0E8EFAC
:104AE400F3E0A081B181CA17DB0708F419C0009173
:104AF400E903013009F014C00091FA03033020F4F3
:104B040003950093FA030FC000E0CCEED3E00A83D0
:104B14000FEF088309830091E00100620093E00134
:104B240000E00093FA032F911F910F91FF90EF90F3
:104B3400DF90CF90BF90AF909F908F907F906F90B9
:104B44005F904F903F902F901F900F90FF91EF91A7
:104B5400DF91CF91BF91AF910F900FBE0F90089549
:104B64008101831C0ACFD0C8C2C5D28083000081D2
:104B7400015484FD01810001830E008101908300B2
:104B84000281015484FD01810002830E028101919E
:104B940081008303045403002020928303055404FA
:104BA40000202093830006C0F2ECEE2089830007E6
:104BB400A8835500AC0094835501AD00958355023C
:104BC400AE0096835503AF0097834905D2E5ECEF19
:104BD400208367058C834906C8F2EEE320836106CF
:104BE4008D834907C0E2F2EE208367078E83490470
:104BF4008880FD25072686B186B28501EAEEEDF2AE
:104C0400F0EEEBFF20EDE5F28000850100D2850196
:104C1400B1850120E4EE008501B2850100801626ED
:104C240029263A2653266C2686AA86B486B186B2ED
:104C3400830006C0F2ECEE2089200083000755E2D1
:104C4400FBF5208500A900202084F400AB8086A910
:104C540086AA86AB868986B186B283000685010062
:104C6400D0E0E7E3EEED00A9850100830007B480FE
:104C740086A986AA86AB868986B486B186B2830065
:104C840006850100CDE0E3F0E5E220E2FBEAEB007B
:104C9400830007850100E2FBF5EEE42000A985010D
:104CA400008086A986AA86AB868986B486B186B238
:104CB400830006850100CDE0E3F0E5E220E2FBEAB3
:104CC400EB008300078501202020C0C2C0D0C8DFCC
:104CD40020202080830006C0F2ECEE20892000838F
:104CE40000072020CEF2EAEBFEF7E5ED202086A9AE
:104CF40086AA86AB86B486B186B28000830A008118
:104D040000CDE0F1F2F0EEE9EAE020E4E0F2F7E8C9
:104D1400EA2030830A012D2D2D2D2D2D2D2D2D2D05
:104D24002D2D2D2D2D2D2D2D830A02D2E5EAF3F9FB
:104D3400E5E583550290830A032D2D2D2D2D2D2D70
:104D44002D2D2D2D2D2D2D2D2D2D2D830A04CFEE22
:104D5400F0EEE383550494830A05C4E5E9F1F2E235
:104D6400E8E5835E05A0830A06C7E0E4E5F0E6EA29
:104D7400E02020E2EAEB2E208364069822830A07CF
:104D8400C7E0E4E5F0E6EAE020E2FBEAEB2E20836C
:104D940064079C228000830A008100CDE0F1F2F0D8
:104DA400EEE9EAE020E4E0F2F7E8EA2031830A01E0
:104DB4002D2D2D2D2D2D2D2D2D2D2D2D2D2D2D2D1F
:104DC4002D2D830A02D2E5EAF3F9E5E58355029134
:104DD400830A032D2D2D2D2D2D2D2D2D2D2D2D2DF6
:104DE4002D2D2D2D2D830A04CFEEF0EEE3835504F3
:104DF40095830A05C4E5E9F1F2E2E8E5835E05A1DD
:104E0400830A06C7E0E4E5F0E6EAE02020E2EAEB04
:104E14002E208364069922830A07C7E0E4E5F0E6BE
:104E2400EAE020E2FBEAEB2E208364079D22800067
:104E3400830A008100CDE0F1F2F0EEE9EAE020E43B
:104E4400E0F2F7E8EA2032830A012D2D2D2D2D2DD5
:104E54002D2D2D2D2D2D2D2D2D2D2D2D830A02D2D1
:104E6400E5EAF3F9E5E583550292830A032D2D2D36
:104E74002D2D2D2D2D2D2D2D2D2D2D2D2D2D2D8308
:104E84000A04CFEEF0EEE383550496830A05C4E5E5
:104E9400E9F1F2E2E8E5835E05A2830A06C7E0E4ED
:104EA400E5F0E6EAE02020E2EAEB2E208364069AAD
:104EB40022830A07C7E0E4E5F0E6EAE020E2FBEA41
:104EC400EB2E208364079E228000830A008100CD9C
:104ED400E0F1F2F0EEE9EAE020E4E0F2F7E8EA20BB
:104EE40033830A012D2D2D2D2D2D2D2D2D2D2D2DE1
:104EF4002D2D2D2D2D2D830A02D2E5EAF3F9E5E5BA
:104F040083550293830A032D2D2D2D2D2D2D2D2D0B
:104F14002D2D2D2D2D2D2D2D2D830A04CFEEF0EECC
:104F2400E383550497830A05C4E5E9F1F2E2E8E571
:104F3400835E05A3830A06C7E0E4E5F0E6EAE02021
:104F440020E2EAEB2E208364069B22830A07C7E053
:104F5400E4E5F0E6EAE020E2FBEAEB2E20836407D6
:104F64009F228000830A008100CDE0F1F2F0EEE997
:104F7400EAE020E4EEE7E0F2EEF0E0830A012D2D12
:104F84002D2D2D2D2D2D2D2D2D2D2D2D2D2D2D2D4D
:104F9400830A02D8E0E3E82020202020208A830A24
:104FA400032D2D2D2D2D2D2D2D2D2D2D2D2D2D2D57
:104FB4002D2D2D830A04C8F2EEE3EE2020202020BC
:104FC4008D20ECEB830A05D1F2EEEF20F7E5F0E556
:104FD400E7208E20ECEB830A06C4EEE7E8F0EEE26D
:104FE400EAE020208F20ECEB830A07878000830A05
:104FF400008100CAE0EBE8E1F0EEE2EAE02020ED17
:10500400E0F1EEF1E0830A012D2D2D2D2D2D2D2D16
:105014002D2D2D2D2D2D2D2D2D2D830A02D2E5EA9A
:10502400F3F9E5E520203A208B830A032D2D2D2D5D
:105034002D2D2D2D2D2D2D2D2D2D2D2D2D2D830A69
:1050440004D1F7E5F2F7E8EA20203A8A830705D28B
:10505400E5ECEF208C20C8F2EEE38D830A062D2DBB
:105064002D2D2D2D2D2D2D2D2D2D2D2D2D2D2D2D6C
:10507400830A07C7E0EFE8F1E0F2FC2020E22045D4
:105084004550524F4D800000830A00810020CAEE33
:10509400EDF2F0EEEBFC20F0E0E7E3EEEDE0208350
:1050A4000A012D2D2D2D2D2D2D2D2D2D2D2D2D2D7B
:1050B4002D2D2D2D830A02D2E5EAF3F9E0FF20D24B
:1050C40020202000B3830A032D2D2D2D2D2D2D2DD1
:1050D4002D2D2D2D2D2D2D2D2D2D830A04D1EEF1C9
:1050E400F2EEFFEDE8E52020202020B0830A05C47D
:1050F400E0F2F7E8EA20202020202020202020D2FF
:10510400B1830A06CFEEF0EEE320202020202020F9
:1051140000B2830A072D2D2D2D2D2D2D2D2D2D2D56
:105124002D2D2D2D2D2D2D800000830000810011AB
:10513400837A001083000420837A042083000520EE
:10514400837A052083000620837A062083000720C3
:10515400837A07208000830000810020837A002066
:105164008300043E837A043C83000520837A05206F
:1051740083000620837A062083000720837A072091
:105184008000830000810020837A002083000420B3
:10519400837A04208300053E837A053C830006203D
:1051A400837A062083000720837A07208000830007
:1051B40000810020837A002083000420837A042065
:1051C40083000520837A05208300063E837A063C0B
:1051D40083000720837A0720800083000081002059
:1051E400837A002083000420837A0420830005202E
:1051F400837A052083000620837A06208300073EF5
:10520400837A073C8000830000810020837A002099
:1052140083000410837A041183000520837A052017
:1052240083000620837A062083000720837A0720E0
:105234008000830000810020837A00208300042002
:10524400837A042083000510837A051183000620E5
:10525400837A062083000720837A07208000830056
:1052640000810020837A002083000420837A0420B4
:1052740083000520837A052083000610837A0611B3
:1052840083000720837A07208000830000810020A8
:10529400837A002083000420837A0420830005207D
:1052A400837A052083000620837A06208300071072
:1052B400837A0711800061296B2975297F29CFF032
:1052C400EEE4EEEBE6E8F2FC2020F0E0E1EEF2F3AF
:1052D4008000CFF0EEE4EEEBE6E8F2FC20E220EF13
:1052E400E0F3E7E58000CDE0E7E0E420EA20EDE04C
:1052F400F1F2F0EEE9EAE0EC8000CAE0EBE8E1F07C
:10530400EEE2EAE02020EDE0F1EEF1E08000912908
:1053140097299F29A629AD29AE29AF29B0292D2D7A
:105324002D2D2D2D2D2D2D80000085012D2DEFE00F
:10533400F3E7E02D2D8500800000850100E0E2F216
:10534400EEF1F2EEEF0080008501002D20F1F2EE87
:10535400EF202D0080008000800080008000C129A3
:10536400C429C729CA29CD29D029D329D629D9297D
:10537400DC29DF29E229E529E829EB29EE29EEF2E7
:10538400EAEB8000EEF2EAEB8000EEF2EAEB80005A
:10539400EEF2EAEB8000EEF2EAEB8000EEF2EAEBEA
:1053A4008000EEF2EAEB8000EEF2EAEB80000020EF
:1053B4000F200080200F0D208000200F0920800086
:1053C400000F090D0080200F19208000000F190D17
:1053D4000080000F190900800F19090D800020C2F8
:1053E400CACB8000E2FBEAEB80000F920FB60F926B
:1053F400EF93FF931F930F93EAE5F3E00091DA0331
:1054040010E0E00FF11F03950F77003879F0009357
:10541400DA030191003051F00093C6000F911F91FF
:10542400FF91EF910F900FBE0F90189508ED009328
:10543400C10000E00093E301F1CF0FEF0093E3011B
:1054440008EF0093C10008950F931F93EF93FF9308
:105454000091E301002379F40091DB03003029F487
:105464000091DC03003009F406C00E94422A0E9425
:10547400512A0E941F2AFF91EF911F910F910895C5
:10548400E0E0F5E50091DC0307701127E00FF11F60
:10549400E00FF11F05911491F80109950895ECEDC1
:1054A400F3E017E0112321F0018101931A95FACF5B
:1054B400002700830091DB03002319F00A95009371
:1054C400DB030895EF93FF931F93083098F4109132
:1054D400DB03173008F00EC0ECEDF3E0E10F112709
:1054E400F11F1191011731F000831091DB03139523
:1054F4001093DB031F91FF91EF910895A101592BA4
:10550400082B8E2BC92A882AA101A1010F920FB65C
:105514000F92AF93BF93CF93DF93EF93FF930F93C8
:105524001F93AAE5B3E00CE30D9306E50D930AE39C
:105534000D93C0E0D2E009810E94DF1C1D930D93FE
:1055440008810E94DF1C1D930D93C7E0D2E00981FE
:105554000E94DF1C1D930D9308810E94DF1C1D9384
:105564000D930EE30D930DE00D930AE00D9300E00F
:105574000D930093DA031F910F91FF91EF91DF9147
:10558400CF91BF91AF910F900FBE0F9008950F92DE
:105594000FB60F92AF93BF93CF93DF93EF93FF9325
:1055A4000F931F93AAE5B3E00CE30D930AE50D9363
:1055B4000AE30D93C1EFD1E00B810E94DF1C1D9320
:1055C4000D930A810E94DF1C1D930D9309810E9493
:1055D400DF1C1D930D9308810E94DF1C1D930D9306
:1055E4000EE30D930DE00D930AE00D9300E00D938F
:1055F4000093DA031F910F91FF91EF91DF91CF9107
:10560400BF91AF910F900FBE0F9008950F920FB6F8
:105614000F92AF93BF93CF93DF93EF93FF930F93C7
:105624001F93AAE5B3E00CE30D9305E50D930AE39C
:105634000D93C5EED3E009810E94DF1C1D930D93E9
:1056440008810E94DF1C1D930D930B810E94DF1CB7
:105654001D930D930A810E94DF1C1D930D93C9EEC7
:10566400D3E008810E94DF1C0D93CBEED3E00881C8
:105674000E94DF1C0D93CAEED3E008810E94DF1C58
:105684000D930EE30D930DE00D930AE00D9300E0EE
:105694000D930093DA031F910F91FF91EF91DF9126
:1056A400CF91BF91AF910F900FBE0F9008950F92BD
:1056B4000FB60F92AF93BF93CF93DF93EF93FF9304
:1056C4000F931F93AAE5B3E00CE30D9303E50D9349
:1056D4000AE30D93CEEFD1E009810E94DF1C1D93F4
:1056E4000D9308810E94DF1C1D930D930EE30D930F
:1056F4000DE00D930AE00D9300E00D930093DA039F
:105704001F910F91FF91EF91DF91CF91BF91AF91D5
:105714000F900FBE0F9008950F920FB60F92AF9394
:10572400BF93CF93DF93EF93FF930F931F93AAE558
:10573400B3E00CE30D9304E50D930AE30D93C5E880
:10574400D1E009810E94DF1C1D930D9308810E9402
:10575400DF1C1D930D930B810E94DF1C1D930D9381
:105764000A810E94DF1C1D930D930D810E94DF1C92
:105774001D930D930C810E94DF1C1D930D930F81CB
:105784000E94DF1C1D930D930E810E94DF1C1D934C
:105794000D93CDE8D1E009810E94DF1C1D930D9388
:1057A40008810E94DF1C1D930D930B810E94DF1C56
:1057B4001D930D930A810E94DF1C1D930D930D818F
:1057C4000E94DF1C1D930D930C810E94DF1C1D930E
:1057D4000D930F810E94DF1C1D930D930E810E9477
:1057E400DF1C1D930D93CBE7D1E00A810E94DF1CDF
:1057F4001D930D9309810E94DF1C1D930D93088155
:105804000E94DF1C1D930D93CEEFD1E009810E940D
:10581400DF1C1D930D9308810E94DF1C1D930D93C3
:105824000F931F932F933F934F935F936F937F93A4
:105834008F939F936091F1017091F2018091F30134
:105844009091F40150E040E030E024E60E94161DFF
:105854009B01AC016091E9017091EA018091EB0137
:105864009091EC010E94161D60930402709305024E
:10587400809306029F918F917F916F915F914F91D9
:105884003F912F911F910F91C4E0D2E00A810E94B1
:10589400DF1C0D9309810E94DF1C1D930D93088169
:1058A4000E94DF1C1D930D93C0E0D2E009810E9489
:1058B400DF1C1D930D9308810E94DF1C1D930D9323
:1058C4000F931F932F933F934F935F936F937F9304
:1058D4008F939F936091F1017091F2018091F30194
:1058E4009091F40150E040E030E024E60E94161D5F
:1058F4009B01AC016091ED017091EE018091EF018B
:105904009091F0010E94161D6093070270930802A3
:105914009F918F917F916F915F914F913F912F91C3
:105924001F910F91C7E0D2E009810E94DF1C1D93F3
:105934000D9308810E94DF1C1D930D93CCE0D1E0F0
:1059440008810E94DF1C0D93CDE9D1E008810E94FB
:10595400DF1C0D9309810E94DF1C0D930A810E94B4
:10596400DF1C0D930B810E94DF1C0D93C1EED1E06F
:1059740008810E94DF1C0D93C5EED3E009810E94CB
:10598400DF1C1D930D9308810E94DF1C1D930D9352
:105994000B810E94DF1C1D930D930A810E94DF1C62
:1059A4001D930D93C9EED3E008810E94DF1C0D9373
:1059B400C7EFD3E008810E94DF1C0D93C6EFD3E04C
:1059C40008810E94DF1C0D93C8EFD3E009810E9477
:1059D400DF1C1D930D9308810E94DF1C1D930D9302
:1059E4000EE30D930DE00D930AE00D9300E00D938B
:1059F4000093DA031F910F91FF91EF91DF91CF9103
:105A0400BF91AF910F900FBE0F900895003398F09F
:105A14000A3318F4005388940FC0013460F007343B
:105A240018F40753889408C0013628F0073618F490
:105A34000755889401C00894089518950F920FB6DD
:105A44000F92EF93FF931F930F930091E10103FDD6
:105A54003DC0E9EDF2E00091C6000D3009F431C01B
:105A6400073408F40CC00A3558F051F0013608F434
:105A74002DC00A3710F009F029C00052F1CF06C03A
:105A840000C0008300270093590320C0003350F066
:105A9400093348F041F0013428F0063420F019F0BD
:105AA4000052F9CF13C01091590313951F3010F011
:105AB40009F00CC010935903E10F10E0F11F0083AB
